{
  "_format": "hh-sol-artifact-1",
  "contractName": "EventTicketNFT",
  "sourceName": "contracts/EventTicketNFT.sol",
  "abi": [
    {
      "inputs": [],
      "stateMutability": "nonpayable",
      "type": "constructor"
    },
    {
      "inputs": [
        {
          "internalType": "address",
          "name": "sender",
          "type": "address"
        },
        {
          "internalType": "uint256",
          "name": "tokenId",
          "type": "uint256"
        },
        {
          "internalType": "address",
          "name": "owner",
          "type": "address"
        }
      ],
      "name": "ERC721IncorrectOwner",
      "type": "error"
    },
    {
      "inputs": [
        {
          "internalType": "address",
          "name": "operator",
          "type": "address"
        },
        {
          "internalType": "uint256",
          "name": "tokenId",
          "type": "uint256"
        }
      ],
      "name": "ERC721InsufficientApproval",
      "type": "error"
    },
    {
      "inputs": [
        {
          "internalType": "address",
          "name": "approver",
          "type": "address"
        }
      ],
      "name": "ERC721InvalidApprover",
      "type": "error"
    },
    {
      "inputs": [
        {
          "internalType": "address",
          "name": "operator",
          "type": "address"
        }
      ],
      "name": "ERC721InvalidOperator",
      "type": "error"
    },
    {
      "inputs": [
        {
          "internalType": "address",
          "name": "owner",
          "type": "address"
        }
      ],
      "name": "ERC721InvalidOwner",
      "type": "error"
    },
    {
      "inputs": [
        {
          "internalType": "address",
          "name": "receiver",
          "type": "address"
        }
      ],
      "name": "ERC721InvalidReceiver",
      "type": "error"
    },
    {
      "inputs": [
        {
          "internalType": "address",
          "name": "sender",
          "type": "address"
        }
      ],
      "name": "ERC721InvalidSender",
      "type": "error"
    },
    {
      "inputs": [
        {
          "internalType": "uint256",
          "name": "tokenId",
          "type": "uint256"
        }
      ],
      "name": "ERC721NonexistentToken",
      "type": "error"
    },
    {
      "inputs": [
        {
          "internalType": "address",
          "name": "owner",
          "type": "address"
        }
      ],
      "name": "OwnableInvalidOwner",
      "type": "error"
    },
    {
      "inputs": [
        {
          "internalType": "address",
          "name": "account",
          "type": "address"
        }
      ],
      "name": "OwnableUnauthorizedAccount",
      "type": "error"
    },
    {
      "inputs": [],
      "name": "ReentrancyGuardReentrantCall",
      "type": "error"
    },
    {
      "anonymous": false,
      "inputs": [
        {
          "indexed": true,
          "internalType": "address",
          "name": "owner",
          "type": "address"
        },
        {
          "indexed": true,
          "internalType": "address",
          "name": "approved",
          "type": "address"
        },
        {
          "indexed": true,
          "internalType": "uint256",
          "name": "tokenId",
          "type": "uint256"
        }
      ],
      "name": "Approval",
      "type": "event"
    },
    {
      "anonymous": false,
      "inputs": [
        {
          "indexed": true,
          "internalType": "address",
          "name": "owner",
          "type": "address"
        },
        {
          "indexed": true,
          "internalType": "address",
          "name": "operator",
          "type": "address"
        },
        {
          "indexed": false,
          "internalType": "bool",
          "name": "approved",
          "type": "bool"
        }
      ],
      "name": "ApprovalForAll",
      "type": "event"
    },
    {
      "anonymous": false,
      "inputs": [
        {
          "indexed": false,
          "internalType": "uint256",
          "name": "_fromTokenId",
          "type": "uint256"
        },
        {
          "indexed": false,
          "internalType": "uint256",
          "name": "_toTokenId",
          "type": "uint256"
        }
      ],
      "name": "BatchMetadataUpdate",
      "type": "event"
    },
    {
      "anonymous": false,
      "inputs": [
        {
          "indexed": true,
          "internalType": "uint256",
          "name": "eventId",
          "type": "uint256"
        },
        {
          "indexed": false,
          "internalType": "string",
          "name": "name",
          "type": "string"
        },
        {
          "indexed": true,
          "internalType": "address",
          "name": "organizer",
          "type": "address"
        }
      ],
      "name": "EventCreated",
      "type": "event"
    },
    {
      "anonymous": false,
      "inputs": [
        {
          "indexed": false,
          "internalType": "uint256",
          "name": "_tokenId",
          "type": "uint256"
        }
      ],
      "name": "MetadataUpdate",
      "type": "event"
    },
    {
      "anonymous": false,
      "inputs": [
        {
          "indexed": true,
          "internalType": "address",
          "name": "previousOwner",
          "type": "address"
        },
        {
          "indexed": true,
          "internalType": "address",
          "name": "newOwner",
          "type": "address"
        }
      ],
      "name": "OwnershipTransferred",
      "type": "event"
    },
    {
      "anonymous": false,
      "inputs": [
        {
          "indexed": false,
          "internalType": "uint256",
          "name": "oldFee",
          "type": "uint256"
        },
        {
          "indexed": false,
          "internalType": "uint256",
          "name": "newFee",
          "type": "uint256"
        }
      ],
      "name": "PlatformFeeChanged",
      "type": "event"
    },
    {
      "anonymous": false,
      "inputs": [
        {
          "indexed": true,
          "internalType": "address",
          "name": "admin",
          "type": "address"
        },
        {
          "indexed": false,
          "internalType": "uint256",
          "name": "amount",
          "type": "uint256"
        }
      ],
      "name": "PlatformFeesWithdrawn",
      "type": "event"
    },
    {
      "anonymous": false,
      "inputs": [
        {
          "indexed": true,
          "internalType": "uint256",
          "name": "eventId",
          "type": "uint256"
        },
        {
          "indexed": true,
          "internalType": "address",
          "name": "organizer",
          "type": "address"
        },
        {
          "indexed": false,
          "internalType": "uint256",
          "name": "organizerAmount",
          "type": "uint256"
        },
        {
          "indexed": false,
          "internalType": "uint256",
          "name": "platformFee",
          "type": "uint256"
        }
      ],
      "name": "RevenueSettled",
      "type": "event"
    },
    {
      "anonymous": false,
      "inputs": [
        {
          "indexed": true,
          "internalType": "uint256",
          "name": "tokenId",
          "type": "uint256"
        },
        {
          "indexed": true,
          "internalType": "uint256",
          "name": "eventId",
          "type": "uint256"
        },
        {
          "indexed": true,
          "internalType": "uint256",
          "name": "ticketTypeId",
          "type": "uint256"
        },
        {
          "indexed": false,
          "internalType": "uint256",
          "name": "sessionId",
          "type": "uint256"
        },
        {
          "indexed": false,
          "internalType": "address",
          "name": "owner",
          "type": "address"
        },
        {
          "indexed": false,
          "internalType": "uint256",
          "name": "price",
          "type": "uint256"
        }
      ],
      "name": "TicketMinted",
      "type": "event"
    },
    {
      "anonymous": false,
      "inputs": [
        {
          "indexed": true,
          "internalType": "uint256",
          "name": "ticketTypeId",
          "type": "uint256"
        },
        {
          "indexed": true,
          "internalType": "uint256",
          "name": "eventId",
          "type": "uint256"
        },
        {
          "indexed": false,
          "internalType": "string",
          "name": "name",
          "type": "string"
        },
        {
          "indexed": false,
          "internalType": "uint256",
          "name": "price",
          "type": "uint256"
        },
        {
          "indexed": false,
          "internalType": "uint256",
          "name": "totalSupply",
          "type": "uint256"
        }
      ],
      "name": "TicketTypeCreated",
      "type": "event"
    },
    {
      "anonymous": false,
      "inputs": [
        {
          "indexed": true,
          "internalType": "address",
          "name": "from",
          "type": "address"
        },
        {
          "indexed": true,
          "internalType": "address",
          "name": "to",
          "type": "address"
        },
        {
          "indexed": true,
          "internalType": "uint256",
          "name": "tokenId",
          "type": "uint256"
        }
      ],
      "name": "Transfer",
      "type": "event"
    },
    {
      "inputs": [],
      "name": "MAX_PLATFORM_FEE",
      "outputs": [
        {
          "internalType": "uint256",
          "name": "",
          "type": "uint256"
        }
      ],
      "stateMutability": "view",
      "type": "function"
    },
    {
      "inputs": [
        {
          "internalType": "address",
          "name": "to",
          "type": "address"
        },
        {
          "internalType": "uint256",
          "name": "tokenId",
          "type": "uint256"
        }
      ],
      "name": "approve",
      "outputs": [],
      "stateMutability": "nonpayable",
      "type": "function"
    },
    {
      "inputs": [
        {
          "internalType": "address",
          "name": "owner",
          "type": "address"
        }
      ],
      "name": "balanceOf",
      "outputs": [
        {
          "internalType": "uint256",
          "name": "",
          "type": "uint256"
        }
      ],
      "stateMutability": "view",
      "type": "function"
    },
    {
      "inputs": [
        {
          "internalType": "string[]",
          "name": "uris",
          "type": "string[]"
        },
        {
          "internalType": "uint256[]",
          "name": "ticketTypeIds",
          "type": "uint256[]"
        },
        {
          "internalType": "uint256[]",
          "name": "sessionIds",
          "type": "uint256[]"
        }
      ],
      "name": "buyTickets",
      "outputs": [],
      "stateMutability": "payable",
      "type": "function"
    },
    {
      "inputs": [
        {
          "internalType": "uint256[]",
          "name": "ticketTypeIds",
          "type": "uint256[]"
        },
        {
          "internalType": "uint256[]",
          "name": "quantities",
          "type": "uint256[]"
        }
      ],
      "name": "checkAvailabilityForPurchase",
      "outputs": [
        {
          "internalType": "bool",
          "name": "canPurchase",
          "type": "bool"
        },
        {
          "internalType": "string",
          "name": "reason",
          "type": "string"
        }
      ],
      "stateMutability": "view",
      "type": "function"
    },
    {
      "inputs": [
        {
          "internalType": "uint256",
          "name": "eventId",
          "type": "uint256"
        },
        {
          "internalType": "string",
          "name": "eventName",
          "type": "string"
        },
        {
          "internalType": "address",
          "name": "organizer",
          "type": "address"
        }
      ],
      "name": "createEvent",
      "outputs": [],
      "stateMutability": "nonpayable",
      "type": "function"
    },
    {
      "inputs": [
        {
          "internalType": "uint256",
          "name": "eventId",
          "type": "uint256"
        },
        {
          "internalType": "string",
          "name": "typeName",
          "type": "string"
        },
        {
          "internalType": "uint256",
          "name": "priceWei",
          "type": "uint256"
        },
        {
          "internalType": "uint256",
          "name": "totalSupply",
          "type": "uint256"
        }
      ],
      "name": "createTicketType",
      "outputs": [
        {
          "internalType": "uint256",
          "name": "ticketTypeId",
          "type": "uint256"
        }
      ],
      "stateMutability": "nonpayable",
      "type": "function"
    },
    {
      "inputs": [],
      "name": "emergencyWithdraw",
      "outputs": [],
      "stateMutability": "nonpayable",
      "type": "function"
    },
    {
      "inputs": [
        {
          "internalType": "uint256",
          "name": "",
          "type": "uint256"
        }
      ],
      "name": "eventInfo",
      "outputs": [
        {
          "internalType": "bool",
          "name": "exists",
          "type": "bool"
        },
        {
          "internalType": "string",
          "name": "name",
          "type": "string"
        },
        {
          "internalType": "address",
          "name": "organizer",
          "type": "address"
        },
        {
          "internalType": "uint256",
          "name": "totalRevenue",
          "type": "uint256"
        },
        {
          "internalType": "bool",
          "name": "settled",
          "type": "bool"
        }
      ],
      "stateMutability": "view",
      "type": "function"
    },
    {
      "inputs": [
        {
          "internalType": "uint256",
          "name": "",
          "type": "uint256"
        }
      ],
      "name": "eventPlatformFees",
      "outputs": [
        {
          "internalType": "uint256",
          "name": "",
          "type": "uint256"
        }
      ],
      "stateMutability": "view",
      "type": "function"
    },
    {
      "inputs": [
        {
          "internalType": "uint256",
          "name": "",
          "type": "uint256"
        }
      ],
      "name": "eventRevenue",
      "outputs": [
        {
          "internalType": "uint256",
          "name": "",
          "type": "uint256"
        }
      ],
      "stateMutability": "view",
      "type": "function"
    },
    {
      "inputs": [
        {
          "internalType": "uint256",
          "name": "",
          "type": "uint256"
        }
      ],
      "name": "eventSettled",
      "outputs": [
        {
          "internalType": "bool",
          "name": "",
          "type": "bool"
        }
      ],
      "stateMutability": "view",
      "type": "function"
    },
    {
      "inputs": [
        {
          "internalType": "uint256",
          "name": "tokenId",
          "type": "uint256"
        }
      ],
      "name": "getApproved",
      "outputs": [
        {
          "internalType": "address",
          "name": "",
          "type": "address"
        }
      ],
      "stateMutability": "view",
      "type": "function"
    },
    {
      "inputs": [],
      "name": "getContractBalance",
      "outputs": [
        {
          "internalType": "uint256",
          "name": "",
          "type": "uint256"
        }
      ],
      "stateMutability": "view",
      "type": "function"
    },
    {
      "inputs": [
        {
          "internalType": "uint256",
          "name": "eventId",
          "type": "uint256"
        }
      ],
      "name": "getEventRevenue",
      "outputs": [
        {
          "internalType": "uint256",
          "name": "organizerRevenue",
          "type": "uint256"
        },
        {
          "internalType": "uint256",
          "name": "platformFees",
          "type": "uint256"
        },
        {
          "internalType": "bool",
          "name": "settled",
          "type": "bool"
        },
        {
          "internalType": "address",
          "name": "organizer",
          "type": "address"
        }
      ],
      "stateMutability": "view",
      "type": "function"
    },
    {
      "inputs": [],
      "name": "getPlatformFeePercent",
      "outputs": [
        {
          "internalType": "uint256",
          "name": "",
          "type": "uint256"
        }
      ],
      "stateMutability": "view",
      "type": "function"
    },
    {
      "inputs": [
        {
          "internalType": "uint256",
          "name": "ticketTypeId",
          "type": "uint256"
        }
      ],
      "name": "getTicketTypeAvailability",
      "outputs": [
        {
          "internalType": "uint256",
          "name": "remaining",
          "type": "uint256"
        },
        {
          "internalType": "uint256",
          "name": "price",
          "type": "uint256"
        },
        {
          "internalType": "bool",
          "name": "exists",
          "type": "bool"
        },
        {
          "internalType": "string",
          "name": "name",
          "type": "string"
        }
      ],
      "stateMutability": "view",
      "type": "function"
    },
    {
      "inputs": [
        {
          "internalType": "uint256",
          "name": "eventId",
          "type": "uint256"
        }
      ],
      "name": "getTicketTypesByEvent",
      "outputs": [
        {
          "internalType": "uint256[]",
          "name": "",
          "type": "uint256[]"
        }
      ],
      "stateMutability": "view",
      "type": "function"
    },
    {
      "inputs": [],
      "name": "getTotalPlatformFees",
      "outputs": [
        {
          "internalType": "uint256",
          "name": "",
          "type": "uint256"
        }
      ],
      "stateMutability": "view",
      "type": "function"
    },
    {
      "inputs": [
        {
          "internalType": "address",
          "name": "owner",
          "type": "address"
        },
        {
          "internalType": "address",
          "name": "operator",
          "type": "address"
        }
      ],
      "name": "isApprovedForAll",
      "outputs": [
        {
          "internalType": "bool",
          "name": "",
          "type": "bool"
        }
      ],
      "stateMutability": "view",
      "type": "function"
    },
    {
      "inputs": [
        {
          "internalType": "address",
          "name": "to",
          "type": "address"
        },
        {
          "internalType": "string",
          "name": "uri",
          "type": "string"
        },
        {
          "internalType": "uint256",
          "name": "ticketTypeId",
          "type": "uint256"
        },
        {
          "internalType": "uint256",
          "name": "sessionId",
          "type": "uint256"
        }
      ],
      "name": "mintTicket",
      "outputs": [
        {
          "internalType": "uint256",
          "name": "",
          "type": "uint256"
        }
      ],
      "stateMutability": "nonpayable",
      "type": "function"
    },
    {
      "inputs": [],
      "name": "name",
      "outputs": [
        {
          "internalType": "string",
          "name": "",
          "type": "string"
        }
      ],
      "stateMutability": "view",
      "type": "function"
    },
    {
      "inputs": [],
      "name": "nextTicketTypeId",
      "outputs": [
        {
          "internalType": "uint256",
          "name": "",
          "type": "uint256"
        }
      ],
      "stateMutability": "view",
      "type": "function"
    },
    {
      "inputs": [],
      "name": "nextTokenId",
      "outputs": [
        {
          "internalType": "uint256",
          "name": "",
          "type": "uint256"
        }
      ],
      "stateMutability": "view",
      "type": "function"
    },
    {
      "inputs": [],
      "name": "owner",
      "outputs": [
        {
          "internalType": "address",
          "name": "",
          "type": "address"
        }
      ],
      "stateMutability": "view",
      "type": "function"
    },
    {
      "inputs": [
        {
          "internalType": "uint256",
          "name": "tokenId",
          "type": "uint256"
        }
      ],
      "name": "ownerOf",
      "outputs": [
        {
          "internalType": "address",
          "name": "",
          "type": "address"
        }
      ],
      "stateMutability": "view",
      "type": "function"
    },
    {
      "inputs": [],
      "name": "platformFeePercent",
      "outputs": [
        {
          "internalType": "uint256",
          "name": "",
          "type": "uint256"
        }
      ],
      "stateMutability": "view",
      "type": "function"
    },
    {
      "inputs": [],
      "name": "renounceOwnership",
      "outputs": [],
      "stateMutability": "nonpayable",
      "type": "function"
    },
    {
      "inputs": [
        {
          "internalType": "address",
          "name": "from",
          "type": "address"
        },
        {
          "internalType": "address",
          "name": "to",
          "type": "address"
        },
        {
          "internalType": "uint256",
          "name": "tokenId",
          "type": "uint256"
        }
      ],
      "name": "safeTransferFrom",
      "outputs": [],
      "stateMutability": "nonpayable",
      "type": "function"
    },
    {
      "inputs": [
        {
          "internalType": "address",
          "name": "from",
          "type": "address"
        },
        {
          "internalType": "address",
          "name": "to",
          "type": "address"
        },
        {
          "internalType": "uint256",
          "name": "tokenId",
          "type": "uint256"
        },
        {
          "internalType": "bytes",
          "name": "data",
          "type": "bytes"
        }
      ],
      "name": "safeTransferFrom",
      "outputs": [],
      "stateMutability": "nonpayable",
      "type": "function"
    },
    {
      "inputs": [
        {
          "internalType": "address",
          "name": "operator",
          "type": "address"
        },
        {
          "internalType": "bool",
          "name": "approved",
          "type": "bool"
        }
      ],
      "name": "setApprovalForAll",
      "outputs": [],
      "stateMutability": "nonpayable",
      "type": "function"
    },
    {
      "inputs": [
        {
          "internalType": "uint256",
          "name": "newFeePercent",
          "type": "uint256"
        }
      ],
      "name": "setPlatformFeePercent",
      "outputs": [],
      "stateMutability": "nonpayable",
      "type": "function"
    },
    {
      "inputs": [
        {
          "internalType": "uint256",
          "name": "eventId",
          "type": "uint256"
        }
      ],
      "name": "settleEventRevenue",
      "outputs": [],
      "stateMutability": "nonpayable",
      "type": "function"
    },
    {
      "inputs": [
        {
          "internalType": "bytes4",
          "name": "interfaceId",
          "type": "bytes4"
        }
      ],
      "name": "supportsInterface",
      "outputs": [
        {
          "internalType": "bool",
          "name": "",
          "type": "bool"
        }
      ],
      "stateMutability": "view",
      "type": "function"
    },
    {
      "inputs": [],
      "name": "symbol",
      "outputs": [
        {
          "internalType": "string",
          "name": "",
          "type": "string"
        }
      ],
      "stateMutability": "view",
      "type": "function"
    },
    {
      "inputs": [
        {
          "internalType": "uint256",
          "name": "",
          "type": "uint256"
        }
      ],
      "name": "ticketTypeInfo",
      "outputs": [
        {
          "internalType": "uint256",
          "name": "eventId",
          "type": "uint256"
        },
        {
          "internalType": "uint256",
          "name": "price",
          "type": "uint256"
        },
        {
          "internalType": "uint256",
          "name": "remaining",
          "type": "uint256"
        },
        {
          "internalType": "string",
          "name": "name",
          "type": "string"
        },
        {
          "internalType": "bool",
          "name": "exists",
          "type": "bool"
        }
      ],
      "stateMutability": "view",
      "type": "function"
    },
    {
      "inputs": [
        {
          "internalType": "uint256",
          "name": "",
          "type": "uint256"
        }
      ],
      "name": "tickets",
      "outputs": [
        {
          "internalType": "uint256",
          "name": "eventId",
          "type": "uint256"
        },
        {
          "internalType": "uint256",
          "name": "ticketTypeId",
          "type": "uint256"
        },
        {
          "internalType": "uint256",
          "name": "sessionId",
          "type": "uint256"
        },
        {
          "internalType": "uint256",
          "name": "price",
          "type": "uint256"
        }
      ],
      "stateMutability": "view",
      "type": "function"
    },
    {
      "inputs": [
        {
          "internalType": "uint256",
          "name": "tokenId",
          "type": "uint256"
        }
      ],
      "name": "tokenURI",
      "outputs": [
        {
          "internalType": "string",
          "name": "",
          "type": "string"
        }
      ],
      "stateMutability": "view",
      "type": "function"
    },
    {
      "inputs": [],
      "name": "totalPlatformFees",
      "outputs": [
        {
          "internalType": "uint256",
          "name": "",
          "type": "uint256"
        }
      ],
      "stateMutability": "view",
      "type": "function"
    },
    {
      "inputs": [
        {
          "internalType": "address",
          "name": "from",
          "type": "address"
        },
        {
          "internalType": "address",
          "name": "to",
          "type": "address"
        },
        {
          "internalType": "uint256",
          "name": "tokenId",
          "type": "uint256"
        }
      ],
      "name": "transferFrom",
      "outputs": [],
      "stateMutability": "nonpayable",
      "type": "function"
    },
    {
      "inputs": [
        {
          "internalType": "address",
          "name": "newOwner",
          "type": "address"
        }
      ],
      "name": "transferOwnership",
      "outputs": [],
      "stateMutability": "nonpayable",
      "type": "function"
    },
    {
      "inputs": [
        {
          "internalType": "uint256",
          "name": "amount",
          "type": "uint256"
        }
      ],
      "name": "withdrawPlatformFees",
      "outputs": [],
      "stateMutability": "nonpayable",
      "type": "function"
    }
  ],
  "bytecode": "0x6080604052600a600c556000600d556001601155600160125534801561002457600080fd5b50336040518060400160405280600e81526020017f4576656e745469636b65744e46540000000000000000000000000000000000008152506040518060400160405280600581526020017f45544e465400000000000000000000000000000000000000000000000000000081525081600090816100a19190610459565b5080600190816100b19190610459565b505050600073ffffffffffffffffffffffffffffffffffffffff168173ffffffffffffffffffffffffffffffffffffffff16036101265760006040517f1e4fbdf700000000000000000000000000000000000000000000000000000000815260040161011d919061056c565b60405180910390fd5b6101358161014360201b60201c565b506001600881905550610587565b6000600760009054906101000a900473ffffffffffffffffffffffffffffffffffffffff16905081600760006101000a81548173ffffffffffffffffffffffffffffffffffffffff021916908373ffffffffffffffffffffffffffffffffffffffff1602179055508173ffffffffffffffffffffffffffffffffffffffff168173ffffffffffffffffffffffffffffffffffffffff167f8be0079c531659141344cd1fd0a4f28419497f9722a3daafe3b4186f6b6457e060405160405180910390a35050565b600081519050919050565b7f4e487b7100000000000000000000000000000000000000000000000000000000600052604160045260246000fd5b7f4e487b7100000000000000000000000000000000000000000000000000000000600052602260045260246000fd5b6000600282049050600182168061028a57607f821691505b60208210810361029d5761029c610243565b5b50919050565b60008190508160005260206000209050919050565b60006020601f8301049050919050565b600082821b905092915050565b6000600883026103057fffffffffffffffffffffffffffffffffffffffffffffffffffffffffffffffff826102c8565b61030f86836102c8565b95508019841693508086168417925050509392505050565b6000819050919050565b6000819050919050565b600061035661035161034c84610327565b610331565b610327565b9050919050565b6000819050919050565b6103708361033b565b61038461037c8261035d565b8484546102d5565b825550505050565b600090565b61039961038c565b6103a4818484610367565b505050565b5b818110156103c8576103bd600082610391565b6001810190506103aa565b5050565b601f82111561040d576103de816102a3565b6103e7846102b8565b810160208510156103f6578190505b61040a610402856102b8565b8301826103a9565b50505b505050565b600082821c905092915050565b600061043060001984600802610412565b1980831691505092915050565b6000610449838361041f565b9150826002028217905092915050565b61046282610209565b67ffffffffffffffff81111561047b5761047a610214565b5b6104858254610272565b6104908282856103cc565b600060209050601f8311600181146104c357600084156104b1578287015190505b6104bb858261043d565b865550610523565b601f1984166104d1866102a3565b60005b828110156104f9578489015182556001820191506020850194506020810190506104d4565b868310156105165784890151610512601f89168261041f565b8355505b6001600288020188555050505b505050505050565b600073ffffffffffffffffffffffffffffffffffffffff82169050919050565b60006105568261052b565b9050919050565b6105668161054b565b82525050565b6000602082019050610581600083018461055d565b92915050565b6158b9806105966000396000f3fe6080604052600436106102515760003560e01c80636fa605e311610139578063b217009b116100b6578063db2e21bc1161007a578063db2e21bc1461094b578063e828c04c14610962578063e985e9c51461098b578063f1130690146109c8578063f2fde38b14610a05578063f596a0cf14610a2e57610251565b8063b217009b14610875578063b88d4fde14610891578063c87b56dd146108ba578063cab230d2146108f7578063d3631fa51461092057610251565b80638c639a85116100fd5780638c639a851461078a5780638da5cb5b146107b557806395d89b41146107e05780639d0c025b1461080b578063a22cb4651461084c57610251565b80636fa605e31461069157806370a08231146106ce578063715018a61461070b57806375794a3c146107225780638b6296421461074d57610251565b80633998a681116101d257806350b447121161019657806350b447121461055857806361e5fb3d146105985780636352211e146105d55780636520f171146106125780636aa214161461063d5780636f9fb98a1461066657610251565b80633998a6811461047057806342842e0e1461049b578063464e99fa146104c45780634c9c3f85146104ed5780634cbd6fc61461051857610251565b806323b872dd1161021957806323b872dd146103615780632603aedc1461038a57806331521d57146103c757806332fd95b0146103f257806338d1de7f1461043257610251565b806301ffc9a71461025657806303f090ed1461029357806306fdde03146102d0578063081812fc146102fb578063095ea7b314610338575b600080fd5b34801561026257600080fd5b5061027d60048036038101906102789190613b5e565b610a6f565b60405161028a9190613ba6565b60405180910390f35b34801561029f57600080fd5b506102ba60048036038101906102b59190613cba565b610a81565b6040516102c79190613d51565b60405180910390f35b3480156102dc57600080fd5b506102e5610c21565b6040516102f29190613dfc565b60405180910390f35b34801561030757600080fd5b50610322600480360381019061031d9190613e1e565b610cb3565b60405161032f9190613e5a565b60405180910390f35b34801561034457600080fd5b5061035f600480360381019061035a9190613e75565b610ccf565b005b34801561036d57600080fd5b5061038860048036038101906103839190613eb5565b610ce5565b005b34801561039657600080fd5b506103b160048036038101906103ac9190613f08565b610de7565b6040516103be9190613d51565b60405180910390f35b3480156103d357600080fd5b506103dc610f8d565b6040516103e99190613d51565b60405180910390f35b3480156103fe57600080fd5b5061041960048036038101906104149190613e1e565b610f97565b6040516104299493929190613f90565b60405180910390f35b34801561043e57600080fd5b5061045960048036038101906104549190614032565b611071565b6040516104679291906140b3565b60405180910390f35b34801561047c57600080fd5b50610485611214565b6040516104929190613d51565b60405180910390f35b3480156104a757600080fd5b506104c260048036038101906104bd9190613eb5565b611219565b005b3480156104d057600080fd5b506104eb60048036038101906104e691906140e3565b611239565b005b3480156104f957600080fd5b506105026114b0565b60405161050f9190613d51565b60405180910390f35b34801561052457600080fd5b5061053f600480360381019061053a9190613e1e565b6114ba565b60405161054f9493929190614157565b60405180910390f35b34801561056457600080fd5b5061057f600480360381019061057a9190613e1e565b611546565b60405161058f949392919061419c565b60405180910390f35b3480156105a457600080fd5b506105bf60048036038101906105ba9190613e1e565b611576565b6040516105cc919061429f565b60405180910390f35b3480156105e157600080fd5b506105fc60048036038101906105f79190613e1e565b611717565b6040516106099190613e5a565b60405180910390f35b34801561061e57600080fd5b50610627611729565b6040516106349190613d51565b60405180910390f35b34801561064957600080fd5b50610664600480360381019061065f9190613e1e565b61172f565b005b34801561067257600080fd5b5061067b6118f4565b6040516106889190613d51565b60405180910390f35b34801561069d57600080fd5b506106b860048036038101906106b39190613e1e565b6118fc565b6040516106c59190613d51565b60405180910390f35b3480156106da57600080fd5b506106f560048036038101906106f091906142c1565b611914565b6040516107029190613d51565b60405180910390f35b34801561071757600080fd5b506107206119ce565b005b34801561072e57600080fd5b506107376119e2565b6040516107449190613d51565b60405180910390f35b34801561075957600080fd5b50610774600480360381019061076f9190613e1e565b6119e8565b6040516107819190613d51565b60405180910390f35b34801561079657600080fd5b5061079f611a00565b6040516107ac9190613d51565b60405180910390f35b3480156107c157600080fd5b506107ca611a06565b6040516107d79190613e5a565b60405180910390f35b3480156107ec57600080fd5b506107f5611a30565b6040516108029190613dfc565b60405180910390f35b34801561081757600080fd5b50610832600480360381019061082d9190613e1e565b611ac2565b6040516108439594939291906142ee565b60405180910390f35b34801561085857600080fd5b50610873600480360381019061086e9190614374565b611bba565b005b61088f600480360381019061088a919061440a565b611bd0565b005b34801561089d57600080fd5b506108b860048036038101906108b391906145ee565b612199565b005b3480156108c657600080fd5b506108e160048036038101906108dc9190613e1e565b6121be565b6040516108ee9190613dfc565b60405180910390f35b34801561090357600080fd5b5061091e60048036038101906109199190613e1e565b612247565b005b34801561092c57600080fd5b506109356122de565b6040516109429190613d51565b60405180910390f35b34801561095757600080fd5b506109606122e4565b005b34801561096e57600080fd5b5061098960048036038101906109849190613e1e565b6123eb565b005b34801561099757600080fd5b506109b260048036038101906109ad9190614671565b6126b8565b6040516109bf9190613ba6565b60405180910390f35b3480156109d457600080fd5b506109ef60048036038101906109ea9190613e1e565b61274c565b6040516109fc9190613ba6565b60405180910390f35b348015610a1157600080fd5b50610a2c6004803603810190610a2791906142c1565b61276c565b005b348015610a3a57600080fd5b50610a556004803603810190610a509190613e1e565b6127f2565b604051610a669594939291906146b1565b60405180910390f35b6000610a7a826128bd565b9050919050565b6000610a8b61291e565b6000600a600085815260200190815260200160002090508060040160009054906101000a900460ff16610af3576040517f08c379a0000000000000000000000000000000000000000000000000000000008152600401610aea90614757565b60405180910390fd5b600060116000815480929190610b08906147a6565b919050559050610b1888826129a5565b610b668188888080601f016020809104026020016040519081016040528093929190818152602001838380828437600081840152601f19601f820116905080830192505050505050506129c3565b6040518060800160405280836000015481526020018681526020018581526020018360010154815250600b600083815260200190815260200160002060008201518160000155602082015181600101556040820151816002015560608201518160030155905050848260000154827f4372a18a6361018711de2de6eaa5dcacd3fc225967097f362020935080f41b09878c8760010154604051610c0b939291906147ee565b60405180910390a4809250505095945050505050565b606060008054610c3090614854565b80601f0160208091040260200160405190810160405280929190818152602001828054610c5c90614854565b8015610ca95780601f10610c7e57610100808354040283529160200191610ca9565b820191906000526020600020905b815481529060010190602001808311610c8c57829003601f168201915b5050505050905090565b6000610cbe82612a1f565b50610cc882612aa7565b9050919050565b610ce18282610cdc612ae4565b612aec565b5050565b600073ffffffffffffffffffffffffffffffffffffffff168273ffffffffffffffffffffffffffffffffffffffff1603610d575760006040517f64a0ae92000000000000000000000000000000000000000000000000000000008152600401610d4e9190613e5a565b60405180910390fd5b6000610d6b8383610d66612ae4565b612afe565b90508373ffffffffffffffffffffffffffffffffffffffff168173ffffffffffffffffffffffffffffffffffffffff1614610de1578382826040517f64283d7b000000000000000000000000000000000000000000000000000000008152600401610dd893929190614885565b60405180910390fd5b50505050565b6000610df161291e565b6009600087815260200190815260200160002060000160009054906101000a900460ff16610e54576040517f08c379a0000000000000000000000000000000000000000000000000000000008152600401610e4b90614908565b60405180910390fd5b60126000815480929190610e67906147a6565b9190505590506040518060a0016040528087815260200184815260200183815260200186868080601f016020809104026020016040519081016040528093929190818152602001838380828437600081840152601f19601f82011690508083019250505050505050815260200160011515815250600a60008381526020019081526020016000206000820151816000015560208201518160010155604082015181600201556060820151816003019081610f219190614ad4565b5060808201518160040160006101000a81548160ff02191690831515021790555090505085817fabf330a08fa3934846cf859dcbe8bccd2c598df64758145917e967b88e80b11b87878787604051610f7c9493929190614bd3565b60405180910390a395945050505050565b6000600d54905090565b600080600060606000600a60008781526020019081526020016000209050806002015481600101548260040160009054906101000a900460ff1683600301808054610fe190614854565b80601f016020809104026020016040519081016040528092919081815260200182805461100d90614854565b801561105a5780601f1061102f5761010080835404028352916020019161105a565b820191906000526020600020905b81548152906001019060200180831161103d57829003601f168201915b505050505090509450945094509450509193509193565b600060608383905086869050146110bd576040517f08c379a00000000000000000000000000000000000000000000000000000000081526004016110b490614c5f565b60405180910390fd5b60005b868690508110156111cd576000600a60008989858181106110e4576110e3614c7f565b5b90506020020135815260200190815260200160002090508060040160009054906101000a900460ff166111545760006040518060400160405280601a81526020017f5469636b6574207479706520646f6573206e6f7420657869737400000000000081525093509350505061120b565b85858381811061116757611166614c7f565b5b90506020020135816002015410156111bf57600088888481811061118e5761118d614c7f565b5b905060200201356040516020016111a59190614d4c565b60405160208183030381529060405293509350505061120b565b5080806001019150506110c0565b5060016040518060400160405280600981526020017f417661696c61626c650000000000000000000000000000000000000000000000815250915091505b94509492505050565b601e81565b61123483838360405180602001604052806000815250612199565b505050565b61124161291e565b6009600085815260200190815260200160002060000160009054906101000a900460ff16156112a5576040517f08c379a000000000000000000000000000000000000000000000000000000000815260040161129c90614dbe565b60405180910390fd5b600073ffffffffffffffffffffffffffffffffffffffff168173ffffffffffffffffffffffffffffffffffffffff1603611314576040517f08c379a000000000000000000000000000000000000000000000000000000000815260040161130b90614e2a565b60405180910390fd5b6040518060a0016040528060011515815260200184848080601f016020809104026020016040519081016040528093929190818152602001838380828437600081840152601f19601f8201169050808301925050505050505081526020018273ffffffffffffffffffffffffffffffffffffffff16815260200160008152602001600015158152506009600086815260200190815260200160002060008201518160000160006101000a81548160ff02191690831515021790555060208201518160010190816113e49190614ad4565b5060408201518160020160006101000a81548173ffffffffffffffffffffffffffffffffffffffff021916908373ffffffffffffffffffffffffffffffffffffffff1602179055506060820151816003015560808201518160040160006101000a81548160ff0219169083151502179055509050508073ffffffffffffffffffffffffffffffffffffffff16847f40fb05b814a900c99fa0a76d919dfdeaf3389540e4ca70f97ba40ca9a38f379785856040516114a2929190614e4a565b60405180910390a350505050565b6000600c54905090565b6000806000806000600960008781526020019081526020016000209050600e600087815260200190815260200160002054600f6000888152602001908152602001600020548260040160009054906101000a900460ff168360020160009054906101000a900473ffffffffffffffffffffffffffffffffffffffff169450945094509450509193509193565b600b6020528060005260406000206000915090508060000154908060010154908060020154908060030154905084565b6060600060016012546115899190614e6e565b67ffffffffffffffff8111156115a2576115a16144c3565b5b6040519080825280602002602001820160405280156115d05781602001602082028036833780820191505090505b509050600080600190505b60125481101561166b5784600a60008381526020019081526020016000206000015414801561162a5750600a600082815260200190815260200160002060040160009054906101000a900460ff165b1561165e578083838151811061164357611642614c7f565b5b602002602001018181525050818061165a906147a6565b9250505b80806001019150506115db565b5060008167ffffffffffffffff811115611688576116876144c3565b5b6040519080825280602002602001820160405280156116b65781602001602082028036833780820191505090505b50905060005b8281101561170b578381815181106116d7576116d6614c7f565b5b60200260200101518282815181106116f2576116f1614c7f565b5b60200260200101818152505080806001019150506116bc565b50809350505050919050565b600061172282612a1f565b9050919050565b60125481565b61173761291e565b61173f612d18565b600d54811115611784576040517f08c379a000000000000000000000000000000000000000000000000000000000815260040161177b90614eee565b60405180910390fd5b600081116117c7576040517f08c379a00000000000000000000000000000000000000000000000000000000081526004016117be90614f5a565b60405180910390fd5b80600d60008282546117d99190614e6e565b9250508190555060006117ea611a06565b73ffffffffffffffffffffffffffffffffffffffff168260405161180d90614fab565b60006040518083038185875af1925050503d806000811461184a576040519150601f19603f3d011682016040523d82523d6000602084013e61184f565b606091505b5050905080611893576040517f08c379a000000000000000000000000000000000000000000000000000000000815260040161188a9061500c565b60405180910390fd5b61189b611a06565b73ffffffffffffffffffffffffffffffffffffffff167ffc7ad544ff6a06d6499925723d25b6fe70457a42939995b1d3d6f560fe336333836040516118e09190613d51565b60405180910390a2506118f1612d5e565b50565b600047905090565b600e6020528060005260406000206000915090505481565b60008073ffffffffffffffffffffffffffffffffffffffff168273ffffffffffffffffffffffffffffffffffffffff16036119875760006040517f89c62b6400000000000000000000000000000000000000000000000000000000815260040161197e9190613e5a565b60405180910390fd5b600360008373ffffffffffffffffffffffffffffffffffffffff1673ffffffffffffffffffffffffffffffffffffffff168152602001908152602001600020549050919050565b6119d661291e565b6119e06000612d68565b565b60115481565b600f6020528060005260406000206000915090505481565b600c5481565b6000600760009054906101000a900473ffffffffffffffffffffffffffffffffffffffff16905090565b606060018054611a3f90614854565b80601f0160208091040260200160405190810160405280929190818152602001828054611a6b90614854565b8015611ab85780601f10611a8d57610100808354040283529160200191611ab8565b820191906000526020600020905b815481529060010190602001808311611a9b57829003601f168201915b5050505050905090565b60096020528060005260406000206000915090508060000160009054906101000a900460ff1690806001018054611af890614854565b80601f0160208091040260200160405190810160405280929190818152602001828054611b2490614854565b8015611b715780601f10611b4657610100808354040283529160200191611b71565b820191906000526020600020905b815481529060010190602001808311611b5457829003601f168201915b5050505050908060020160009054906101000a900473ffffffffffffffffffffffffffffffffffffffff16908060030154908060040160009054906101000a900460ff16905085565b611bcc611bc5612ae4565b8383612e2e565b5050565b611bd8612d18565b60008686905090508484905081148015611bf457508282905081145b611c33576040517f08c379a0000000000000000000000000000000000000000000000000000000008152600401611c2a90614c5f565b60405180910390fd5b60008111611c76576040517f08c379a0000000000000000000000000000000000000000000000000000000008152600401611c6d90615078565b60405180910390fd5b60008060005b83811015611dc5576000600a60008a8a85818110611c9d57611c9c614c7f565b5b90506020020135815260200190815260200160002090508060040160009054906101000a900460ff16611d05576040517f08c379a0000000000000000000000000000000000000000000000000000000008152600401611cfc90614757565b60405180910390fd5b6000816002015411611d4c576040517f08c379a0000000000000000000000000000000000000000000000000000000008152600401611d43906150e4565b60405180910390fd5b806001015484611d5c9190615104565b935060008203611d725780600001549250611db9565b82816000015414611db8576040517f08c379a0000000000000000000000000000000000000000000000000000000008152600401611daf906151aa565b60405180910390fd5b5b50806001019050611c7c565b50813414611e08576040517f08c379a0000000000000000000000000000000000000000000000000000000008152600401611dff90615216565b60405180910390fd5b6009600082815260200190815260200160002060000160009054906101000a900460ff16611e6b576040517f08c379a0000000000000000000000000000000000000000000000000000000008152600401611e6290614908565b60405180910390fd5b60006064600c5484611e7d9190615236565b611e8791906152a7565b905060008184611e979190614e6e565b905080600e60008581526020019081526020016000206000828254611ebc9190615104565b9250508190555081600f60008581526020019081526020016000206000828254611ee69190615104565b9250508190555081600d6000828254611eff9190615104565b9250508190555080600960008581526020019081526020016000206003016000828254611f2c9190615104565b9250508190555060005b85811015612183576000600a60008c8c85818110611f5757611f56614c7f565b5b90506020020135815260200190815260200160002090506000816002015411611fb5576040517f08c379a0000000000000000000000000000000000000000000000000000000008152600401611fac90615324565b60405180910390fd5b806002016000815480929190611fca90615344565b9190505550600060116000815480929190611fe4906147a6565b919050559050611ff433826129a5565b612065818f8f8681811061200b5761200a614c7f565b5b905060200281019061201d919061537c565b8080601f016020809104026020016040519081016040528093929190818152602001838380828437600081840152601f19601f820116905080830192505050505050506129c3565b6040518060800160405280836000015481526020018d8d8681811061208d5761208c614c7f565b5b9050602002013581526020018b8b868181106120ac576120ab614c7f565b5b9050602002013581526020018360010154815250600b6000838152602001908152602001600020600082015181600001556020820151816001015560408201518160020155606082015181600301559050508b8b8481811061211157612110614c7f565b5b905060200201358260000154827f4372a18a6361018711de2de6eaa5dcacd3fc225967097f362020935080f41b098d8d8881811061215257612151614c7f565b5b9050602002013533876001015460405161216e939291906147ee565b60405180910390a45050806001019050611f36565b505050505050612191612d5e565b505050505050565b6121a4848484610ce5565b6121b86121af612ae4565b85858585612f9d565b50505050565b6060600073ffffffffffffffffffffffffffffffffffffffff166121e18361314e565b73ffffffffffffffffffffffffffffffffffffffff1603612237576040517f08c379a000000000000000000000000000000000000000000000000000000000815260040161222e90615451565b60405180910390fd5b6122408261318b565b9050919050565b61224f61291e565b601e811115612293576040517f08c379a000000000000000000000000000000000000000000000000000000000815260040161228a906154bd565b60405180910390fd5b6000600c54905081600c819055507fc98a8b10b63c929f7799380bb4a0c444c713ebf74d8732f944c915034121aad181836040516122d29291906154dd565b60405180910390a15050565b600d5481565b6122ec61291e565b600047905060008111612334576040517f08c379a000000000000000000000000000000000000000000000000000000000815260040161232b90615552565b60405180910390fd5b600061233e611a06565b73ffffffffffffffffffffffffffffffffffffffff168260405161236190614fab565b60006040518083038185875af1925050503d806000811461239e576040519150601f19603f3d011682016040523d82523d6000602084013e6123a3565b606091505b50509050806123e7576040517f08c379a00000000000000000000000000000000000000000000000000000000081526004016123de906155be565b60405180910390fd5b5050565b6123f361291e565b6123fb612d18565b6009600082815260200190815260200160002060000160009054906101000a900460ff1661245e576040517f08c379a000000000000000000000000000000000000000000000000000000000815260040161245590614908565b60405180910390fd5b6009600082815260200190815260200160002060040160009054906101000a900460ff16156124c2576040517f08c379a00000000000000000000000000000000000000000000000000000000081526004016124b99061562a565b60405180910390fd5b6000600e60008381526020019081526020016000205411612518576040517f08c379a000000000000000000000000000000000000000000000000000000000815260040161250f90615696565b60405180910390fd5b60006009600083815260200190815260200160002060020160009054906101000a900473ffffffffffffffffffffffffffffffffffffffff1690506000600e600084815260200190815260200160002054905060016009600085815260200190815260200160002060040160006101000a81548160ff02191690831515021790555060008273ffffffffffffffffffffffffffffffffffffffff16826040516125c090614fab565b60006040518083038185875af1925050503d80600081146125fd576040519150601f19603f3d011682016040523d82523d6000602084013e612602565b606091505b5050905080612646576040517f08c379a000000000000000000000000000000000000000000000000000000000815260040161263d90615702565b60405180910390fd5b8273ffffffffffffffffffffffffffffffffffffffff16847f97dda060e00000f7dcda731edf2cae9e9578cefe056af8910884674cd965e6e984600f6000898152602001908152602001600020546040516126a29291906154dd565b60405180910390a35050506126b5612d5e565b50565b6000600560008473ffffffffffffffffffffffffffffffffffffffff1673ffffffffffffffffffffffffffffffffffffffff16815260200190815260200160002060008373ffffffffffffffffffffffffffffffffffffffff1673ffffffffffffffffffffffffffffffffffffffff16815260200190815260200160002060009054906101000a900460ff16905092915050565b60106020528060005260406000206000915054906101000a900460ff1681565b61277461291e565b600073ffffffffffffffffffffffffffffffffffffffff168173ffffffffffffffffffffffffffffffffffffffff16036127e65760006040517f1e4fbdf70000000000000000000000000000000000000000000000000000000081526004016127dd9190613e5a565b60405180910390fd5b6127ef81612d68565b50565b600a60205280600052604060002060009150905080600001549080600101549080600201549080600301805461282790614854565b80601f016020809104026020016040519081016040528092919081815260200182805461285390614854565b80156128a05780601f10612875576101008083540402835291602001916128a0565b820191906000526020600020905b81548152906001019060200180831161288357829003601f168201915b5050505050908060040160009054906101000a900460ff16905085565b6000634906490660e01b7bffffffffffffffffffffffffffffffffffffffffffffffffffffffff1916827bffffffffffffffffffffffffffffffffffffffffffffffffffffffff1916148061291757506129168261329e565b5b9050919050565b612926612ae4565b73ffffffffffffffffffffffffffffffffffffffff16612944611a06565b73ffffffffffffffffffffffffffffffffffffffff16146129a357612967612ae4565b6040517f118cdaa700000000000000000000000000000000000000000000000000000000815260040161299a9190613e5a565b60405180910390fd5b565b6129bf828260405180602001604052806000815250613380565b5050565b806006600084815260200190815260200160002090816129e39190614ad4565b507ff8e1a15aba9398e019f0b49df1a4fde98ee17ae345cb5f6b5e2c27f5033e8ce782604051612a139190613d51565b60405180910390a15050565b600080612a2b8361314e565b9050600073ffffffffffffffffffffffffffffffffffffffff168173ffffffffffffffffffffffffffffffffffffffff1603612a9e57826040517f7e273289000000000000000000000000000000000000000000000000000000008152600401612a959190613d51565b60405180910390fd5b80915050919050565b60006004600083815260200190815260200160002060009054906101000a900473ffffffffffffffffffffffffffffffffffffffff169050919050565b600033905090565b612af983838360016133a4565b505050565b600080612b0a8461314e565b9050600073ffffffffffffffffffffffffffffffffffffffff168373ffffffffffffffffffffffffffffffffffffffff1614612b4c57612b4b818486613569565b5b600073ffffffffffffffffffffffffffffffffffffffff168173ffffffffffffffffffffffffffffffffffffffff1614612bdd57612b8e6000856000806133a4565b6001600360008373ffffffffffffffffffffffffffffffffffffffff1673ffffffffffffffffffffffffffffffffffffffff168152602001908152602001600020600082825403925050819055505b600073ffffffffffffffffffffffffffffffffffffffff168573ffffffffffffffffffffffffffffffffffffffff1614612c60576001600360008773ffffffffffffffffffffffffffffffffffffffff1673ffffffffffffffffffffffffffffffffffffffff168152602001908152602001600020600082825401925050819055505b846002600086815260200190815260200160002060006101000a81548173ffffffffffffffffffffffffffffffffffffffff021916908373ffffffffffffffffffffffffffffffffffffffff160217905550838573ffffffffffffffffffffffffffffffffffffffff168273ffffffffffffffffffffffffffffffffffffffff167fddf252ad1be2c89b69c2b068fc378daa952ba7f163c4a11628f55a4df523b3ef60405160405180910390a4809150509392505050565b600260085403612d54576040517f3ee5aeb500000000000000000000000000000000000000000000000000000000815260040160405180910390fd5b6002600881905550565b6001600881905550565b6000600760009054906101000a900473ffffffffffffffffffffffffffffffffffffffff16905081600760006101000a81548173ffffffffffffffffffffffffffffffffffffffff021916908373ffffffffffffffffffffffffffffffffffffffff1602179055508173ffffffffffffffffffffffffffffffffffffffff168173ffffffffffffffffffffffffffffffffffffffff167f8be0079c531659141344cd1fd0a4f28419497f9722a3daafe3b4186f6b6457e060405160405180910390a35050565b600073ffffffffffffffffffffffffffffffffffffffff168273ffffffffffffffffffffffffffffffffffffffff1603612e9f57816040517f5b08ba18000000000000000000000000000000000000000000000000000000008152600401612e969190613e5a565b60405180910390fd5b80600560008573ffffffffffffffffffffffffffffffffffffffff1673ffffffffffffffffffffffffffffffffffffffff16815260200190815260200160002060008473ffffffffffffffffffffffffffffffffffffffff1673ffffffffffffffffffffffffffffffffffffffff16815260200190815260200160002060006101000a81548160ff0219169083151502179055508173ffffffffffffffffffffffffffffffffffffffff168373ffffffffffffffffffffffffffffffffffffffff167f17307eab39ab6107e8899845ad3d59bd9653f200f220920489ca2b5937696c3183604051612f909190613ba6565b60405180910390a3505050565b60008373ffffffffffffffffffffffffffffffffffffffff163b1115613147578273ffffffffffffffffffffffffffffffffffffffff1663150b7a02868685856040518563ffffffff1660e01b8152600401612ffc9493929190615777565b6020604051808303816000875af192505050801561303857506040513d601f19601f8201168201806040525081019061303591906157d8565b60015b6130bc573d8060008114613068576040519150601f19603f3d011682016040523d82523d6000602084013e61306d565b606091505b5060008151036130b457836040517f64a0ae920000000000000000000000000000000000000000000000000000000081526004016130ab9190613e5a565b60405180910390fd5b805181602001fd5b63150b7a0260e01b7bffffffffffffffffffffffffffffffffffffffffffffffffffffffff1916817bffffffffffffffffffffffffffffffffffffffffffffffffffffffff19161461314557836040517f64a0ae9200000000000000000000000000000000000000000000000000000000815260040161313c9190613e5a565b60405180910390fd5b505b5050505050565b60006002600083815260200190815260200160002060009054906101000a900473ffffffffffffffffffffffffffffffffffffffff169050919050565b606061319682612a1f565b5060006006600084815260200190815260200160002080546131b790614854565b80601f01602080910402602001604051908101604052809291908181526020018280546131e390614854565b80156132305780601f1061320557610100808354040283529160200191613230565b820191906000526020600020905b81548152906001019060200180831161321357829003601f168201915b50505050509050600061324161362d565b90506000815103613256578192505050613299565b60008251111561328b578082604051602001613273929190615836565b60405160208183030381529060405292505050613299565b61329484613644565b925050505b919050565b60007f80ac58cd000000000000000000000000000000000000000000000000000000007bffffffffffffffffffffffffffffffffffffffffffffffffffffffff1916827bffffffffffffffffffffffffffffffffffffffffffffffffffffffff1916148061336957507f5b5e139f000000000000000000000000000000000000000000000000000000007bffffffffffffffffffffffffffffffffffffffffffffffffffffffff1916827bffffffffffffffffffffffffffffffffffffffffffffffffffffffff1916145b806133795750613378826136ad565b5b9050919050565b61338a8383613717565b61339f613395612ae4565b6000858585612f9d565b505050565b80806133dd5750600073ffffffffffffffffffffffffffffffffffffffff168273ffffffffffffffffffffffffffffffffffffffff1614155b156135115760006133ed84612a1f565b9050600073ffffffffffffffffffffffffffffffffffffffff168373ffffffffffffffffffffffffffffffffffffffff161415801561345857508273ffffffffffffffffffffffffffffffffffffffff168173ffffffffffffffffffffffffffffffffffffffff1614155b801561346b575061346981846126b8565b155b156134ad57826040517fa9fbf51f0000000000000000000000000000000000000000000000000000000081526004016134a49190613e5a565b60405180910390fd5b811561350f57838573ffffffffffffffffffffffffffffffffffffffff168273ffffffffffffffffffffffffffffffffffffffff167f8c5be1e5ebec7d5bd14f71427d1e84f3dd0314c0f7b2291e5b200ac8c7c3b92560405160405180910390a45b505b836004600085815260200190815260200160002060006101000a81548173ffffffffffffffffffffffffffffffffffffffff021916908373ffffffffffffffffffffffffffffffffffffffff16021790555050505050565b613574838383613810565b61362857600073ffffffffffffffffffffffffffffffffffffffff168373ffffffffffffffffffffffffffffffffffffffff16036135e957806040517f7e2732890000000000000000000000000000000000000000000000000000000081526004016135e09190613d51565b60405180910390fd5b81816040517f177e802f00000000000000000000000000000000000000000000000000000000815260040161361f92919061585a565b60405180910390fd5b505050565b606060405180602001604052806000815250905090565b606061364f82612a1f565b50600061365a61362d565b9050600081511161367a57604051806020016040528060008152506136a5565b80613684846138d1565b604051602001613695929190615836565b6040516020818303038152906040525b915050919050565b60007f01ffc9a7000000000000000000000000000000000000000000000000000000007bffffffffffffffffffffffffffffffffffffffffffffffffffffffff1916827bffffffffffffffffffffffffffffffffffffffffffffffffffffffff1916149050919050565b600073ffffffffffffffffffffffffffffffffffffffff168273ffffffffffffffffffffffffffffffffffffffff16036137895760006040517f64a0ae920000000000000000000000000000000000000000000000000000000081526004016137809190613e5a565b60405180910390fd5b600061379783836000612afe565b9050600073ffffffffffffffffffffffffffffffffffffffff168173ffffffffffffffffffffffffffffffffffffffff161461380b5760006040517f73c6ac6e0000000000000000000000000000000000000000000000000000000081526004016138029190613e5a565b60405180910390fd5b505050565b60008073ffffffffffffffffffffffffffffffffffffffff168373ffffffffffffffffffffffffffffffffffffffff16141580156138c857508273ffffffffffffffffffffffffffffffffffffffff168473ffffffffffffffffffffffffffffffffffffffff161480613889575061388884846126b8565b5b806138c757508273ffffffffffffffffffffffffffffffffffffffff166138af83612aa7565b73ffffffffffffffffffffffffffffffffffffffff16145b5b90509392505050565b6060600060016138e08461399f565b01905060008167ffffffffffffffff8111156138ff576138fe6144c3565b5b6040519080825280601f01601f1916602001820160405280156139315781602001600182028036833780820191505090505b509050600082602001820190505b600115613994578080600190039150507f3031323334353637383961626364656600000000000000000000000000000000600a86061a8153600a858161398857613987615278565b5b0494506000850361393f575b819350505050919050565b600080600090507a184f03e93ff9f4daa797ed6e38ed64bf6a1f01000000000000000083106139fd577a184f03e93ff9f4daa797ed6e38ed64bf6a1f01000000000000000083816139f3576139f2615278565b5b0492506040810190505b6d04ee2d6d415b85acef81000000008310613a3a576d04ee2d6d415b85acef81000000008381613a3057613a2f615278565b5b0492506020810190505b662386f26fc100008310613a6957662386f26fc100008381613a5f57613a5e615278565b5b0492506010810190505b6305f5e1008310613a92576305f5e1008381613a8857613a87615278565b5b0492506008810190505b6127108310613ab7576127108381613aad57613aac615278565b5b0492506004810190505b60648310613ada5760648381613ad057613acf615278565b5b0492506002810190505b600a8310613ae9576001810190505b80915050919050565b6000604051905090565b600080fd5b600080fd5b60007fffffffff0000000000000000000000000000000000000000000000000000000082169050919050565b613b3b81613b06565b8114613b4657600080fd5b50565b600081359050613b5881613b32565b92915050565b600060208284031215613b7457613b73613afc565b5b6000613b8284828501613b49565b91505092915050565b60008115159050919050565b613ba081613b8b565b82525050565b6000602082019050613bbb6000830184613b97565b92915050565b600073ffffffffffffffffffffffffffffffffffffffff82169050919050565b6000613bec82613bc1565b9050919050565b613bfc81613be1565b8114613c0757600080fd5b50565b600081359050613c1981613bf3565b92915050565b600080fd5b600080fd5b600080fd5b60008083601f840112613c4457613c43613c1f565b5b8235905067ffffffffffffffff811115613c6157613c60613c24565b5b602083019150836001820283011115613c7d57613c7c613c29565b5b9250929050565b6000819050919050565b613c9781613c84565b8114613ca257600080fd5b50565b600081359050613cb481613c8e565b92915050565b600080600080600060808688031215613cd657613cd5613afc565b5b6000613ce488828901613c0a565b955050602086013567ffffffffffffffff811115613d0557613d04613b01565b5b613d1188828901613c2e565b94509450506040613d2488828901613ca5565b9250506060613d3588828901613ca5565b9150509295509295909350565b613d4b81613c84565b82525050565b6000602082019050613d666000830184613d42565b92915050565b600081519050919050565b600082825260208201905092915050565b60005b83811015613da6578082015181840152602081019050613d8b565b60008484015250505050565b6000601f19601f8301169050919050565b6000613dce82613d6c565b613dd88185613d77565b9350613de8818560208601613d88565b613df181613db2565b840191505092915050565b60006020820190508181036000830152613e168184613dc3565b905092915050565b600060208284031215613e3457613e33613afc565b5b6000613e4284828501613ca5565b91505092915050565b613e5481613be1565b82525050565b6000602082019050613e6f6000830184613e4b565b92915050565b60008060408385031215613e8c57613e8b613afc565b5b6000613e9a85828601613c0a565b9250506020613eab85828601613ca5565b9150509250929050565b600080600060608486031215613ece57613ecd613afc565b5b6000613edc86828701613c0a565b9350506020613eed86828701613c0a565b9250506040613efe86828701613ca5565b9150509250925092565b600080600080600060808688031215613f2457613f23613afc565b5b6000613f3288828901613ca5565b955050602086013567ffffffffffffffff811115613f5357613f52613b01565b5b613f5f88828901613c2e565b94509450506040613f7288828901613ca5565b9250506060613f8388828901613ca5565b9150509295509295909350565b6000608082019050613fa56000830187613d42565b613fb26020830186613d42565b613fbf6040830185613b97565b8181036060830152613fd18184613dc3565b905095945050505050565b60008083601f840112613ff257613ff1613c1f565b5b8235905067ffffffffffffffff81111561400f5761400e613c24565b5b60208301915083602082028301111561402b5761402a613c29565b5b9250929050565b6000806000806040858703121561404c5761404b613afc565b5b600085013567ffffffffffffffff81111561406a57614069613b01565b5b61407687828801613fdc565b9450945050602085013567ffffffffffffffff81111561409957614098613b01565b5b6140a587828801613fdc565b925092505092959194509250565b60006040820190506140c86000830185613b97565b81810360208301526140da8184613dc3565b90509392505050565b600080600080606085870312156140fd576140fc613afc565b5b600061410b87828801613ca5565b945050602085013567ffffffffffffffff81111561412c5761412b613b01565b5b61413887828801613c2e565b9350935050604061414b87828801613c0a565b91505092959194509250565b600060808201905061416c6000830187613d42565b6141796020830186613d42565b6141866040830185613b97565b6141936060830184613e4b565b95945050505050565b60006080820190506141b16000830187613d42565b6141be6020830186613d42565b6141cb6040830185613d42565b6141d86060830184613d42565b95945050505050565b600081519050919050565b600082825260208201905092915050565b6000819050602082019050919050565b61421681613c84565b82525050565b6000614228838361420d565b60208301905092915050565b6000602082019050919050565b600061424c826141e1565b61425681856141ec565b9350614261836141fd565b8060005b83811015614292578151614279888261421c565b975061428483614234565b925050600181019050614265565b5085935050505092915050565b600060208201905081810360008301526142b98184614241565b905092915050565b6000602082840312156142d7576142d6613afc565b5b60006142e584828501613c0a565b91505092915050565b600060a0820190506143036000830188613b97565b81810360208301526143158187613dc3565b90506143246040830186613e4b565b6143316060830185613d42565b61433e6080830184613b97565b9695505050505050565b61435181613b8b565b811461435c57600080fd5b50565b60008135905061436e81614348565b92915050565b6000806040838503121561438b5761438a613afc565b5b600061439985828601613c0a565b92505060206143aa8582860161435f565b9150509250929050565b60008083601f8401126143ca576143c9613c1f565b5b8235905067ffffffffffffffff8111156143e7576143e6613c24565b5b60208301915083602082028301111561440357614402613c29565b5b9250929050565b6000806000806000806060878903121561442757614426613afc565b5b600087013567ffffffffffffffff81111561444557614444613b01565b5b61445189828a016143b4565b9650965050602087013567ffffffffffffffff81111561447457614473613b01565b5b61448089828a01613fdc565b9450945050604087013567ffffffffffffffff8111156144a3576144a2613b01565b5b6144af89828a01613fdc565b92509250509295509295509295565b600080fd5b7f4e487b7100000000000000000000000000000000000000000000000000000000600052604160045260246000fd5b6144fb82613db2565b810181811067ffffffffffffffff8211171561451a576145196144c3565b5b80604052505050565b600061452d613af2565b905061453982826144f2565b919050565b600067ffffffffffffffff821115614559576145586144c3565b5b61456282613db2565b9050602081019050919050565b82818337600083830152505050565b600061459161458c8461453e565b614523565b9050828152602081018484840111156145ad576145ac6144be565b5b6145b884828561456f565b509392505050565b600082601f8301126145d5576145d4613c1f565b5b81356145e584826020860161457e565b91505092915050565b6000806000806080858703121561460857614607613afc565b5b600061461687828801613c0a565b945050602061462787828801613c0a565b935050604061463887828801613ca5565b925050606085013567ffffffffffffffff81111561465957614658613b01565b5b614665878288016145c0565b91505092959194509250565b6000806040838503121561468857614687613afc565b5b600061469685828601613c0a565b92505060206146a785828601613c0a565b9150509250929050565b600060a0820190506146c66000830188613d42565b6146d36020830187613d42565b6146e06040830186613d42565b81810360608301526146f28185613dc3565b90506147016080830184613b97565b9695505050505050565b7f5469636b657454797065206e6f74206578697374730000000000000000000000600082015250565b6000614741601583613d77565b915061474c8261470b565b602082019050919050565b6000602082019050818103600083015261477081614734565b9050919050565b7f4e487b7100000000000000000000000000000000000000000000000000000000600052601160045260246000fd5b60006147b182613c84565b91507fffffffffffffffffffffffffffffffffffffffffffffffffffffffffffffffff82036147e3576147e2614777565b5b600182019050919050565b60006060820190506148036000830186613d42565b6148106020830185613e4b565b61481d6040830184613d42565b949350505050565b7f4e487b7100000000000000000000000000000000000000000000000000000000600052602260045260246000fd5b6000600282049050600182168061486c57607f821691505b60208210810361487f5761487e614825565b5b50919050565b600060608201905061489a6000830186613e4b565b6148a76020830185613d42565b6148b46040830184613e4b565b949350505050565b7f4576656e74206e6f742065786973747300000000000000000000000000000000600082015250565b60006148f2601083613d77565b91506148fd826148bc565b602082019050919050565b60006020820190508181036000830152614921816148e5565b9050919050565b60008190508160005260206000209050919050565b60006020601f8301049050919050565b600082821b905092915050565b60006008830261498a7fffffffffffffffffffffffffffffffffffffffffffffffffffffffffffffffff8261494d565b614994868361494d565b95508019841693508086168417925050509392505050565b6000819050919050565b60006149d16149cc6149c784613c84565b6149ac565b613c84565b9050919050565b6000819050919050565b6149eb836149b6565b6149ff6149f7826149d8565b84845461495a565b825550505050565b600090565b614a14614a07565b614a1f8184846149e2565b505050565b5b81811015614a4357614a38600082614a0c565b600181019050614a25565b5050565b601f821115614a8857614a5981614928565b614a628461493d565b81016020851015614a71578190505b614a85614a7d8561493d565b830182614a24565b50505b505050565b600082821c905092915050565b6000614aab60001984600802614a8d565b1980831691505092915050565b6000614ac48383614a9a565b9150826002028217905092915050565b614add82613d6c565b67ffffffffffffffff811115614af657614af56144c3565b5b614b008254614854565b614b0b828285614a47565b600060209050601f831160018114614b3e5760008415614b2c578287015190505b614b368582614ab8565b865550614b9e565b601f198416614b4c86614928565b60005b82811015614b7457848901518255600182019150602085019450602081019050614b4f565b86831015614b915784890151614b8d601f891682614a9a565b8355505b6001600288020188555050505b505050505050565b6000614bb28385613d77565b9350614bbf83858461456f565b614bc883613db2565b840190509392505050565b60006060820190508181036000830152614bee818688614ba6565b9050614bfd6020830185613d42565b614c0a6040830184613d42565b95945050505050565b7f4172726179206d69736d61746368000000000000000000000000000000000000600082015250565b6000614c49600e83613d77565b9150614c5482614c13565b602082019050919050565b60006020820190508181036000830152614c7881614c3c565b9050919050565b7f4e487b7100000000000000000000000000000000000000000000000000000000600052603260045260246000fd5b600081905092915050565b7f496e73756666696369656e74207175616e7469747920666f72207469636b657460008201527f2074797065200000000000000000000000000000000000000000000000000000602082015250565b6000614d15602683614cae565b9150614d2082614cb9565b602682019050919050565b6000819050919050565b614d46614d4182613c84565b614d2b565b82525050565b6000614d5782614d08565b9150614d638284614d35565b60208201915081905092915050565b7f4576656e74206578697374730000000000000000000000000000000000000000600082015250565b6000614da8600c83613d77565b9150614db382614d72565b602082019050919050565b60006020820190508181036000830152614dd781614d9b565b9050919050565b7f496e76616c6964206f7267616e697a6572206164647265737300000000000000600082015250565b6000614e14601983613d77565b9150614e1f82614dde565b602082019050919050565b60006020820190508181036000830152614e4381614e07565b9050919050565b60006020820190508181036000830152614e65818486614ba6565b90509392505050565b6000614e7982613c84565b9150614e8483613c84565b9250828203905081811115614e9c57614e9b614777565b5b92915050565b7f496e73756666696369656e7420706c6174666f726d2066656573000000000000600082015250565b6000614ed8601a83613d77565b9150614ee382614ea2565b602082019050919050565b60006020820190508181036000830152614f0781614ecb565b9050919050565b7f416d6f756e74206d7573742062652067726561746572207468616e2030000000600082015250565b6000614f44601d83613d77565b9150614f4f82614f0e565b602082019050919050565b60006020820190508181036000830152614f7381614f37565b9050919050565b600081905092915050565b50565b6000614f95600083614f7a565b9150614fa082614f85565b600082019050919050565b6000614fb682614f88565b9150819050919050565b7f506c6174666f726d20666565207769746864726177616c206661696c65640000600082015250565b6000614ff6601e83613d77565b915061500182614fc0565b602082019050919050565b6000602082019050818103600083015261502581614fe9565b9050919050565b7f456d707479000000000000000000000000000000000000000000000000000000600082015250565b6000615062600583613d77565b915061506d8261502c565b602082019050919050565b6000602082019050818103600083015261509181615055565b9050919050565b7f536f6c64206f7574000000000000000000000000000000000000000000000000600082015250565b60006150ce600883613d77565b91506150d982615098565b602082019050919050565b600060208201905081810360008301526150fd816150c1565b9050919050565b600061510f82613c84565b915061511a83613c84565b925082820190508082111561513257615131614777565b5b92915050565b7f416c6c207469636b657473206d7573742062652066726f6d2073616d6520657660008201527f656e740000000000000000000000000000000000000000000000000000000000602082015250565b6000615194602383613d77565b915061519f82615138565b604082019050919050565b600060208201905081810360008301526151c381615187565b9050919050565b7f496e636f7272656374207061796d656e7420616d6f756e740000000000000000600082015250565b6000615200601883613d77565b915061520b826151ca565b602082019050919050565b6000602082019050818103600083015261522f816151f3565b9050919050565b600061524182613c84565b915061524c83613c84565b925082820261525a81613c84565b9150828204841483151761527157615270614777565b5b5092915050565b7f4e487b7100000000000000000000000000000000000000000000000000000000600052601260045260246000fd5b60006152b282613c84565b91506152bd83613c84565b9250826152cd576152cc615278565b5b828204905092915050565b7f536f6c64206f757420647572696e67207472616e73616374696f6e0000000000600082015250565b600061530e601b83613d77565b9150615319826152d8565b602082019050919050565b6000602082019050818103600083015261533d81615301565b9050919050565b600061534f82613c84565b91506000820361536257615361614777565b5b600182039050919050565b600080fd5b600080fd5b600080fd5b600080833560016020038436030381126153995761539861536d565b5b80840192508235915067ffffffffffffffff8211156153bb576153ba615372565b5b6020830192506001820236038313156153d7576153d6615377565b5b509250929050565b7f4552433732313a2055524920717565727920666f72206e6f6e6578697374656e60008201527f7420746f6b656e00000000000000000000000000000000000000000000000000602082015250565b600061543b602783613d77565b9150615446826153df565b604082019050919050565b6000602082019050818103600083015261546a8161542e565b9050919050565b7f4665652065786365656473206d6178696d756d20616c6c6f7765640000000000600082015250565b60006154a7601b83613d77565b91506154b282615471565b602082019050919050565b600060208201905081810360008301526154d68161549a565b9050919050565b60006040820190506154f26000830185613d42565b6154ff6020830184613d42565b9392505050565b7f4e6f2066756e647320746f207769746864726177000000000000000000000000600082015250565b600061553c601483613d77565b915061554782615506565b602082019050919050565b6000602082019050818103600083015261556b8161552f565b9050919050565b7f456d657267656e6379207769746864726177616c206661696c65640000000000600082015250565b60006155a8601b83613d77565b91506155b382615572565b602082019050919050565b600060208201905081810360008301526155d78161559b565b9050919050565b7f4576656e7420616c726561647920736574746c65640000000000000000000000600082015250565b6000615614601583613d77565b915061561f826155de565b602082019050919050565b6000602082019050818103600083015261564381615607565b9050919050565b7f4e6f20726576656e756520746f20736574746c65000000000000000000000000600082015250565b6000615680601483613d77565b915061568b8261564a565b602082019050919050565b600060208201905081810360008301526156af81615673565b9050919050565b7f5472616e7366657220746f206f7267616e697a6572206661696c656400000000600082015250565b60006156ec601c83613d77565b91506156f7826156b6565b602082019050919050565b6000602082019050818103600083015261571b816156df565b9050919050565b600081519050919050565b600082825260208201905092915050565b600061574982615722565b615753818561572d565b9350615763818560208601613d88565b61576c81613db2565b840191505092915050565b600060808201905061578c6000830187613e4b565b6157996020830186613e4b565b6157a66040830185613d42565b81810360608301526157b8818461573e565b905095945050505050565b6000815190506157d281613b32565b92915050565b6000602082840312156157ee576157ed613afc565b5b60006157fc848285016157c3565b91505092915050565b600061581082613d6c565b61581a8185614cae565b935061582a818560208601613d88565b80840191505092915050565b60006158428285615805565b915061584e8284615805565b91508190509392505050565b600060408201905061586f6000830185613e4b565b61587c6020830184613d42565b939250505056fea26469706673582212207bfa12f22a609663f5ff2bb0a63f0b278bfd74e04a99f1542da9c437ec0a89eb64736f6c634300081c0033",
  "linkReferences": {},
  "deployedLinkReferences": {}
}