{
  "_format": "hh-sol-artifact-1",
  "contractName": "EventTicketNFT",
  "sourceName": "contracts/EventTicketNFT.sol",
  "abi": [
    {
      "inputs": [],
      "stateMutability": "nonpayable",
      "type": "constructor"
    },
    {
      "inputs": [
        {
          "internalType": "address",
          "name": "sender",
          "type": "address"
        },
        {
          "internalType": "uint256",
          "name": "tokenId",
          "type": "uint256"
        },
        {
          "internalType": "address",
          "name": "owner",
          "type": "address"
        }
      ],
      "name": "ERC721IncorrectOwner",
      "type": "error"
    },
    {
      "inputs": [
        {
          "internalType": "address",
          "name": "operator",
          "type": "address"
        },
        {
          "internalType": "uint256",
          "name": "tokenId",
          "type": "uint256"
        }
      ],
      "name": "ERC721InsufficientApproval",
      "type": "error"
    },
    {
      "inputs": [
        {
          "internalType": "address",
          "name": "approver",
          "type": "address"
        }
      ],
      "name": "ERC721InvalidApprover",
      "type": "error"
    },
    {
      "inputs": [
        {
          "internalType": "address",
          "name": "operator",
          "type": "address"
        }
      ],
      "name": "ERC721InvalidOperator",
      "type": "error"
    },
    {
      "inputs": [
        {
          "internalType": "address",
          "name": "owner",
          "type": "address"
        }
      ],
      "name": "ERC721InvalidOwner",
      "type": "error"
    },
    {
      "inputs": [
        {
          "internalType": "address",
          "name": "receiver",
          "type": "address"
        }
      ],
      "name": "ERC721InvalidReceiver",
      "type": "error"
    },
    {
      "inputs": [
        {
          "internalType": "address",
          "name": "sender",
          "type": "address"
        }
      ],
      "name": "ERC721InvalidSender",
      "type": "error"
    },
    {
      "inputs": [
        {
          "internalType": "uint256",
          "name": "tokenId",
          "type": "uint256"
        }
      ],
      "name": "ERC721NonexistentToken",
      "type": "error"
    },
    {
      "inputs": [
        {
          "internalType": "address",
          "name": "owner",
          "type": "address"
        }
      ],
      "name": "OwnableInvalidOwner",
      "type": "error"
    },
    {
      "inputs": [
        {
          "internalType": "address",
          "name": "account",
          "type": "address"
        }
      ],
      "name": "OwnableUnauthorizedAccount",
      "type": "error"
    },
    {
      "anonymous": false,
      "inputs": [
        {
          "indexed": true,
          "internalType": "address",
          "name": "owner",
          "type": "address"
        },
        {
          "indexed": true,
          "internalType": "address",
          "name": "approved",
          "type": "address"
        },
        {
          "indexed": true,
          "internalType": "uint256",
          "name": "tokenId",
          "type": "uint256"
        }
      ],
      "name": "Approval",
      "type": "event"
    },
    {
      "anonymous": false,
      "inputs": [
        {
          "indexed": true,
          "internalType": "address",
          "name": "owner",
          "type": "address"
        },
        {
          "indexed": true,
          "internalType": "address",
          "name": "operator",
          "type": "address"
        },
        {
          "indexed": false,
          "internalType": "bool",
          "name": "approved",
          "type": "bool"
        }
      ],
      "name": "ApprovalForAll",
      "type": "event"
    },
    {
      "anonymous": false,
      "inputs": [
        {
          "indexed": false,
          "internalType": "uint256",
          "name": "_fromTokenId",
          "type": "uint256"
        },
        {
          "indexed": false,
          "internalType": "uint256",
          "name": "_toTokenId",
          "type": "uint256"
        }
      ],
      "name": "BatchMetadataUpdate",
      "type": "event"
    },
    {
      "anonymous": false,
      "inputs": [
        {
          "indexed": true,
          "internalType": "uint256",
          "name": "eventId",
          "type": "uint256"
        },
        {
          "indexed": false,
          "internalType": "string",
          "name": "name",
          "type": "string"
        }
      ],
      "name": "EventCreated",
      "type": "event"
    },
    {
      "anonymous": false,
      "inputs": [
        {
          "indexed": false,
          "internalType": "uint256",
          "name": "_tokenId",
          "type": "uint256"
        }
      ],
      "name": "MetadataUpdate",
      "type": "event"
    },
    {
      "anonymous": false,
      "inputs": [
        {
          "indexed": true,
          "internalType": "address",
          "name": "previousOwner",
          "type": "address"
        },
        {
          "indexed": true,
          "internalType": "address",
          "name": "newOwner",
          "type": "address"
        }
      ],
      "name": "OwnershipTransferred",
      "type": "event"
    },
    {
      "anonymous": false,
      "inputs": [
        {
          "indexed": true,
          "internalType": "uint256",
          "name": "tokenId",
          "type": "uint256"
        },
        {
          "indexed": true,
          "internalType": "uint256",
          "name": "eventId",
          "type": "uint256"
        },
        {
          "indexed": true,
          "internalType": "uint256",
          "name": "ticketTypeId",
          "type": "uint256"
        },
        {
          "indexed": false,
          "internalType": "uint256",
          "name": "sessionId",
          "type": "uint256"
        },
        {
          "indexed": false,
          "internalType": "address",
          "name": "owner",
          "type": "address"
        },
        {
          "indexed": false,
          "internalType": "uint256",
          "name": "price",
          "type": "uint256"
        }
      ],
      "name": "TicketMinted",
      "type": "event"
    },
    {
      "anonymous": false,
      "inputs": [
        {
          "indexed": true,
          "internalType": "uint256",
          "name": "ticketTypeId",
          "type": "uint256"
        },
        {
          "indexed": true,
          "internalType": "uint256",
          "name": "eventId",
          "type": "uint256"
        },
        {
          "indexed": false,
          "internalType": "string",
          "name": "name",
          "type": "string"
        },
        {
          "indexed": false,
          "internalType": "uint256",
          "name": "price",
          "type": "uint256"
        },
        {
          "indexed": false,
          "internalType": "uint256",
          "name": "totalSupply",
          "type": "uint256"
        }
      ],
      "name": "TicketTypeCreated",
      "type": "event"
    },
    {
      "anonymous": false,
      "inputs": [
        {
          "indexed": true,
          "internalType": "address",
          "name": "from",
          "type": "address"
        },
        {
          "indexed": true,
          "internalType": "address",
          "name": "to",
          "type": "address"
        },
        {
          "indexed": true,
          "internalType": "uint256",
          "name": "tokenId",
          "type": "uint256"
        }
      ],
      "name": "Transfer",
      "type": "event"
    },
    {
      "inputs": [
        {
          "internalType": "address",
          "name": "to",
          "type": "address"
        },
        {
          "internalType": "uint256",
          "name": "tokenId",
          "type": "uint256"
        }
      ],
      "name": "approve",
      "outputs": [],
      "stateMutability": "nonpayable",
      "type": "function"
    },
    {
      "inputs": [
        {
          "internalType": "address",
          "name": "owner",
          "type": "address"
        }
      ],
      "name": "balanceOf",
      "outputs": [
        {
          "internalType": "uint256",
          "name": "",
          "type": "uint256"
        }
      ],
      "stateMutability": "view",
      "type": "function"
    },
    {
      "inputs": [
        {
          "internalType": "string[]",
          "name": "uris",
          "type": "string[]"
        },
        {
          "internalType": "uint256[]",
          "name": "ticketTypeIds",
          "type": "uint256[]"
        },
        {
          "internalType": "uint256[]",
          "name": "sessionIds",
          "type": "uint256[]"
        }
      ],
      "name": "buyTickets",
      "outputs": [],
      "stateMutability": "payable",
      "type": "function"
    },
    {
      "inputs": [
        {
          "internalType": "uint256",
          "name": "eventId",
          "type": "uint256"
        },
        {
          "internalType": "string",
          "name": "eventName",
          "type": "string"
        }
      ],
      "name": "createEvent",
      "outputs": [],
      "stateMutability": "nonpayable",
      "type": "function"
    },
    {
      "inputs": [
        {
          "internalType": "uint256",
          "name": "eventId",
          "type": "uint256"
        },
        {
          "internalType": "string",
          "name": "typeName",
          "type": "string"
        },
        {
          "internalType": "uint256",
          "name": "priceWei",
          "type": "uint256"
        },
        {
          "internalType": "uint256",
          "name": "totalSupply",
          "type": "uint256"
        }
      ],
      "name": "createTicketType",
      "outputs": [
        {
          "internalType": "uint256",
          "name": "ticketTypeId",
          "type": "uint256"
        }
      ],
      "stateMutability": "nonpayable",
      "type": "function"
    },
    {
      "inputs": [
        {
          "internalType": "uint256",
          "name": "",
          "type": "uint256"
        }
      ],
      "name": "eventInfo",
      "outputs": [
        {
          "internalType": "bool",
          "name": "exists",
          "type": "bool"
        },
        {
          "internalType": "string",
          "name": "name",
          "type": "string"
        }
      ],
      "stateMutability": "view",
      "type": "function"
    },
    {
      "inputs": [
        {
          "internalType": "uint256",
          "name": "tokenId",
          "type": "uint256"
        }
      ],
      "name": "getApproved",
      "outputs": [
        {
          "internalType": "address",
          "name": "",
          "type": "address"
        }
      ],
      "stateMutability": "view",
      "type": "function"
    },
    {
      "inputs": [
        {
          "internalType": "uint256",
          "name": "eventId",
          "type": "uint256"
        }
      ],
      "name": "getTicketTypesByEvent",
      "outputs": [
        {
          "internalType": "uint256[]",
          "name": "",
          "type": "uint256[]"
        }
      ],
      "stateMutability": "view",
      "type": "function"
    },
    {
      "inputs": [
        {
          "internalType": "address",
          "name": "owner",
          "type": "address"
        },
        {
          "internalType": "address",
          "name": "operator",
          "type": "address"
        }
      ],
      "name": "isApprovedForAll",
      "outputs": [
        {
          "internalType": "bool",
          "name": "",
          "type": "bool"
        }
      ],
      "stateMutability": "view",
      "type": "function"
    },
    {
      "inputs": [
        {
          "internalType": "address",
          "name": "to",
          "type": "address"
        },
        {
          "internalType": "string",
          "name": "uri",
          "type": "string"
        },
        {
          "internalType": "uint256",
          "name": "ticketTypeId",
          "type": "uint256"
        },
        {
          "internalType": "uint256",
          "name": "sessionId",
          "type": "uint256"
        }
      ],
      "name": "mintTicket",
      "outputs": [
        {
          "internalType": "uint256",
          "name": "",
          "type": "uint256"
        }
      ],
      "stateMutability": "nonpayable",
      "type": "function"
    },
    {
      "inputs": [],
      "name": "name",
      "outputs": [
        {
          "internalType": "string",
          "name": "",
          "type": "string"
        }
      ],
      "stateMutability": "view",
      "type": "function"
    },
    {
      "inputs": [],
      "name": "nextTicketTypeId",
      "outputs": [
        {
          "internalType": "uint256",
          "name": "",
          "type": "uint256"
        }
      ],
      "stateMutability": "view",
      "type": "function"
    },
    {
      "inputs": [],
      "name": "nextTokenId",
      "outputs": [
        {
          "internalType": "uint256",
          "name": "",
          "type": "uint256"
        }
      ],
      "stateMutability": "view",
      "type": "function"
    },
    {
      "inputs": [],
      "name": "owner",
      "outputs": [
        {
          "internalType": "address",
          "name": "",
          "type": "address"
        }
      ],
      "stateMutability": "view",
      "type": "function"
    },
    {
      "inputs": [
        {
          "internalType": "uint256",
          "name": "tokenId",
          "type": "uint256"
        }
      ],
      "name": "ownerOf",
      "outputs": [
        {
          "internalType": "address",
          "name": "",
          "type": "address"
        }
      ],
      "stateMutability": "view",
      "type": "function"
    },
    {
      "inputs": [],
      "name": "renounceOwnership",
      "outputs": [],
      "stateMutability": "nonpayable",
      "type": "function"
    },
    {
      "inputs": [
        {
          "internalType": "address",
          "name": "from",
          "type": "address"
        },
        {
          "internalType": "address",
          "name": "to",
          "type": "address"
        },
        {
          "internalType": "uint256",
          "name": "tokenId",
          "type": "uint256"
        }
      ],
      "name": "safeTransferFrom",
      "outputs": [],
      "stateMutability": "nonpayable",
      "type": "function"
    },
    {
      "inputs": [
        {
          "internalType": "address",
          "name": "from",
          "type": "address"
        },
        {
          "internalType": "address",
          "name": "to",
          "type": "address"
        },
        {
          "internalType": "uint256",
          "name": "tokenId",
          "type": "uint256"
        },
        {
          "internalType": "bytes",
          "name": "data",
          "type": "bytes"
        }
      ],
      "name": "safeTransferFrom",
      "outputs": [],
      "stateMutability": "nonpayable",
      "type": "function"
    },
    {
      "inputs": [
        {
          "internalType": "address",
          "name": "operator",
          "type": "address"
        },
        {
          "internalType": "bool",
          "name": "approved",
          "type": "bool"
        }
      ],
      "name": "setApprovalForAll",
      "outputs": [],
      "stateMutability": "nonpayable",
      "type": "function"
    },
    {
      "inputs": [
        {
          "internalType": "bytes4",
          "name": "interfaceId",
          "type": "bytes4"
        }
      ],
      "name": "supportsInterface",
      "outputs": [
        {
          "internalType": "bool",
          "name": "",
          "type": "bool"
        }
      ],
      "stateMutability": "view",
      "type": "function"
    },
    {
      "inputs": [],
      "name": "symbol",
      "outputs": [
        {
          "internalType": "string",
          "name": "",
          "type": "string"
        }
      ],
      "stateMutability": "view",
      "type": "function"
    },
    {
      "inputs": [
        {
          "internalType": "uint256",
          "name": "",
          "type": "uint256"
        }
      ],
      "name": "ticketTypeInfo",
      "outputs": [
        {
          "internalType": "uint256",
          "name": "eventId",
          "type": "uint256"
        },
        {
          "internalType": "uint256",
          "name": "price",
          "type": "uint256"
        },
        {
          "internalType": "uint256",
          "name": "remaining",
          "type": "uint256"
        },
        {
          "internalType": "string",
          "name": "name",
          "type": "string"
        },
        {
          "internalType": "bool",
          "name": "exists",
          "type": "bool"
        }
      ],
      "stateMutability": "view",
      "type": "function"
    },
    {
      "inputs": [
        {
          "internalType": "uint256",
          "name": "",
          "type": "uint256"
        }
      ],
      "name": "tickets",
      "outputs": [
        {
          "internalType": "uint256",
          "name": "eventId",
          "type": "uint256"
        },
        {
          "internalType": "uint256",
          "name": "ticketTypeId",
          "type": "uint256"
        },
        {
          "internalType": "uint256",
          "name": "sessionId",
          "type": "uint256"
        },
        {
          "internalType": "uint256",
          "name": "price",
          "type": "uint256"
        }
      ],
      "stateMutability": "view",
      "type": "function"
    },
    {
      "inputs": [
        {
          "internalType": "uint256",
          "name": "tokenId",
          "type": "uint256"
        }
      ],
      "name": "tokenURI",
      "outputs": [
        {
          "internalType": "string",
          "name": "",
          "type": "string"
        }
      ],
      "stateMutability": "view",
      "type": "function"
    },
    {
      "inputs": [
        {
          "internalType": "address",
          "name": "from",
          "type": "address"
        },
        {
          "internalType": "address",
          "name": "to",
          "type": "address"
        },
        {
          "internalType": "uint256",
          "name": "tokenId",
          "type": "uint256"
        }
      ],
      "name": "transferFrom",
      "outputs": [],
      "stateMutability": "nonpayable",
      "type": "function"
    },
    {
      "inputs": [
        {
          "internalType": "address",
          "name": "newOwner",
          "type": "address"
        }
      ],
      "name": "transferOwnership",
      "outputs": [],
      "stateMutability": "nonpayable",
      "type": "function"
    }
  ],
  "bytecode": "0x60806040526001600b556001600c5534801561001a57600080fd5b50336040518060400160405280600e81526020017f4576656e745469636b65744e46540000000000000000000000000000000000008152506040518060400160405280600581526020017f45544e465400000000000000000000000000000000000000000000000000000081525081600090816100979190610447565b5080600190816100a79190610447565b505050600073ffffffffffffffffffffffffffffffffffffffff168173ffffffffffffffffffffffffffffffffffffffff160361011c5760006040517f1e4fbdf7000000000000000000000000000000000000000000000000000000008152600401610113919061055a565b60405180910390fd5b61012b8161013160201b60201c565b50610575565b6000600760009054906101000a900473ffffffffffffffffffffffffffffffffffffffff16905081600760006101000a81548173ffffffffffffffffffffffffffffffffffffffff021916908373ffffffffffffffffffffffffffffffffffffffff1602179055508173ffffffffffffffffffffffffffffffffffffffff168173ffffffffffffffffffffffffffffffffffffffff167f8be0079c531659141344cd1fd0a4f28419497f9722a3daafe3b4186f6b6457e060405160405180910390a35050565b600081519050919050565b7f4e487b7100000000000000000000000000000000000000000000000000000000600052604160045260246000fd5b7f4e487b7100000000000000000000000000000000000000000000000000000000600052602260045260246000fd5b6000600282049050600182168061027857607f821691505b60208210810361028b5761028a610231565b5b50919050565b60008190508160005260206000209050919050565b60006020601f8301049050919050565b600082821b905092915050565b6000600883026102f37fffffffffffffffffffffffffffffffffffffffffffffffffffffffffffffffff826102b6565b6102fd86836102b6565b95508019841693508086168417925050509392505050565b6000819050919050565b6000819050919050565b600061034461033f61033a84610315565b61031f565b610315565b9050919050565b6000819050919050565b61035e83610329565b61037261036a8261034b565b8484546102c3565b825550505050565b600090565b61038761037a565b610392818484610355565b505050565b5b818110156103b6576103ab60008261037f565b600181019050610398565b5050565b601f8211156103fb576103cc81610291565b6103d5846102a6565b810160208510156103e4578190505b6103f86103f0856102a6565b830182610397565b50505b505050565b600082821c905092915050565b600061041e60001984600802610400565b1980831691505092915050565b6000610437838361040d565b9150826002028217905092915050565b610450826101f7565b67ffffffffffffffff81111561046957610468610202565b5b6104738254610260565b61047e8282856103ba565b600060209050601f8311600181146104b1576000841561049f578287015190505b6104a9858261042b565b865550610511565b601f1984166104bf86610291565b60005b828110156104e7578489015182556001820191506020850194506020810190506104c2565b868310156105045784890151610500601f89168261040d565b8355505b6001600288020188555050505b505050505050565b600073ffffffffffffffffffffffffffffffffffffffff82169050919050565b600061054482610519565b9050919050565b61055481610539565b82525050565b600060208201905061056f600083018461054b565b92915050565b613f93806105846000396000f3fe6080604052600436106101815760003560e01c8063715018a6116100d1578063a22cb4651161008a578063c87b56dd11610064578063c87b56dd146105af578063e985e9c5146105ec578063f2fde38b14610629578063f596a0cf1461065257610181565b8063a22cb46514610541578063b217009b1461056a578063b88d4fde1461058657610181565b8063715018a61461044257806375794a3c146104595780638da5cb5b1461048457806395d89b41146104af5780639d0c025b146104da578063a1d255e11461051857610181565b80632603aedc1161013e57806361e5fb3d1161011857806361e5fb3d146103605780636352211e1461039d5780636520f171146103da57806370a082311461040557610181565b80632603aedc146102ba57806342842e0e146102f757806350b447121461032057610181565b806301ffc9a71461018657806303f090ed146101c357806306fdde0314610200578063081812fc1461022b578063095ea7b31461026857806323b872dd14610291575b600080fd5b34801561019257600080fd5b506101ad60048036038101906101a89190612a89565b610693565b6040516101ba9190612ad1565b60405180910390f35b3480156101cf57600080fd5b506101ea60048036038101906101e59190612be5565b6106a5565b6040516101f79190612c7c565b60405180910390f35b34801561020c57600080fd5b50610215610845565b6040516102229190612d27565b60405180910390f35b34801561023757600080fd5b50610252600480360381019061024d9190612d49565b6108d7565b60405161025f9190612d85565b60405180910390f35b34801561027457600080fd5b5061028f600480360381019061028a9190612da0565b6108f3565b005b34801561029d57600080fd5b506102b860048036038101906102b39190612de0565b610909565b005b3480156102c657600080fd5b506102e160048036038101906102dc9190612e33565b610a0b565b6040516102ee9190612c7c565b60405180910390f35b34801561030357600080fd5b5061031e60048036038101906103199190612de0565b610bb1565b005b34801561032c57600080fd5b5061034760048036038101906103429190612d49565b610bd1565b6040516103579493929190612ebb565b60405180910390f35b34801561036c57600080fd5b5061038760048036038101906103829190612d49565b610c01565b6040516103949190612fbe565b60405180910390f35b3480156103a957600080fd5b506103c460048036038101906103bf9190612d49565b610da2565b6040516103d19190612d85565b60405180910390f35b3480156103e657600080fd5b506103ef610db4565b6040516103fc9190612c7c565b60405180910390f35b34801561041157600080fd5b5061042c60048036038101906104279190612fe0565b610dba565b6040516104399190612c7c565b60405180910390f35b34801561044e57600080fd5b50610457610e74565b005b34801561046557600080fd5b5061046e610e88565b60405161047b9190612c7c565b60405180910390f35b34801561049057600080fd5b50610499610e8e565b6040516104a69190612d85565b60405180910390f35b3480156104bb57600080fd5b506104c4610eb8565b6040516104d19190612d27565b60405180910390f35b3480156104e657600080fd5b5061050160048036038101906104fc9190612d49565b610f4a565b60405161050f92919061300d565b60405180910390f35b34801561052457600080fd5b5061053f600480360381019061053a919061303d565b611003565b005b34801561054d57600080fd5b50610568600480360381019061056391906130c9565b611156565b005b610584600480360381019061057f91906131b5565b61116c565b005b34801561059257600080fd5b506105ad60048036038101906105a89190613399565b6115a5565b005b3480156105bb57600080fd5b506105d660048036038101906105d19190612d49565b6115ca565b6040516105e39190612d27565b60405180910390f35b3480156105f857600080fd5b50610613600480360381019061060e919061341c565b611653565b6040516106209190612ad1565b60405180910390f35b34801561063557600080fd5b50610650600480360381019061064b9190612fe0565b6116e7565b005b34801561065e57600080fd5b5061067960048036038101906106749190612d49565b61176d565b60405161068a95949392919061345c565b60405180910390f35b600061069e82611838565b9050919050565b60006106af611899565b60006009600085815260200190815260200160002090508060040160009054906101000a900460ff16610717576040517f08c379a000000000000000000000000000000000000000000000000000000000815260040161070e90613502565b60405180910390fd5b6000600b600081548092919061072c90613551565b91905055905061073c8882611920565b61078a8188888080601f016020809104026020016040519081016040528093929190818152602001838380828437600081840152601f19601f8201169050808301925050505050505061193e565b6040518060800160405280836000015481526020018681526020018581526020018360010154815250600a600083815260200190815260200160002060008201518160000155602082015181600101556040820151816002015560608201518160030155905050848260000154827f4372a18a6361018711de2de6eaa5dcacd3fc225967097f362020935080f41b09878c876001015460405161082f93929190613599565b60405180910390a4809250505095945050505050565b606060008054610854906135ff565b80601f0160208091040260200160405190810160405280929190818152602001828054610880906135ff565b80156108cd5780601f106108a2576101008083540402835291602001916108cd565b820191906000526020600020905b8154815290600101906020018083116108b057829003601f168201915b5050505050905090565b60006108e28261199a565b506108ec82611a22565b9050919050565b6109058282610900611a5f565b611a67565b5050565b600073ffffffffffffffffffffffffffffffffffffffff168273ffffffffffffffffffffffffffffffffffffffff160361097b5760006040517f64a0ae920000000000000000000000000000000000000000000000000000000081526004016109729190612d85565b60405180910390fd5b600061098f838361098a611a5f565b611a79565b90508373ffffffffffffffffffffffffffffffffffffffff168173ffffffffffffffffffffffffffffffffffffffff1614610a05578382826040517f64283d7b0000000000000000000000000000000000000000000000000000000081526004016109fc93929190613630565b60405180910390fd5b50505050565b6000610a15611899565b6008600087815260200190815260200160002060000160009054906101000a900460ff16610a78576040517f08c379a0000000000000000000000000000000000000000000000000000000008152600401610a6f906136b3565b60405180910390fd5b600c6000815480929190610a8b90613551565b9190505590506040518060a0016040528087815260200184815260200183815260200186868080601f016020809104026020016040519081016040528093929190818152602001838380828437600081840152601f19601f82011690508083019250505050505050815260200160011515815250600960008381526020019081526020016000206000820151816000015560208201518160010155604082015181600201556060820151816003019081610b45919061387f565b5060808201518160040160006101000a81548160ff02191690831515021790555090505085817fabf330a08fa3934846cf859dcbe8bccd2c598df64758145917e967b88e80b11b87878787604051610ba0949392919061397e565b60405180910390a395945050505050565b610bcc838383604051806020016040528060008152506115a5565b505050565b600a6020528060005260406000206000915090508060000154908060010154908060020154908060030154905084565b606060006001600c54610c1491906139be565b67ffffffffffffffff811115610c2d57610c2c61326e565b5b604051908082528060200260200182016040528015610c5b5781602001602082028036833780820191505090505b509050600080600190505b600c54811015610cf657846009600083815260200190815260200160002060000154148015610cb557506009600082815260200190815260200160002060040160009054906101000a900460ff165b15610ce95780838381518110610cce57610ccd6139f2565b5b6020026020010181815250508180610ce590613551565b9250505b8080600101915050610c66565b5060008167ffffffffffffffff811115610d1357610d1261326e565b5b604051908082528060200260200182016040528015610d415781602001602082028036833780820191505090505b50905060005b82811015610d9657838181518110610d6257610d616139f2565b5b6020026020010151828281518110610d7d57610d7c6139f2565b5b6020026020010181815250508080600101915050610d47565b50809350505050919050565b6000610dad8261199a565b9050919050565b600c5481565b60008073ffffffffffffffffffffffffffffffffffffffff168273ffffffffffffffffffffffffffffffffffffffff1603610e2d5760006040517f89c62b64000000000000000000000000000000000000000000000000000000008152600401610e249190612d85565b60405180910390fd5b600360008373ffffffffffffffffffffffffffffffffffffffff1673ffffffffffffffffffffffffffffffffffffffff168152602001908152602001600020549050919050565b610e7c611899565b610e866000611c93565b565b600b5481565b6000600760009054906101000a900473ffffffffffffffffffffffffffffffffffffffff16905090565b606060018054610ec7906135ff565b80601f0160208091040260200160405190810160405280929190818152602001828054610ef3906135ff565b8015610f405780601f10610f1557610100808354040283529160200191610f40565b820191906000526020600020905b815481529060010190602001808311610f2357829003601f168201915b5050505050905090565b60086020528060005260406000206000915090508060000160009054906101000a900460ff1690806001018054610f80906135ff565b80601f0160208091040260200160405190810160405280929190818152602001828054610fac906135ff565b8015610ff95780601f10610fce57610100808354040283529160200191610ff9565b820191906000526020600020905b815481529060010190602001808311610fdc57829003601f168201915b5050505050905082565b61100b611899565b6008600084815260200190815260200160002060000160009054906101000a900460ff161561106f576040517f08c379a000000000000000000000000000000000000000000000000000000000815260040161106690613a6d565b60405180910390fd5b604051806040016040528060011515815260200183838080601f016020809104026020016040519081016040528093929190818152602001838380828437600081840152601f19601f820116905080830192505050505050508152506008600085815260200190815260200160002060008201518160000160006101000a81548160ff0219169083151502179055506020820151816001019081611113919061387f565b50905050827f9ce3d6db707bca4ba0eabed8fba1e2c013a1c0bc1132a764170a7854d198c73d8383604051611149929190613a8d565b60405180910390a2505050565b611168611161611a5f565b8383611d59565b5050565b6000868690509050848490508114801561118857508282905081145b6111c7576040517f08c379a00000000000000000000000000000000000000000000000000000000081526004016111be90613afd565b60405180910390fd5b6000811161120a576040517f08c379a000000000000000000000000000000000000000000000000000000000815260040161120190613b69565b60405180910390fd5b600080600090505b8281101561130057600060096000898985818110611233576112326139f2565b5b90506020020135815260200190815260200160002090508060040160009054906101000a900460ff1661129b576040517f08c379a000000000000000000000000000000000000000000000000000000000815260040161129290613502565b60405180910390fd5b60008160020154116112e2576040517f08c379a00000000000000000000000000000000000000000000000000000000081526004016112d990613bd5565b60405180910390fd5b8060010154836112f29190613bf5565b925050806001019050611212565b50803414611343576040517f08c379a000000000000000000000000000000000000000000000000000000000815260040161133a90613c75565b60405180910390fd5b60005b8281101561154c57600060096000898985818110611367576113666139f2565b5b905060200201358152602001908152602001600020905080600201600081548092919061139390613c95565b91905055506000600b60008154809291906113ad90613551565b9190505590506113bd3382611920565b61142e818c8c868181106113d4576113d36139f2565b5b90506020028101906113e69190613ccd565b8080601f016020809104026020016040519081016040528093929190818152602001838380828437600081840152601f19601f8201169050808301925050505050505061193e565b6040518060800160405280836000015481526020018a8a86818110611456576114556139f2565b5b905060200201358152602001888886818110611475576114746139f2565b5b9050602002013581526020018360010154815250600a6000838152602001908152602001600020600082015181600001556020820151816001015560408201518160020155606082015181600301559050508888848181106114da576114d96139f2565b5b905060200201358260000154827f4372a18a6361018711de2de6eaa5dcacd3fc225967097f362020935080f41b098a8a8881811061151b5761151a6139f2565b5b9050602002013533876001015460405161153793929190613599565b60405180910390a45050806001019050611346565b50611555610e8e565b73ffffffffffffffffffffffffffffffffffffffff166108fc349081150290604051600060405180830381858888f1935050505015801561159a573d6000803e3d6000fd5b505050505050505050565b6115b0848484610909565b6115c46115bb611a5f565b85858585611ec8565b50505050565b6060600073ffffffffffffffffffffffffffffffffffffffff166115ed83612079565b73ffffffffffffffffffffffffffffffffffffffff1603611643576040517f08c379a000000000000000000000000000000000000000000000000000000000815260040161163a90613da2565b60405180910390fd5b61164c826120b6565b9050919050565b6000600560008473ffffffffffffffffffffffffffffffffffffffff1673ffffffffffffffffffffffffffffffffffffffff16815260200190815260200160002060008373ffffffffffffffffffffffffffffffffffffffff1673ffffffffffffffffffffffffffffffffffffffff16815260200190815260200160002060009054906101000a900460ff16905092915050565b6116ef611899565b600073ffffffffffffffffffffffffffffffffffffffff168173ffffffffffffffffffffffffffffffffffffffff16036117615760006040517f1e4fbdf70000000000000000000000000000000000000000000000000000000081526004016117589190612d85565b60405180910390fd5b61176a81611c93565b50565b60096020528060005260406000206000915090508060000154908060010154908060020154908060030180546117a2906135ff565b80601f01602080910402602001604051908101604052809291908181526020018280546117ce906135ff565b801561181b5780601f106117f05761010080835404028352916020019161181b565b820191906000526020600020905b8154815290600101906020018083116117fe57829003601f168201915b5050505050908060040160009054906101000a900460ff16905085565b6000634906490660e01b7bffffffffffffffffffffffffffffffffffffffffffffffffffffffff1916827bffffffffffffffffffffffffffffffffffffffffffffffffffffffff191614806118925750611891826121c9565b5b9050919050565b6118a1611a5f565b73ffffffffffffffffffffffffffffffffffffffff166118bf610e8e565b73ffffffffffffffffffffffffffffffffffffffff161461191e576118e2611a5f565b6040517f118cdaa70000000000000000000000000000000000000000000000000000000081526004016119159190612d85565b60405180910390fd5b565b61193a8282604051806020016040528060008152506122ab565b5050565b8060066000848152602001908152602001600020908161195e919061387f565b507ff8e1a15aba9398e019f0b49df1a4fde98ee17ae345cb5f6b5e2c27f5033e8ce78260405161198e9190612c7c565b60405180910390a15050565b6000806119a683612079565b9050600073ffffffffffffffffffffffffffffffffffffffff168173ffffffffffffffffffffffffffffffffffffffff1603611a1957826040517f7e273289000000000000000000000000000000000000000000000000000000008152600401611a109190612c7c565b60405180910390fd5b80915050919050565b60006004600083815260200190815260200160002060009054906101000a900473ffffffffffffffffffffffffffffffffffffffff169050919050565b600033905090565b611a7483838360016122cf565b505050565b600080611a8584612079565b9050600073ffffffffffffffffffffffffffffffffffffffff168373ffffffffffffffffffffffffffffffffffffffff1614611ac757611ac6818486612494565b5b600073ffffffffffffffffffffffffffffffffffffffff168173ffffffffffffffffffffffffffffffffffffffff1614611b5857611b096000856000806122cf565b6001600360008373ffffffffffffffffffffffffffffffffffffffff1673ffffffffffffffffffffffffffffffffffffffff168152602001908152602001600020600082825403925050819055505b600073ffffffffffffffffffffffffffffffffffffffff168573ffffffffffffffffffffffffffffffffffffffff1614611bdb576001600360008773ffffffffffffffffffffffffffffffffffffffff1673ffffffffffffffffffffffffffffffffffffffff168152602001908152602001600020600082825401925050819055505b846002600086815260200190815260200160002060006101000a81548173ffffffffffffffffffffffffffffffffffffffff021916908373ffffffffffffffffffffffffffffffffffffffff160217905550838573ffffffffffffffffffffffffffffffffffffffff168273ffffffffffffffffffffffffffffffffffffffff167fddf252ad1be2c89b69c2b068fc378daa952ba7f163c4a11628f55a4df523b3ef60405160405180910390a4809150509392505050565b6000600760009054906101000a900473ffffffffffffffffffffffffffffffffffffffff16905081600760006101000a81548173ffffffffffffffffffffffffffffffffffffffff021916908373ffffffffffffffffffffffffffffffffffffffff1602179055508173ffffffffffffffffffffffffffffffffffffffff168173ffffffffffffffffffffffffffffffffffffffff167f8be0079c531659141344cd1fd0a4f28419497f9722a3daafe3b4186f6b6457e060405160405180910390a35050565b600073ffffffffffffffffffffffffffffffffffffffff168273ffffffffffffffffffffffffffffffffffffffff1603611dca57816040517f5b08ba18000000000000000000000000000000000000000000000000000000008152600401611dc19190612d85565b60405180910390fd5b80600560008573ffffffffffffffffffffffffffffffffffffffff1673ffffffffffffffffffffffffffffffffffffffff16815260200190815260200160002060008473ffffffffffffffffffffffffffffffffffffffff1673ffffffffffffffffffffffffffffffffffffffff16815260200190815260200160002060006101000a81548160ff0219169083151502179055508173ffffffffffffffffffffffffffffffffffffffff168373ffffffffffffffffffffffffffffffffffffffff167f17307eab39ab6107e8899845ad3d59bd9653f200f220920489ca2b5937696c3183604051611ebb9190612ad1565b60405180910390a3505050565b60008373ffffffffffffffffffffffffffffffffffffffff163b1115612072578273ffffffffffffffffffffffffffffffffffffffff1663150b7a02868685856040518563ffffffff1660e01b8152600401611f279493929190613e17565b6020604051808303816000875af1925050508015611f6357506040513d601f19601f82011682018060405250810190611f609190613e78565b60015b611fe7573d8060008114611f93576040519150601f19603f3d011682016040523d82523d6000602084013e611f98565b606091505b506000815103611fdf57836040517f64a0ae92000000000000000000000000000000000000000000000000000000008152600401611fd69190612d85565b60405180910390fd5b805181602001fd5b63150b7a0260e01b7bffffffffffffffffffffffffffffffffffffffffffffffffffffffff1916817bffffffffffffffffffffffffffffffffffffffffffffffffffffffff19161461207057836040517f64a0ae920000000000000000000000000000000000000000000000000000000081526004016120679190612d85565b60405180910390fd5b505b5050505050565b60006002600083815260200190815260200160002060009054906101000a900473ffffffffffffffffffffffffffffffffffffffff169050919050565b60606120c18261199a565b5060006006600084815260200190815260200160002080546120e2906135ff565b80601f016020809104026020016040519081016040528092919081815260200182805461210e906135ff565b801561215b5780601f106121305761010080835404028352916020019161215b565b820191906000526020600020905b81548152906001019060200180831161213e57829003601f168201915b50505050509050600061216c612558565b905060008151036121815781925050506121c4565b6000825111156121b657808260405160200161219e929190613ee1565b604051602081830303815290604052925050506121c4565b6121bf8461256f565b925050505b919050565b60007f80ac58cd000000000000000000000000000000000000000000000000000000007bffffffffffffffffffffffffffffffffffffffffffffffffffffffff1916827bffffffffffffffffffffffffffffffffffffffffffffffffffffffff1916148061229457507f5b5e139f000000000000000000000000000000000000000000000000000000007bffffffffffffffffffffffffffffffffffffffffffffffffffffffff1916827bffffffffffffffffffffffffffffffffffffffffffffffffffffffff1916145b806122a457506122a3826125d8565b5b9050919050565b6122b58383612642565b6122ca6122c0611a5f565b6000858585611ec8565b505050565b80806123085750600073ffffffffffffffffffffffffffffffffffffffff168273ffffffffffffffffffffffffffffffffffffffff1614155b1561243c5760006123188461199a565b9050600073ffffffffffffffffffffffffffffffffffffffff168373ffffffffffffffffffffffffffffffffffffffff161415801561238357508273ffffffffffffffffffffffffffffffffffffffff168173ffffffffffffffffffffffffffffffffffffffff1614155b801561239657506123948184611653565b155b156123d857826040517fa9fbf51f0000000000000000000000000000000000000000000000000000000081526004016123cf9190612d85565b60405180910390fd5b811561243a57838573ffffffffffffffffffffffffffffffffffffffff168273ffffffffffffffffffffffffffffffffffffffff167f8c5be1e5ebec7d5bd14f71427d1e84f3dd0314c0f7b2291e5b200ac8c7c3b92560405160405180910390a45b505b836004600085815260200190815260200160002060006101000a81548173ffffffffffffffffffffffffffffffffffffffff021916908373ffffffffffffffffffffffffffffffffffffffff16021790555050505050565b61249f83838361273b565b61255357600073ffffffffffffffffffffffffffffffffffffffff168373ffffffffffffffffffffffffffffffffffffffff160361251457806040517f7e27328900000000000000000000000000000000000000000000000000000000815260040161250b9190612c7c565b60405180910390fd5b81816040517f177e802f00000000000000000000000000000000000000000000000000000000815260040161254a929190613f05565b60405180910390fd5b505050565b606060405180602001604052806000815250905090565b606061257a8261199a565b506000612585612558565b905060008151116125a557604051806020016040528060008152506125d0565b806125af846127fc565b6040516020016125c0929190613ee1565b6040516020818303038152906040525b915050919050565b60007f01ffc9a7000000000000000000000000000000000000000000000000000000007bffffffffffffffffffffffffffffffffffffffffffffffffffffffff1916827bffffffffffffffffffffffffffffffffffffffffffffffffffffffff1916149050919050565b600073ffffffffffffffffffffffffffffffffffffffff168273ffffffffffffffffffffffffffffffffffffffff16036126b45760006040517f64a0ae920000000000000000000000000000000000000000000000000000000081526004016126ab9190612d85565b60405180910390fd5b60006126c283836000611a79565b9050600073ffffffffffffffffffffffffffffffffffffffff168173ffffffffffffffffffffffffffffffffffffffff16146127365760006040517f73c6ac6e00000000000000000000000000000000000000000000000000000000815260040161272d9190612d85565b60405180910390fd5b505050565b60008073ffffffffffffffffffffffffffffffffffffffff168373ffffffffffffffffffffffffffffffffffffffff16141580156127f357508273ffffffffffffffffffffffffffffffffffffffff168473ffffffffffffffffffffffffffffffffffffffff1614806127b457506127b38484611653565b5b806127f257508273ffffffffffffffffffffffffffffffffffffffff166127da83611a22565b73ffffffffffffffffffffffffffffffffffffffff16145b5b90509392505050565b60606000600161280b846128ca565b01905060008167ffffffffffffffff81111561282a5761282961326e565b5b6040519080825280601f01601f19166020018201604052801561285c5781602001600182028036833780820191505090505b509050600082602001820190505b6001156128bf578080600190039150507f3031323334353637383961626364656600000000000000000000000000000000600a86061a8153600a85816128b3576128b2613f2e565b5b0494506000850361286a575b819350505050919050565b600080600090507a184f03e93ff9f4daa797ed6e38ed64bf6a1f0100000000000000008310612928577a184f03e93ff9f4daa797ed6e38ed64bf6a1f010000000000000000838161291e5761291d613f2e565b5b0492506040810190505b6d04ee2d6d415b85acef81000000008310612965576d04ee2d6d415b85acef8100000000838161295b5761295a613f2e565b5b0492506020810190505b662386f26fc10000831061299457662386f26fc10000838161298a57612989613f2e565b5b0492506010810190505b6305f5e10083106129bd576305f5e10083816129b3576129b2613f2e565b5b0492506008810190505b61271083106129e25761271083816129d8576129d7613f2e565b5b0492506004810190505b60648310612a0557606483816129fb576129fa613f2e565b5b0492506002810190505b600a8310612a14576001810190505b80915050919050565b6000604051905090565b600080fd5b600080fd5b60007fffffffff0000000000000000000000000000000000000000000000000000000082169050919050565b612a6681612a31565b8114612a7157600080fd5b50565b600081359050612a8381612a5d565b92915050565b600060208284031215612a9f57612a9e612a27565b5b6000612aad84828501612a74565b91505092915050565b60008115159050919050565b612acb81612ab6565b82525050565b6000602082019050612ae66000830184612ac2565b92915050565b600073ffffffffffffffffffffffffffffffffffffffff82169050919050565b6000612b1782612aec565b9050919050565b612b2781612b0c565b8114612b3257600080fd5b50565b600081359050612b4481612b1e565b92915050565b600080fd5b600080fd5b600080fd5b60008083601f840112612b6f57612b6e612b4a565b5b8235905067ffffffffffffffff811115612b8c57612b8b612b4f565b5b602083019150836001820283011115612ba857612ba7612b54565b5b9250929050565b6000819050919050565b612bc281612baf565b8114612bcd57600080fd5b50565b600081359050612bdf81612bb9565b92915050565b600080600080600060808688031215612c0157612c00612a27565b5b6000612c0f88828901612b35565b955050602086013567ffffffffffffffff811115612c3057612c2f612a2c565b5b612c3c88828901612b59565b94509450506040612c4f88828901612bd0565b9250506060612c6088828901612bd0565b9150509295509295909350565b612c7681612baf565b82525050565b6000602082019050612c916000830184612c6d565b92915050565b600081519050919050565b600082825260208201905092915050565b60005b83811015612cd1578082015181840152602081019050612cb6565b60008484015250505050565b6000601f19601f8301169050919050565b6000612cf982612c97565b612d038185612ca2565b9350612d13818560208601612cb3565b612d1c81612cdd565b840191505092915050565b60006020820190508181036000830152612d418184612cee565b905092915050565b600060208284031215612d5f57612d5e612a27565b5b6000612d6d84828501612bd0565b91505092915050565b612d7f81612b0c565b82525050565b6000602082019050612d9a6000830184612d76565b92915050565b60008060408385031215612db757612db6612a27565b5b6000612dc585828601612b35565b9250506020612dd685828601612bd0565b9150509250929050565b600080600060608486031215612df957612df8612a27565b5b6000612e0786828701612b35565b9350506020612e1886828701612b35565b9250506040612e2986828701612bd0565b9150509250925092565b600080600080600060808688031215612e4f57612e4e612a27565b5b6000612e5d88828901612bd0565b955050602086013567ffffffffffffffff811115612e7e57612e7d612a2c565b5b612e8a88828901612b59565b94509450506040612e9d88828901612bd0565b9250506060612eae88828901612bd0565b9150509295509295909350565b6000608082019050612ed06000830187612c6d565b612edd6020830186612c6d565b612eea6040830185612c6d565b612ef76060830184612c6d565b95945050505050565b600081519050919050565b600082825260208201905092915050565b6000819050602082019050919050565b612f3581612baf565b82525050565b6000612f478383612f2c565b60208301905092915050565b6000602082019050919050565b6000612f6b82612f00565b612f758185612f0b565b9350612f8083612f1c565b8060005b83811015612fb1578151612f988882612f3b565b9750612fa383612f53565b925050600181019050612f84565b5085935050505092915050565b60006020820190508181036000830152612fd88184612f60565b905092915050565b600060208284031215612ff657612ff5612a27565b5b600061300484828501612b35565b91505092915050565b60006040820190506130226000830185612ac2565b81810360208301526130348184612cee565b90509392505050565b60008060006040848603121561305657613055612a27565b5b600061306486828701612bd0565b935050602084013567ffffffffffffffff81111561308557613084612a2c565b5b61309186828701612b59565b92509250509250925092565b6130a681612ab6565b81146130b157600080fd5b50565b6000813590506130c38161309d565b92915050565b600080604083850312156130e0576130df612a27565b5b60006130ee85828601612b35565b92505060206130ff858286016130b4565b9150509250929050565b60008083601f84011261311f5761311e612b4a565b5b8235905067ffffffffffffffff81111561313c5761313b612b4f565b5b60208301915083602082028301111561315857613157612b54565b5b9250929050565b60008083601f84011261317557613174612b4a565b5b8235905067ffffffffffffffff81111561319257613191612b4f565b5b6020830191508360208202830111156131ae576131ad612b54565b5b9250929050565b600080600080600080606087890312156131d2576131d1612a27565b5b600087013567ffffffffffffffff8111156131f0576131ef612a2c565b5b6131fc89828a01613109565b9650965050602087013567ffffffffffffffff81111561321f5761321e612a2c565b5b61322b89828a0161315f565b9450945050604087013567ffffffffffffffff81111561324e5761324d612a2c565b5b61325a89828a0161315f565b92509250509295509295509295565b600080fd5b7f4e487b7100000000000000000000000000000000000000000000000000000000600052604160045260246000fd5b6132a682612cdd565b810181811067ffffffffffffffff821117156132c5576132c461326e565b5b80604052505050565b60006132d8612a1d565b90506132e4828261329d565b919050565b600067ffffffffffffffff8211156133045761330361326e565b5b61330d82612cdd565b9050602081019050919050565b82818337600083830152505050565b600061333c613337846132e9565b6132ce565b90508281526020810184848401111561335857613357613269565b5b61336384828561331a565b509392505050565b600082601f8301126133805761337f612b4a565b5b8135613390848260208601613329565b91505092915050565b600080600080608085870312156133b3576133b2612a27565b5b60006133c187828801612b35565b94505060206133d287828801612b35565b93505060406133e387828801612bd0565b925050606085013567ffffffffffffffff81111561340457613403612a2c565b5b6134108782880161336b565b91505092959194509250565b6000806040838503121561343357613432612a27565b5b600061344185828601612b35565b925050602061345285828601612b35565b9150509250929050565b600060a0820190506134716000830188612c6d565b61347e6020830187612c6d565b61348b6040830186612c6d565b818103606083015261349d8185612cee565b90506134ac6080830184612ac2565b9695505050505050565b7f5469636b657454797065206e6f74206578697374730000000000000000000000600082015250565b60006134ec601583612ca2565b91506134f7826134b6565b602082019050919050565b6000602082019050818103600083015261351b816134df565b9050919050565b7f4e487b7100000000000000000000000000000000000000000000000000000000600052601160045260246000fd5b600061355c82612baf565b91507fffffffffffffffffffffffffffffffffffffffffffffffffffffffffffffffff820361358e5761358d613522565b5b600182019050919050565b60006060820190506135ae6000830186612c6d565b6135bb6020830185612d76565b6135c86040830184612c6d565b949350505050565b7f4e487b7100000000000000000000000000000000000000000000000000000000600052602260045260246000fd5b6000600282049050600182168061361757607f821691505b60208210810361362a576136296135d0565b5b50919050565b60006060820190506136456000830186612d76565b6136526020830185612c6d565b61365f6040830184612d76565b949350505050565b7f4576656e74206e6f742065786973747300000000000000000000000000000000600082015250565b600061369d601083612ca2565b91506136a882613667565b602082019050919050565b600060208201905081810360008301526136cc81613690565b9050919050565b60008190508160005260206000209050919050565b60006020601f8301049050919050565b600082821b905092915050565b6000600883026137357fffffffffffffffffffffffffffffffffffffffffffffffffffffffffffffffff826136f8565b61373f86836136f8565b95508019841693508086168417925050509392505050565b6000819050919050565b600061377c61377761377284612baf565b613757565b612baf565b9050919050565b6000819050919050565b61379683613761565b6137aa6137a282613783565b848454613705565b825550505050565b600090565b6137bf6137b2565b6137ca81848461378d565b505050565b5b818110156137ee576137e36000826137b7565b6001810190506137d0565b5050565b601f82111561383357613804816136d3565b61380d846136e8565b8101602085101561381c578190505b613830613828856136e8565b8301826137cf565b50505b505050565b600082821c905092915050565b600061385660001984600802613838565b1980831691505092915050565b600061386f8383613845565b9150826002028217905092915050565b61388882612c97565b67ffffffffffffffff8111156138a1576138a061326e565b5b6138ab82546135ff565b6138b68282856137f2565b600060209050601f8311600181146138e957600084156138d7578287015190505b6138e18582613863565b865550613949565b601f1984166138f7866136d3565b60005b8281101561391f578489015182556001820191506020850194506020810190506138fa565b8683101561393c5784890151613938601f891682613845565b8355505b6001600288020188555050505b505050505050565b600061395d8385612ca2565b935061396a83858461331a565b61397383612cdd565b840190509392505050565b60006060820190508181036000830152613999818688613951565b90506139a86020830185612c6d565b6139b56040830184612c6d565b95945050505050565b60006139c982612baf565b91506139d483612baf565b92508282039050818111156139ec576139eb613522565b5b92915050565b7f4e487b7100000000000000000000000000000000000000000000000000000000600052603260045260246000fd5b7f4576656e74206578697374730000000000000000000000000000000000000000600082015250565b6000613a57600c83612ca2565b9150613a6282613a21565b602082019050919050565b60006020820190508181036000830152613a8681613a4a565b9050919050565b60006020820190508181036000830152613aa8818486613951565b90509392505050565b7f4172726179206d69736d61746368000000000000000000000000000000000000600082015250565b6000613ae7600e83612ca2565b9150613af282613ab1565b602082019050919050565b60006020820190508181036000830152613b1681613ada565b9050919050565b7f456d707479000000000000000000000000000000000000000000000000000000600082015250565b6000613b53600583612ca2565b9150613b5e82613b1d565b602082019050919050565b60006020820190508181036000830152613b8281613b46565b9050919050565b7f536f6c64206f7574000000000000000000000000000000000000000000000000600082015250565b6000613bbf600883612ca2565b9150613bca82613b89565b602082019050919050565b60006020820190508181036000830152613bee81613bb2565b9050919050565b6000613c0082612baf565b9150613c0b83612baf565b9250828201905080821115613c2357613c22613522565b5b92915050565b7f4261642045544800000000000000000000000000000000000000000000000000600082015250565b6000613c5f600783612ca2565b9150613c6a82613c29565b602082019050919050565b60006020820190508181036000830152613c8e81613c52565b9050919050565b6000613ca082612baf565b915060008203613cb357613cb2613522565b5b600182039050919050565b600080fd5b600080fd5b600080fd5b60008083356001602003843603038112613cea57613ce9613cbe565b5b80840192508235915067ffffffffffffffff821115613d0c57613d0b613cc3565b5b602083019250600182023603831315613d2857613d27613cc8565b5b509250929050565b7f4552433732313a2055524920717565727920666f72206e6f6e6578697374656e60008201527f7420746f6b656e00000000000000000000000000000000000000000000000000602082015250565b6000613d8c602783612ca2565b9150613d9782613d30565b604082019050919050565b60006020820190508181036000830152613dbb81613d7f565b9050919050565b600081519050919050565b600082825260208201905092915050565b6000613de982613dc2565b613df38185613dcd565b9350613e03818560208601612cb3565b613e0c81612cdd565b840191505092915050565b6000608082019050613e2c6000830187612d76565b613e396020830186612d76565b613e466040830185612c6d565b8181036060830152613e588184613dde565b905095945050505050565b600081519050613e7281612a5d565b92915050565b600060208284031215613e8e57613e8d612a27565b5b6000613e9c84828501613e63565b91505092915050565b600081905092915050565b6000613ebb82612c97565b613ec58185613ea5565b9350613ed5818560208601612cb3565b80840191505092915050565b6000613eed8285613eb0565b9150613ef98284613eb0565b91508190509392505050565b6000604082019050613f1a6000830185612d76565b613f276020830184612c6d565b9392505050565b7f4e487b7100000000000000000000000000000000000000000000000000000000600052601260045260246000fdfea26469706673582212205c3b1c142c48ecced54e0ea1711be0122f9bb08846e5873ff49586d66222d74b64736f6c634300081c0033",
  "linkReferences": {},
  "deployedLinkReferences": {}
}