{
  "_format": "hh-sol-artifact-1",
  "contractName": "EventTicketNFT",
  "sourceName": "contracts/EventTicketNFT.sol",
  "abi": [
    {
      "inputs": [],
      "stateMutability": "nonpayable",
      "type": "constructor"
    },
    {
      "inputs": [
        {
          "internalType": "address",
          "name": "sender",
          "type": "address"
        },
        {
          "internalType": "uint256",
          "name": "tokenId",
          "type": "uint256"
        },
        {
          "internalType": "address",
          "name": "owner",
          "type": "address"
        }
      ],
      "name": "ERC721IncorrectOwner",
      "type": "error"
    },
    {
      "inputs": [
        {
          "internalType": "address",
          "name": "operator",
          "type": "address"
        },
        {
          "internalType": "uint256",
          "name": "tokenId",
          "type": "uint256"
        }
      ],
      "name": "ERC721InsufficientApproval",
      "type": "error"
    },
    {
      "inputs": [
        {
          "internalType": "address",
          "name": "approver",
          "type": "address"
        }
      ],
      "name": "ERC721InvalidApprover",
      "type": "error"
    },
    {
      "inputs": [
        {
          "internalType": "address",
          "name": "operator",
          "type": "address"
        }
      ],
      "name": "ERC721InvalidOperator",
      "type": "error"
    },
    {
      "inputs": [
        {
          "internalType": "address",
          "name": "owner",
          "type": "address"
        }
      ],
      "name": "ERC721InvalidOwner",
      "type": "error"
    },
    {
      "inputs": [
        {
          "internalType": "address",
          "name": "receiver",
          "type": "address"
        }
      ],
      "name": "ERC721InvalidReceiver",
      "type": "error"
    },
    {
      "inputs": [
        {
          "internalType": "address",
          "name": "sender",
          "type": "address"
        }
      ],
      "name": "ERC721InvalidSender",
      "type": "error"
    },
    {
      "inputs": [
        {
          "internalType": "uint256",
          "name": "tokenId",
          "type": "uint256"
        }
      ],
      "name": "ERC721NonexistentToken",
      "type": "error"
    },
    {
      "inputs": [
        {
          "internalType": "address",
          "name": "owner",
          "type": "address"
        }
      ],
      "name": "OwnableInvalidOwner",
      "type": "error"
    },
    {
      "inputs": [
        {
          "internalType": "address",
          "name": "account",
          "type": "address"
        }
      ],
      "name": "OwnableUnauthorizedAccount",
      "type": "error"
    },
    {
      "anonymous": false,
      "inputs": [
        {
          "indexed": true,
          "internalType": "address",
          "name": "owner",
          "type": "address"
        },
        {
          "indexed": true,
          "internalType": "address",
          "name": "approved",
          "type": "address"
        },
        {
          "indexed": true,
          "internalType": "uint256",
          "name": "tokenId",
          "type": "uint256"
        }
      ],
      "name": "Approval",
      "type": "event"
    },
    {
      "anonymous": false,
      "inputs": [
        {
          "indexed": true,
          "internalType": "address",
          "name": "owner",
          "type": "address"
        },
        {
          "indexed": true,
          "internalType": "address",
          "name": "operator",
          "type": "address"
        },
        {
          "indexed": false,
          "internalType": "bool",
          "name": "approved",
          "type": "bool"
        }
      ],
      "name": "ApprovalForAll",
      "type": "event"
    },
    {
      "anonymous": false,
      "inputs": [
        {
          "indexed": false,
          "internalType": "uint256",
          "name": "_fromTokenId",
          "type": "uint256"
        },
        {
          "indexed": false,
          "internalType": "uint256",
          "name": "_toTokenId",
          "type": "uint256"
        }
      ],
      "name": "BatchMetadataUpdate",
      "type": "event"
    },
    {
      "anonymous": false,
      "inputs": [
        {
          "indexed": true,
          "internalType": "uint256",
          "name": "eventId",
          "type": "uint256"
        },
        {
          "indexed": false,
          "internalType": "uint256",
          "name": "price",
          "type": "uint256"
        },
        {
          "indexed": false,
          "internalType": "uint256",
          "name": "totalSupply",
          "type": "uint256"
        }
      ],
      "name": "EventCreated",
      "type": "event"
    },
    {
      "anonymous": false,
      "inputs": [
        {
          "indexed": false,
          "internalType": "uint256",
          "name": "_tokenId",
          "type": "uint256"
        }
      ],
      "name": "MetadataUpdate",
      "type": "event"
    },
    {
      "anonymous": false,
      "inputs": [
        {
          "indexed": true,
          "internalType": "address",
          "name": "previousOwner",
          "type": "address"
        },
        {
          "indexed": true,
          "internalType": "address",
          "name": "newOwner",
          "type": "address"
        }
      ],
      "name": "OwnershipTransferred",
      "type": "event"
    },
    {
      "anonymous": false,
      "inputs": [
        {
          "indexed": true,
          "internalType": "uint256",
          "name": "tokenId",
          "type": "uint256"
        },
        {
          "indexed": true,
          "internalType": "uint256",
          "name": "eventId",
          "type": "uint256"
        },
        {
          "indexed": true,
          "internalType": "uint256",
          "name": "sessionId",
          "type": "uint256"
        },
        {
          "indexed": false,
          "internalType": "address",
          "name": "owner",
          "type": "address"
        },
        {
          "indexed": false,
          "internalType": "uint256",
          "name": "price",
          "type": "uint256"
        }
      ],
      "name": "TicketMinted",
      "type": "event"
    },
    {
      "anonymous": false,
      "inputs": [
        {
          "indexed": true,
          "internalType": "address",
          "name": "from",
          "type": "address"
        },
        {
          "indexed": true,
          "internalType": "address",
          "name": "to",
          "type": "address"
        },
        {
          "indexed": true,
          "internalType": "uint256",
          "name": "tokenId",
          "type": "uint256"
        }
      ],
      "name": "Transfer",
      "type": "event"
    },
    {
      "inputs": [
        {
          "internalType": "address",
          "name": "to",
          "type": "address"
        },
        {
          "internalType": "uint256",
          "name": "tokenId",
          "type": "uint256"
        }
      ],
      "name": "approve",
      "outputs": [],
      "stateMutability": "nonpayable",
      "type": "function"
    },
    {
      "inputs": [
        {
          "internalType": "address",
          "name": "owner",
          "type": "address"
        }
      ],
      "name": "balanceOf",
      "outputs": [
        {
          "internalType": "uint256",
          "name": "",
          "type": "uint256"
        }
      ],
      "stateMutability": "view",
      "type": "function"
    },
    {
      "inputs": [
        {
          "internalType": "address",
          "name": "to",
          "type": "address"
        },
        {
          "internalType": "string[]",
          "name": "uris",
          "type": "string[]"
        },
        {
          "internalType": "uint256[]",
          "name": "eventIds",
          "type": "uint256[]"
        },
        {
          "internalType": "uint256[]",
          "name": "sessionIds",
          "type": "uint256[]"
        },
        {
          "internalType": "uint256[]",
          "name": "prices",
          "type": "uint256[]"
        }
      ],
      "name": "batchMint",
      "outputs": [],
      "stateMutability": "nonpayable",
      "type": "function"
    },
    {
      "inputs": [
        {
          "internalType": "string[]",
          "name": "uris",
          "type": "string[]"
        },
        {
          "internalType": "uint256[]",
          "name": "eventIds",
          "type": "uint256[]"
        },
        {
          "internalType": "uint256[]",
          "name": "sessionIds",
          "type": "uint256[]"
        }
      ],
      "name": "buyTickets",
      "outputs": [],
      "stateMutability": "payable",
      "type": "function"
    },
    {
      "inputs": [
        {
          "internalType": "uint256",
          "name": "eventId",
          "type": "uint256"
        },
        {
          "internalType": "uint256",
          "name": "priceWei",
          "type": "uint256"
        },
        {
          "internalType": "uint256",
          "name": "totalSupply",
          "type": "uint256"
        }
      ],
      "name": "createEvent",
      "outputs": [],
      "stateMutability": "nonpayable",
      "type": "function"
    },
    {
      "inputs": [
        {
          "internalType": "uint256",
          "name": "",
          "type": "uint256"
        }
      ],
      "name": "eventInfo",
      "outputs": [
        {
          "internalType": "uint256",
          "name": "price",
          "type": "uint256"
        },
        {
          "internalType": "uint256",
          "name": "remaining",
          "type": "uint256"
        }
      ],
      "stateMutability": "view",
      "type": "function"
    },
    {
      "inputs": [
        {
          "internalType": "uint256",
          "name": "tokenId",
          "type": "uint256"
        }
      ],
      "name": "getApproved",
      "outputs": [
        {
          "internalType": "address",
          "name": "",
          "type": "address"
        }
      ],
      "stateMutability": "view",
      "type": "function"
    },
    {
      "inputs": [
        {
          "internalType": "address",
          "name": "owner",
          "type": "address"
        },
        {
          "internalType": "address",
          "name": "operator",
          "type": "address"
        }
      ],
      "name": "isApprovedForAll",
      "outputs": [
        {
          "internalType": "bool",
          "name": "",
          "type": "bool"
        }
      ],
      "stateMutability": "view",
      "type": "function"
    },
    {
      "inputs": [],
      "name": "name",
      "outputs": [
        {
          "internalType": "string",
          "name": "",
          "type": "string"
        }
      ],
      "stateMutability": "view",
      "type": "function"
    },
    {
      "inputs": [],
      "name": "nextTokenId",
      "outputs": [
        {
          "internalType": "uint256",
          "name": "",
          "type": "uint256"
        }
      ],
      "stateMutability": "view",
      "type": "function"
    },
    {
      "inputs": [],
      "name": "owner",
      "outputs": [
        {
          "internalType": "address",
          "name": "",
          "type": "address"
        }
      ],
      "stateMutability": "view",
      "type": "function"
    },
    {
      "inputs": [
        {
          "internalType": "uint256",
          "name": "tokenId",
          "type": "uint256"
        }
      ],
      "name": "ownerOf",
      "outputs": [
        {
          "internalType": "address",
          "name": "",
          "type": "address"
        }
      ],
      "stateMutability": "view",
      "type": "function"
    },
    {
      "inputs": [],
      "name": "renounceOwnership",
      "outputs": [],
      "stateMutability": "nonpayable",
      "type": "function"
    },
    {
      "inputs": [
        {
          "internalType": "address",
          "name": "from",
          "type": "address"
        },
        {
          "internalType": "address",
          "name": "to",
          "type": "address"
        },
        {
          "internalType": "uint256",
          "name": "tokenId",
          "type": "uint256"
        }
      ],
      "name": "safeTransferFrom",
      "outputs": [],
      "stateMutability": "nonpayable",
      "type": "function"
    },
    {
      "inputs": [
        {
          "internalType": "address",
          "name": "from",
          "type": "address"
        },
        {
          "internalType": "address",
          "name": "to",
          "type": "address"
        },
        {
          "internalType": "uint256",
          "name": "tokenId",
          "type": "uint256"
        },
        {
          "internalType": "bytes",
          "name": "data",
          "type": "bytes"
        }
      ],
      "name": "safeTransferFrom",
      "outputs": [],
      "stateMutability": "nonpayable",
      "type": "function"
    },
    {
      "inputs": [
        {
          "internalType": "address",
          "name": "operator",
          "type": "address"
        },
        {
          "internalType": "bool",
          "name": "approved",
          "type": "bool"
        }
      ],
      "name": "setApprovalForAll",
      "outputs": [],
      "stateMutability": "nonpayable",
      "type": "function"
    },
    {
      "inputs": [
        {
          "internalType": "bytes4",
          "name": "interfaceId",
          "type": "bytes4"
        }
      ],
      "name": "supportsInterface",
      "outputs": [
        {
          "internalType": "bool",
          "name": "",
          "type": "bool"
        }
      ],
      "stateMutability": "view",
      "type": "function"
    },
    {
      "inputs": [],
      "name": "symbol",
      "outputs": [
        {
          "internalType": "string",
          "name": "",
          "type": "string"
        }
      ],
      "stateMutability": "view",
      "type": "function"
    },
    {
      "inputs": [
        {
          "internalType": "uint256",
          "name": "",
          "type": "uint256"
        }
      ],
      "name": "tickets",
      "outputs": [
        {
          "internalType": "uint256",
          "name": "eventId",
          "type": "uint256"
        },
        {
          "internalType": "uint256",
          "name": "sessionId",
          "type": "uint256"
        },
        {
          "internalType": "uint256",
          "name": "price",
          "type": "uint256"
        }
      ],
      "stateMutability": "view",
      "type": "function"
    },
    {
      "inputs": [
        {
          "internalType": "uint256",
          "name": "tokenId",
          "type": "uint256"
        }
      ],
      "name": "tokenURI",
      "outputs": [
        {
          "internalType": "string",
          "name": "",
          "type": "string"
        }
      ],
      "stateMutability": "view",
      "type": "function"
    },
    {
      "inputs": [
        {
          "internalType": "address",
          "name": "from",
          "type": "address"
        },
        {
          "internalType": "address",
          "name": "to",
          "type": "address"
        },
        {
          "internalType": "uint256",
          "name": "tokenId",
          "type": "uint256"
        }
      ],
      "name": "transferFrom",
      "outputs": [],
      "stateMutability": "nonpayable",
      "type": "function"
    },
    {
      "inputs": [
        {
          "internalType": "address",
          "name": "newOwner",
          "type": "address"
        }
      ],
      "name": "transferOwnership",
      "outputs": [],
      "stateMutability": "nonpayable",
      "type": "function"
    },
    {
      "inputs": [
        {
          "internalType": "address",
          "name": "to",
          "type": "address"
        },
        {
          "internalType": "uint256",
          "name": "tokenId",
          "type": "uint256"
        }
      ],
      "name": "transferTicket",
      "outputs": [],
      "stateMutability": "nonpayable",
      "type": "function"
    }
  ],
  "bytecode": "0x60806040526001600a5534801561001557600080fd5b50336040518060400160405280600e81526020017f4576656e745469636b65744e46540000000000000000000000000000000000008152506040518060400160405280600581526020017f45544e465400000000000000000000000000000000000000000000000000000081525081600090816100929190610442565b5080600190816100a29190610442565b505050600073ffffffffffffffffffffffffffffffffffffffff168173ffffffffffffffffffffffffffffffffffffffff16036101175760006040517f1e4fbdf700000000000000000000000000000000000000000000000000000000815260040161010e9190610555565b60405180910390fd5b6101268161012c60201b60201c565b50610570565b6000600760009054906101000a900473ffffffffffffffffffffffffffffffffffffffff16905081600760006101000a81548173ffffffffffffffffffffffffffffffffffffffff021916908373ffffffffffffffffffffffffffffffffffffffff1602179055508173ffffffffffffffffffffffffffffffffffffffff168173ffffffffffffffffffffffffffffffffffffffff167f8be0079c531659141344cd1fd0a4f28419497f9722a3daafe3b4186f6b6457e060405160405180910390a35050565b600081519050919050565b7f4e487b7100000000000000000000000000000000000000000000000000000000600052604160045260246000fd5b7f4e487b7100000000000000000000000000000000000000000000000000000000600052602260045260246000fd5b6000600282049050600182168061027357607f821691505b6020821081036102865761028561022c565b5b50919050565b60008190508160005260206000209050919050565b60006020601f8301049050919050565b600082821b905092915050565b6000600883026102ee7fffffffffffffffffffffffffffffffffffffffffffffffffffffffffffffffff826102b1565b6102f886836102b1565b95508019841693508086168417925050509392505050565b6000819050919050565b6000819050919050565b600061033f61033a61033584610310565b61031a565b610310565b9050919050565b6000819050919050565b61035983610324565b61036d61036582610346565b8484546102be565b825550505050565b600090565b610382610375565b61038d818484610350565b505050565b5b818110156103b1576103a660008261037a565b600181019050610393565b5050565b601f8211156103f6576103c78161028c565b6103d0846102a1565b810160208510156103df578190505b6103f36103eb856102a1565b830182610392565b50505b505050565b600082821c905092915050565b6000610419600019846008026103fb565b1980831691505092915050565b60006104328383610408565b9150826002028217905092915050565b61044b826101f2565b67ffffffffffffffff811115610464576104636101fd565b5b61046e825461025b565b6104798282856103b5565b600060209050601f8311600181146104ac576000841561049a578287015190505b6104a48582610426565b86555061050c565b601f1984166104ba8661028c565b60005b828110156104e2578489015182556001820191506020850194506020810190506104bd565b868310156104ff57848901516104fb601f891682610408565b8355505b6001600288020188555050505b505050505050565b600073ffffffffffffffffffffffffffffffffffffffff82169050919050565b600061053f82610514565b9050919050565b61054f81610534565b82525050565b600060208201905061056a6000830184610546565b92915050565b6137318061057f6000396000f3fe6080604052600436106101405760003560e01c8063715018a6116100b6578063b217009b1161006f578063b217009b1461046f578063b88d4fde1461048b578063c87b56dd146104b4578063e985e9c5146104f1578063f2fde38b1461052e578063f6143d851461055757610140565b8063715018a61461037057806375794a3c146103875780638da5cb5b146103b257806395d89b41146103dd5780639d0c025b14610408578063a22cb4651461044657610140565b806342842e0e1161010857806342842e0e1461023c5780634c494b571461026557806350b447121461028e57806351958a56146102cd5780636352211e146102f657806370a082311461033357610140565b806301ffc9a71461014557806306fdde0314610182578063081812fc146101ad578063095ea7b3146101ea57806323b872dd14610213575b600080fd5b34801561015157600080fd5b5061016c600480360381019061016791906125e7565b610580565b604051610179919061262f565b60405180910390f35b34801561018e57600080fd5b506101976105e1565b6040516101a491906126da565b60405180910390f35b3480156101b957600080fd5b506101d460048036038101906101cf9190612732565b610673565b6040516101e191906127a0565b60405180910390f35b3480156101f657600080fd5b50610211600480360381019061020c91906127e7565b61068f565b005b34801561021f57600080fd5b5061023a60048036038101906102359190612827565b6106a5565b005b34801561024857600080fd5b50610263600480360381019061025e9190612827565b6107a7565b005b34801561027157600080fd5b5061028c60048036038101906102879190612935565b6107c7565b005b34801561029a57600080fd5b506102b560048036038101906102b09190612732565b610a13565b6040516102c493929190612a40565b60405180910390f35b3480156102d957600080fd5b506102f460048036038101906102ef91906127e7565b610a3d565b005b34801561030257600080fd5b5061031d60048036038101906103189190612732565b610ac2565b60405161032a91906127a0565b60405180910390f35b34801561033f57600080fd5b5061035a60048036038101906103559190612a77565b610ad4565b6040516103679190612aa4565b60405180910390f35b34801561037c57600080fd5b50610385610b8e565b005b34801561039357600080fd5b5061039c610ba2565b6040516103a99190612aa4565b60405180910390f35b3480156103be57600080fd5b506103c7610ba8565b6040516103d491906127a0565b60405180910390f35b3480156103e957600080fd5b506103f2610bd2565b6040516103ff91906126da565b60405180910390f35b34801561041457600080fd5b5061042f600480360381019061042a9190612732565b610c64565b60405161043d929190612abf565b60405180910390f35b34801561045257600080fd5b5061046d60048036038101906104689190612b14565b610c88565b005b61048960048036038101906104849190612b54565b610c9e565b005b34801561049757600080fd5b506104b260048036038101906104ad9190612d38565b61106c565b005b3480156104c057600080fd5b506104db60048036038101906104d69190612732565b611091565b6040516104e891906126da565b60405180910390f35b3480156104fd57600080fd5b5061051860048036038101906105139190612dbb565b6111a4565b604051610525919061262f565b60405180910390f35b34801561053a57600080fd5b5061055560048036038101906105509190612a77565b611238565b005b34801561056357600080fd5b5061057e60048036038101906105799190612dfb565b6112be565b005b6000634906490660e01b7bffffffffffffffffffffffffffffffffffffffffffffffffffffffff1916827bffffffffffffffffffffffffffffffffffffffffffffffffffffffff191614806105da57506105d98261139d565b5b9050919050565b6060600080546105f090612e7d565b80601f016020809104026020016040519081016040528092919081815260200182805461061c90612e7d565b80156106695780601f1061063e57610100808354040283529160200191610669565b820191906000526020600020905b81548152906001019060200180831161064c57829003601f168201915b5050505050905090565b600061067e8261147f565b5061068882611507565b9050919050565b6106a1828261069c611544565b61154c565b5050565b600073ffffffffffffffffffffffffffffffffffffffff168273ffffffffffffffffffffffffffffffffffffffff16036107175760006040517f64a0ae9200000000000000000000000000000000000000000000000000000000815260040161070e91906127a0565b60405180910390fd5b600061072b8383610726611544565b61155e565b90508373ffffffffffffffffffffffffffffffffffffffff168173ffffffffffffffffffffffffffffffffffffffff16146107a1578382826040517f64283d7b00000000000000000000000000000000000000000000000000000000815260040161079893929190612eae565b60405180910390fd5b50505050565b6107c28383836040518060200160405280600081525061106c565b505050565b6107cf611778565b600088889050905086869050811480156107eb57508484905081145b80156107f957508282905081145b610838576040517f08c379a000000000000000000000000000000000000000000000000000000000815260040161082f90612f31565b60405180910390fd5b60005b81811015610a06576000600a600081548092919061085890612f80565b9190505590506108688c826117ff565b6108d9818c8c8581811061087f5761087e612fc8565b5b90506020028101906108919190613006565b8080601f016020809104026020016040519081016040528093929190818152602001838380828437600081840152601f19601f8201169050808301925050505050505061181d565b60405180606001604052808a8a858181106108f7576108f6612fc8565b5b90506020020135815260200188888581811061091657610915612fc8565b5b90506020020135815260200186868581811061093557610934612fc8565b5b905060200201358152506009600083815260200190815260200160002060008201518160000155602082015181600101556040820151816002015590505086868381811061098657610985612fc8565b5b905060200201358989848181106109a05761099f612fc8565b5b90506020020135827f5a54e9185fafd07e94f18cc5d52309a6a1e6ec94215bd768683494b20814a0898f8989888181106109dd576109dc612fc8565b5b905060200201356040516109f2929190613069565b60405180910390a45080600101905061083b565b5050505050505050505050565b60096020528060005260406000206000915090508060000154908060010154908060020154905083565b3373ffffffffffffffffffffffffffffffffffffffff16610a5d82610ac2565b73ffffffffffffffffffffffffffffffffffffffff1614610ab3576040517f08c379a0000000000000000000000000000000000000000000000000000000008152600401610aaa906130de565b60405180910390fd5b610abe338383611879565b5050565b6000610acd8261147f565b9050919050565b60008073ffffffffffffffffffffffffffffffffffffffff168273ffffffffffffffffffffffffffffffffffffffff1603610b475760006040517f89c62b64000000000000000000000000000000000000000000000000000000008152600401610b3e91906127a0565b60405180910390fd5b600360008373ffffffffffffffffffffffffffffffffffffffff1673ffffffffffffffffffffffffffffffffffffffff168152602001908152602001600020549050919050565b610b96611778565b610ba060006119e6565b565b600a5481565b6000600760009054906101000a900473ffffffffffffffffffffffffffffffffffffffff16905090565b606060018054610be190612e7d565b80601f0160208091040260200160405190810160405280929190818152602001828054610c0d90612e7d565b8015610c5a5780601f10610c2f57610100808354040283529160200191610c5a565b820191906000526020600020905b815481529060010190602001808311610c3d57829003601f168201915b5050505050905090565b60086020528060005260406000206000915090508060000154908060010154905082565b610c9a610c93611544565b8383611aac565b5050565b60008686905090508484905081148015610cba57508282905081145b610cf9576040517f08c379a0000000000000000000000000000000000000000000000000000000008152600401610cf090612f31565b60405180910390fd5b60008111610d3c576040517f08c379a0000000000000000000000000000000000000000000000000000000008152600401610d339061314a565b60405180910390fd5b600080600090505b82811015610de157600060086000898985818110610d6557610d64612fc8565b5b90506020020135815260200190815260200160002090506000816001015411610dc3576040517f08c379a0000000000000000000000000000000000000000000000000000000008152600401610dba906131b6565b60405180910390fd5b806000015483610dd391906131d6565b925050806001019050610d44565b50803414610e24576040517f08c379a0000000000000000000000000000000000000000000000000000000008152600401610e1b90613256565b60405180910390fd5b60005b8281101561101357600060086000898985818110610e4857610e47612fc8565b5b9050602002013581526020019081526020016000209050806001016000815480929190610e7490613276565b91905055506000600a6000815480929190610e8e90612f80565b919050559050610e9e33826117ff565b610f0f818c8c86818110610eb557610eb4612fc8565b5b9050602002810190610ec79190613006565b8080601f016020809104026020016040519081016040528093929190818152602001838380828437600081840152601f19601f8201169050808301925050505050505061181d565b60405180606001604052808a8a86818110610f2d57610f2c612fc8565b5b905060200201358152602001888886818110610f4c57610f4b612fc8565b5b905060200201358152602001836000015481525060096000838152602001908152602001600020600082015181600001556020820151816001015560408201518160020155905050868684818110610fa757610fa6612fc8565b5b90506020020135898985818110610fc157610fc0612fc8565b5b90506020020135827f5a54e9185fafd07e94f18cc5d52309a6a1e6ec94215bd768683494b20814a089338660000154604051610ffe929190613069565b60405180910390a45050806001019050610e27565b5061101c610ba8565b73ffffffffffffffffffffffffffffffffffffffff166108fc349081150290604051600060405180830381858888f19350505050158015611061573d6000803e3d6000fd5b505050505050505050565b6110778484846106a5565b61108b611082611544565b85858585611c1b565b50505050565b606061109c8261147f565b5060006006600084815260200190815260200160002080546110bd90612e7d565b80601f01602080910402602001604051908101604052809291908181526020018280546110e990612e7d565b80156111365780601f1061110b57610100808354040283529160200191611136565b820191906000526020600020905b81548152906001019060200180831161111957829003601f168201915b505050505090506000611147611dcc565b9050600081510361115c57819250505061119f565b6000825111156111915780826040516020016111799291906132db565b6040516020818303038152906040529250505061119f565b61119a84611de3565b925050505b919050565b6000600560008473ffffffffffffffffffffffffffffffffffffffff1673ffffffffffffffffffffffffffffffffffffffff16815260200190815260200160002060008373ffffffffffffffffffffffffffffffffffffffff1673ffffffffffffffffffffffffffffffffffffffff16815260200190815260200160002060009054906101000a900460ff16905092915050565b611240611778565b600073ffffffffffffffffffffffffffffffffffffffff168173ffffffffffffffffffffffffffffffffffffffff16036112b25760006040517f1e4fbdf70000000000000000000000000000000000000000000000000000000081526004016112a991906127a0565b60405180910390fd5b6112bb816119e6565b50565b6112c6611778565b600060086000858152602001908152602001600020600101541461131f576040517f08c379a00000000000000000000000000000000000000000000000000000000081526004016113169061334b565b60405180910390fd5b604051806040016040528083815260200182815250600860008581526020019081526020016000206000820151816000015560208201518160010155905050827f06168e40fac2576e22d73ab2e9efa79b4e7530dd3dd411ab7d8862d04be798a28383604051611390929190612abf565b60405180910390a2505050565b60007f80ac58cd000000000000000000000000000000000000000000000000000000007bffffffffffffffffffffffffffffffffffffffffffffffffffffffff1916827bffffffffffffffffffffffffffffffffffffffffffffffffffffffff1916148061146857507f5b5e139f000000000000000000000000000000000000000000000000000000007bffffffffffffffffffffffffffffffffffffffffffffffffffffffff1916827bffffffffffffffffffffffffffffffffffffffffffffffffffffffff1916145b80611478575061147782611e4c565b5b9050919050565b60008061148b83611eb6565b9050600073ffffffffffffffffffffffffffffffffffffffff168173ffffffffffffffffffffffffffffffffffffffff16036114fe57826040517f7e2732890000000000000000000000000000000000000000000000000000000081526004016114f59190612aa4565b60405180910390fd5b80915050919050565b60006004600083815260200190815260200160002060009054906101000a900473ffffffffffffffffffffffffffffffffffffffff169050919050565b600033905090565b6115598383836001611ef3565b505050565b60008061156a84611eb6565b9050600073ffffffffffffffffffffffffffffffffffffffff168373ffffffffffffffffffffffffffffffffffffffff16146115ac576115ab8184866120b8565b5b600073ffffffffffffffffffffffffffffffffffffffff168173ffffffffffffffffffffffffffffffffffffffff161461163d576115ee600085600080611ef3565b6001600360008373ffffffffffffffffffffffffffffffffffffffff1673ffffffffffffffffffffffffffffffffffffffff168152602001908152602001600020600082825403925050819055505b600073ffffffffffffffffffffffffffffffffffffffff168573ffffffffffffffffffffffffffffffffffffffff16146116c0576001600360008773ffffffffffffffffffffffffffffffffffffffff1673ffffffffffffffffffffffffffffffffffffffff168152602001908152602001600020600082825401925050819055505b846002600086815260200190815260200160002060006101000a81548173ffffffffffffffffffffffffffffffffffffffff021916908373ffffffffffffffffffffffffffffffffffffffff160217905550838573ffffffffffffffffffffffffffffffffffffffff168273ffffffffffffffffffffffffffffffffffffffff167fddf252ad1be2c89b69c2b068fc378daa952ba7f163c4a11628f55a4df523b3ef60405160405180910390a4809150509392505050565b611780611544565b73ffffffffffffffffffffffffffffffffffffffff1661179e610ba8565b73ffffffffffffffffffffffffffffffffffffffff16146117fd576117c1611544565b6040517f118cdaa70000000000000000000000000000000000000000000000000000000081526004016117f491906127a0565b60405180910390fd5b565b61181982826040518060200160405280600081525061217c565b5050565b8060066000848152602001908152602001600020908161183d9190613517565b507ff8e1a15aba9398e019f0b49df1a4fde98ee17ae345cb5f6b5e2c27f5033e8ce78260405161186d9190612aa4565b60405180910390a15050565b600073ffffffffffffffffffffffffffffffffffffffff168273ffffffffffffffffffffffffffffffffffffffff16036118eb5760006040517f64a0ae920000000000000000000000000000000000000000000000000000000081526004016118e291906127a0565b60405180910390fd5b60006118f98383600061155e565b9050600073ffffffffffffffffffffffffffffffffffffffff168173ffffffffffffffffffffffffffffffffffffffff160361196c57816040517f7e2732890000000000000000000000000000000000000000000000000000000081526004016119639190612aa4565b60405180910390fd5b8373ffffffffffffffffffffffffffffffffffffffff168173ffffffffffffffffffffffffffffffffffffffff16146119e0578382826040517f64283d7b0000000000000000000000000000000000000000000000000000000081526004016119d793929190612eae565b60405180910390fd5b50505050565b6000600760009054906101000a900473ffffffffffffffffffffffffffffffffffffffff16905081600760006101000a81548173ffffffffffffffffffffffffffffffffffffffff021916908373ffffffffffffffffffffffffffffffffffffffff1602179055508173ffffffffffffffffffffffffffffffffffffffff168173ffffffffffffffffffffffffffffffffffffffff167f8be0079c531659141344cd1fd0a4f28419497f9722a3daafe3b4186f6b6457e060405160405180910390a35050565b600073ffffffffffffffffffffffffffffffffffffffff168273ffffffffffffffffffffffffffffffffffffffff1603611b1d57816040517f5b08ba18000000000000000000000000000000000000000000000000000000008152600401611b1491906127a0565b60405180910390fd5b80600560008573ffffffffffffffffffffffffffffffffffffffff1673ffffffffffffffffffffffffffffffffffffffff16815260200190815260200160002060008473ffffffffffffffffffffffffffffffffffffffff1673ffffffffffffffffffffffffffffffffffffffff16815260200190815260200160002060006101000a81548160ff0219169083151502179055508173ffffffffffffffffffffffffffffffffffffffff168373ffffffffffffffffffffffffffffffffffffffff167f17307eab39ab6107e8899845ad3d59bd9653f200f220920489ca2b5937696c3183604051611c0e919061262f565b60405180910390a3505050565b60008373ffffffffffffffffffffffffffffffffffffffff163b1115611dc5578273ffffffffffffffffffffffffffffffffffffffff1663150b7a02868685856040518563ffffffff1660e01b8152600401611c7a949392919061363e565b6020604051808303816000875af1925050508015611cb657506040513d601f19601f82011682018060405250810190611cb3919061369f565b60015b611d3a573d8060008114611ce6576040519150601f19603f3d011682016040523d82523d6000602084013e611ceb565b606091505b506000815103611d3257836040517f64a0ae92000000000000000000000000000000000000000000000000000000008152600401611d2991906127a0565b60405180910390fd5b805181602001fd5b63150b7a0260e01b7bffffffffffffffffffffffffffffffffffffffffffffffffffffffff1916817bffffffffffffffffffffffffffffffffffffffffffffffffffffffff191614611dc357836040517f64a0ae92000000000000000000000000000000000000000000000000000000008152600401611dba91906127a0565b60405180910390fd5b505b5050505050565b606060405180602001604052806000815250905090565b6060611dee8261147f565b506000611df9611dcc565b90506000815111611e195760405180602001604052806000815250611e44565b80611e23846121a0565b604051602001611e349291906132db565b6040516020818303038152906040525b915050919050565b60007f01ffc9a7000000000000000000000000000000000000000000000000000000007bffffffffffffffffffffffffffffffffffffffffffffffffffffffff1916827bffffffffffffffffffffffffffffffffffffffffffffffffffffffff1916149050919050565b60006002600083815260200190815260200160002060009054906101000a900473ffffffffffffffffffffffffffffffffffffffff169050919050565b8080611f2c5750600073ffffffffffffffffffffffffffffffffffffffff168273ffffffffffffffffffffffffffffffffffffffff1614155b15612060576000611f3c8461147f565b9050600073ffffffffffffffffffffffffffffffffffffffff168373ffffffffffffffffffffffffffffffffffffffff1614158015611fa757508273ffffffffffffffffffffffffffffffffffffffff168173ffffffffffffffffffffffffffffffffffffffff1614155b8015611fba5750611fb881846111a4565b155b15611ffc57826040517fa9fbf51f000000000000000000000000000000000000000000000000000000008152600401611ff391906127a0565b60405180910390fd5b811561205e57838573ffffffffffffffffffffffffffffffffffffffff168273ffffffffffffffffffffffffffffffffffffffff167f8c5be1e5ebec7d5bd14f71427d1e84f3dd0314c0f7b2291e5b200ac8c7c3b92560405160405180910390a45b505b836004600085815260200190815260200160002060006101000a81548173ffffffffffffffffffffffffffffffffffffffff021916908373ffffffffffffffffffffffffffffffffffffffff16021790555050505050565b6120c383838361226e565b61217757600073ffffffffffffffffffffffffffffffffffffffff168373ffffffffffffffffffffffffffffffffffffffff160361213857806040517f7e27328900000000000000000000000000000000000000000000000000000000815260040161212f9190612aa4565b60405180910390fd5b81816040517f177e802f00000000000000000000000000000000000000000000000000000000815260040161216e929190613069565b60405180910390fd5b505050565b612186838361232f565b61219b612191611544565b6000858585611c1b565b505050565b6060600060016121af84612428565b01905060008167ffffffffffffffff8111156121ce576121cd612c0d565b5b6040519080825280601f01601f1916602001820160405280156122005781602001600182028036833780820191505090505b509050600082602001820190505b600115612263578080600190039150507f3031323334353637383961626364656600000000000000000000000000000000600a86061a8153600a8581612257576122566136cc565b5b0494506000850361220e575b819350505050919050565b60008073ffffffffffffffffffffffffffffffffffffffff168373ffffffffffffffffffffffffffffffffffffffff161415801561232657508273ffffffffffffffffffffffffffffffffffffffff168473ffffffffffffffffffffffffffffffffffffffff1614806122e757506122e684846111a4565b5b8061232557508273ffffffffffffffffffffffffffffffffffffffff1661230d83611507565b73ffffffffffffffffffffffffffffffffffffffff16145b5b90509392505050565b600073ffffffffffffffffffffffffffffffffffffffff168273ffffffffffffffffffffffffffffffffffffffff16036123a15760006040517f64a0ae9200000000000000000000000000000000000000000000000000000000815260040161239891906127a0565b60405180910390fd5b60006123af8383600061155e565b9050600073ffffffffffffffffffffffffffffffffffffffff168173ffffffffffffffffffffffffffffffffffffffff16146124235760006040517f73c6ac6e00000000000000000000000000000000000000000000000000000000815260040161241a91906127a0565b60405180910390fd5b505050565b600080600090507a184f03e93ff9f4daa797ed6e38ed64bf6a1f0100000000000000008310612486577a184f03e93ff9f4daa797ed6e38ed64bf6a1f010000000000000000838161247c5761247b6136cc565b5b0492506040810190505b6d04ee2d6d415b85acef810000000083106124c3576d04ee2d6d415b85acef810000000083816124b9576124b86136cc565b5b0492506020810190505b662386f26fc1000083106124f257662386f26fc1000083816124e8576124e76136cc565b5b0492506010810190505b6305f5e100831061251b576305f5e1008381612511576125106136cc565b5b0492506008810190505b6127108310612540576127108381612536576125356136cc565b5b0492506004810190505b606483106125635760648381612559576125586136cc565b5b0492506002810190505b600a8310612572576001810190505b80915050919050565b6000604051905090565b600080fd5b600080fd5b60007fffffffff0000000000000000000000000000000000000000000000000000000082169050919050565b6125c48161258f565b81146125cf57600080fd5b50565b6000813590506125e1816125bb565b92915050565b6000602082840312156125fd576125fc612585565b5b600061260b848285016125d2565b91505092915050565b60008115159050919050565b61262981612614565b82525050565b60006020820190506126446000830184612620565b92915050565b600081519050919050565b600082825260208201905092915050565b60005b83811015612684578082015181840152602081019050612669565b60008484015250505050565b6000601f19601f8301169050919050565b60006126ac8261264a565b6126b68185612655565b93506126c6818560208601612666565b6126cf81612690565b840191505092915050565b600060208201905081810360008301526126f481846126a1565b905092915050565b6000819050919050565b61270f816126fc565b811461271a57600080fd5b50565b60008135905061272c81612706565b92915050565b60006020828403121561274857612747612585565b5b60006127568482850161271d565b91505092915050565b600073ffffffffffffffffffffffffffffffffffffffff82169050919050565b600061278a8261275f565b9050919050565b61279a8161277f565b82525050565b60006020820190506127b56000830184612791565b92915050565b6127c48161277f565b81146127cf57600080fd5b50565b6000813590506127e1816127bb565b92915050565b600080604083850312156127fe576127fd612585565b5b600061280c858286016127d2565b925050602061281d8582860161271d565b9150509250929050565b6000806000606084860312156128405761283f612585565b5b600061284e868287016127d2565b935050602061285f868287016127d2565b92505060406128708682870161271d565b9150509250925092565b600080fd5b600080fd5b600080fd5b60008083601f84011261289f5761289e61287a565b5b8235905067ffffffffffffffff8111156128bc576128bb61287f565b5b6020830191508360208202830111156128d8576128d7612884565b5b9250929050565b60008083601f8401126128f5576128f461287a565b5b8235905067ffffffffffffffff8111156129125761291161287f565b5b60208301915083602082028301111561292e5761292d612884565b5b9250929050565b600080600080600080600080600060a08a8c03121561295757612956612585565b5b60006129658c828d016127d2565b99505060208a013567ffffffffffffffff8111156129865761298561258a565b5b6129928c828d01612889565b985098505060408a013567ffffffffffffffff8111156129b5576129b461258a565b5b6129c18c828d016128df565b965096505060608a013567ffffffffffffffff8111156129e4576129e361258a565b5b6129f08c828d016128df565b945094505060808a013567ffffffffffffffff811115612a1357612a1261258a565b5b612a1f8c828d016128df565b92509250509295985092959850929598565b612a3a816126fc565b82525050565b6000606082019050612a556000830186612a31565b612a626020830185612a31565b612a6f6040830184612a31565b949350505050565b600060208284031215612a8d57612a8c612585565b5b6000612a9b848285016127d2565b91505092915050565b6000602082019050612ab96000830184612a31565b92915050565b6000604082019050612ad46000830185612a31565b612ae16020830184612a31565b9392505050565b612af181612614565b8114612afc57600080fd5b50565b600081359050612b0e81612ae8565b92915050565b60008060408385031215612b2b57612b2a612585565b5b6000612b39858286016127d2565b9250506020612b4a85828601612aff565b9150509250929050565b60008060008060008060608789031215612b7157612b70612585565b5b600087013567ffffffffffffffff811115612b8f57612b8e61258a565b5b612b9b89828a01612889565b9650965050602087013567ffffffffffffffff811115612bbe57612bbd61258a565b5b612bca89828a016128df565b9450945050604087013567ffffffffffffffff811115612bed57612bec61258a565b5b612bf989828a016128df565b92509250509295509295509295565b600080fd5b7f4e487b7100000000000000000000000000000000000000000000000000000000600052604160045260246000fd5b612c4582612690565b810181811067ffffffffffffffff82111715612c6457612c63612c0d565b5b80604052505050565b6000612c7761257b565b9050612c838282612c3c565b919050565b600067ffffffffffffffff821115612ca357612ca2612c0d565b5b612cac82612690565b9050602081019050919050565b82818337600083830152505050565b6000612cdb612cd684612c88565b612c6d565b905082815260208101848484011115612cf757612cf6612c08565b5b612d02848285612cb9565b509392505050565b600082601f830112612d1f57612d1e61287a565b5b8135612d2f848260208601612cc8565b91505092915050565b60008060008060808587031215612d5257612d51612585565b5b6000612d60878288016127d2565b9450506020612d71878288016127d2565b9350506040612d828782880161271d565b925050606085013567ffffffffffffffff811115612da357612da261258a565b5b612daf87828801612d0a565b91505092959194509250565b60008060408385031215612dd257612dd1612585565b5b6000612de0858286016127d2565b9250506020612df1858286016127d2565b9150509250929050565b600080600060608486031215612e1457612e13612585565b5b6000612e228682870161271d565b9350506020612e338682870161271d565b9250506040612e448682870161271d565b9150509250925092565b7f4e487b7100000000000000000000000000000000000000000000000000000000600052602260045260246000fd5b60006002820490506001821680612e9557607f821691505b602082108103612ea857612ea7612e4e565b5b50919050565b6000606082019050612ec36000830186612791565b612ed06020830185612a31565b612edd6040830184612791565b949350505050565b7f4172726179206d69736d61746368000000000000000000000000000000000000600082015250565b6000612f1b600e83612655565b9150612f2682612ee5565b602082019050919050565b60006020820190508181036000830152612f4a81612f0e565b9050919050565b7f4e487b7100000000000000000000000000000000000000000000000000000000600052601160045260246000fd5b6000612f8b826126fc565b91507fffffffffffffffffffffffffffffffffffffffffffffffffffffffffffffffff8203612fbd57612fbc612f51565b5b600182019050919050565b7f4e487b7100000000000000000000000000000000000000000000000000000000600052603260045260246000fd5b600080fd5b600080fd5b600080fd5b6000808335600160200384360303811261302357613022612ff7565b5b80840192508235915067ffffffffffffffff82111561304557613044612ffc565b5b60208301925060018202360383131561306157613060613001565b5b509250929050565b600060408201905061307e6000830185612791565b61308b6020830184612a31565b9392505050565b7f4e6f74206f776e65720000000000000000000000000000000000000000000000600082015250565b60006130c8600983612655565b91506130d382613092565b602082019050919050565b600060208201905081810360008301526130f7816130bb565b9050919050565b7f456d707479000000000000000000000000000000000000000000000000000000600082015250565b6000613134600583612655565b915061313f826130fe565b602082019050919050565b6000602082019050818103600083015261316381613127565b9050919050565b7f536f6c64206f7574000000000000000000000000000000000000000000000000600082015250565b60006131a0600883612655565b91506131ab8261316a565b602082019050919050565b600060208201905081810360008301526131cf81613193565b9050919050565b60006131e1826126fc565b91506131ec836126fc565b925082820190508082111561320457613203612f51565b5b92915050565b7f4261642045544800000000000000000000000000000000000000000000000000600082015250565b6000613240600783612655565b915061324b8261320a565b602082019050919050565b6000602082019050818103600083015261326f81613233565b9050919050565b6000613281826126fc565b91506000820361329457613293612f51565b5b600182039050919050565b600081905092915050565b60006132b58261264a565b6132bf818561329f565b93506132cf818560208601612666565b80840191505092915050565b60006132e782856132aa565b91506132f382846132aa565b91508190509392505050565b7f4576656e74206578697374730000000000000000000000000000000000000000600082015250565b6000613335600c83612655565b9150613340826132ff565b602082019050919050565b6000602082019050818103600083015261336481613328565b9050919050565b60008190508160005260206000209050919050565b60006020601f8301049050919050565b600082821b905092915050565b6000600883026133cd7fffffffffffffffffffffffffffffffffffffffffffffffffffffffffffffffff82613390565b6133d78683613390565b95508019841693508086168417925050509392505050565b6000819050919050565b600061341461340f61340a846126fc565b6133ef565b6126fc565b9050919050565b6000819050919050565b61342e836133f9565b61344261343a8261341b565b84845461339d565b825550505050565b600090565b61345761344a565b613462818484613425565b505050565b5b818110156134865761347b60008261344f565b600181019050613468565b5050565b601f8211156134cb5761349c8161336b565b6134a584613380565b810160208510156134b4578190505b6134c86134c085613380565b830182613467565b50505b505050565b600082821c905092915050565b60006134ee600019846008026134d0565b1980831691505092915050565b600061350783836134dd565b9150826002028217905092915050565b6135208261264a565b67ffffffffffffffff81111561353957613538612c0d565b5b6135438254612e7d565b61354e82828561348a565b600060209050601f831160018114613581576000841561356f578287015190505b61357985826134fb565b8655506135e1565b601f19841661358f8661336b565b60005b828110156135b757848901518255600182019150602085019450602081019050613592565b868310156135d457848901516135d0601f8916826134dd565b8355505b6001600288020188555050505b505050505050565b600081519050919050565b600082825260208201905092915050565b6000613610826135e9565b61361a81856135f4565b935061362a818560208601612666565b61363381612690565b840191505092915050565b60006080820190506136536000830187612791565b6136606020830186612791565b61366d6040830185612a31565b818103606083015261367f8184613605565b905095945050505050565b600081519050613699816125bb565b92915050565b6000602082840312156136b5576136b4612585565b5b60006136c38482850161368a565b91505092915050565b7f4e487b7100000000000000000000000000000000000000000000000000000000600052601260045260246000fdfea2646970667358221220263e957261bee51ba247a057e6604bee7c0db9fc3d33620faa6a8528bf0e75b264736f6c634300081c0033",
  "linkReferences": {},
  "deployedLinkReferences": {}
}