{
  "_format": "hh-sol-artifact-1",
  "contractName": "EventTicketNFT",
  "sourceName": "contracts/EventTicketNFT.sol",
  "abi": [
    {
      "inputs": [],
      "stateMutability": "nonpayable",
      "type": "constructor"
    },
    {
      "inputs": [
        {
          "internalType": "address",
          "name": "sender",
          "type": "address"
        },
        {
          "internalType": "uint256",
          "name": "tokenId",
          "type": "uint256"
        },
        {
          "internalType": "address",
          "name": "owner",
          "type": "address"
        }
      ],
      "name": "ERC721IncorrectOwner",
      "type": "error"
    },
    {
      "inputs": [
        {
          "internalType": "address",
          "name": "operator",
          "type": "address"
        },
        {
          "internalType": "uint256",
          "name": "tokenId",
          "type": "uint256"
        }
      ],
      "name": "ERC721InsufficientApproval",
      "type": "error"
    },
    {
      "inputs": [
        {
          "internalType": "address",
          "name": "approver",
          "type": "address"
        }
      ],
      "name": "ERC721InvalidApprover",
      "type": "error"
    },
    {
      "inputs": [
        {
          "internalType": "address",
          "name": "operator",
          "type": "address"
        }
      ],
      "name": "ERC721InvalidOperator",
      "type": "error"
    },
    {
      "inputs": [
        {
          "internalType": "address",
          "name": "owner",
          "type": "address"
        }
      ],
      "name": "ERC721InvalidOwner",
      "type": "error"
    },
    {
      "inputs": [
        {
          "internalType": "address",
          "name": "receiver",
          "type": "address"
        }
      ],
      "name": "ERC721InvalidReceiver",
      "type": "error"
    },
    {
      "inputs": [
        {
          "internalType": "address",
          "name": "sender",
          "type": "address"
        }
      ],
      "name": "ERC721InvalidSender",
      "type": "error"
    },
    {
      "inputs": [
        {
          "internalType": "uint256",
          "name": "tokenId",
          "type": "uint256"
        }
      ],
      "name": "ERC721NonexistentToken",
      "type": "error"
    },
    {
      "inputs": [
        {
          "internalType": "address",
          "name": "owner",
          "type": "address"
        }
      ],
      "name": "OwnableInvalidOwner",
      "type": "error"
    },
    {
      "inputs": [
        {
          "internalType": "address",
          "name": "account",
          "type": "address"
        }
      ],
      "name": "OwnableUnauthorizedAccount",
      "type": "error"
    },
    {
      "inputs": [],
      "name": "ReentrancyGuardReentrantCall",
      "type": "error"
    },
    {
      "anonymous": false,
      "inputs": [
        {
          "indexed": true,
          "internalType": "address",
          "name": "owner",
          "type": "address"
        },
        {
          "indexed": true,
          "internalType": "address",
          "name": "approved",
          "type": "address"
        },
        {
          "indexed": true,
          "internalType": "uint256",
          "name": "tokenId",
          "type": "uint256"
        }
      ],
      "name": "Approval",
      "type": "event"
    },
    {
      "anonymous": false,
      "inputs": [
        {
          "indexed": true,
          "internalType": "address",
          "name": "owner",
          "type": "address"
        },
        {
          "indexed": true,
          "internalType": "address",
          "name": "operator",
          "type": "address"
        },
        {
          "indexed": false,
          "internalType": "bool",
          "name": "approved",
          "type": "bool"
        }
      ],
      "name": "ApprovalForAll",
      "type": "event"
    },
    {
      "anonymous": false,
      "inputs": [
        {
          "indexed": false,
          "internalType": "uint256",
          "name": "_fromTokenId",
          "type": "uint256"
        },
        {
          "indexed": false,
          "internalType": "uint256",
          "name": "_toTokenId",
          "type": "uint256"
        }
      ],
      "name": "BatchMetadataUpdate",
      "type": "event"
    },
    {
      "anonymous": false,
      "inputs": [
        {
          "indexed": true,
          "internalType": "uint256",
          "name": "eventId",
          "type": "uint256"
        },
        {
          "indexed": false,
          "internalType": "string",
          "name": "name",
          "type": "string"
        },
        {
          "indexed": true,
          "internalType": "address",
          "name": "organizer",
          "type": "address"
        }
      ],
      "name": "EventCreated",
      "type": "event"
    },
    {
      "anonymous": false,
      "inputs": [
        {
          "indexed": false,
          "internalType": "uint256",
          "name": "_tokenId",
          "type": "uint256"
        }
      ],
      "name": "MetadataUpdate",
      "type": "event"
    },
    {
      "anonymous": false,
      "inputs": [
        {
          "indexed": true,
          "internalType": "address",
          "name": "previousOwner",
          "type": "address"
        },
        {
          "indexed": true,
          "internalType": "address",
          "name": "newOwner",
          "type": "address"
        }
      ],
      "name": "OwnershipTransferred",
      "type": "event"
    },
    {
      "anonymous": false,
      "inputs": [
        {
          "indexed": false,
          "internalType": "uint256",
          "name": "oldFee",
          "type": "uint256"
        },
        {
          "indexed": false,
          "internalType": "uint256",
          "name": "newFee",
          "type": "uint256"
        }
      ],
      "name": "PlatformFeeChanged",
      "type": "event"
    },
    {
      "anonymous": false,
      "inputs": [
        {
          "indexed": true,
          "internalType": "address",
          "name": "admin",
          "type": "address"
        },
        {
          "indexed": false,
          "internalType": "uint256",
          "name": "amount",
          "type": "uint256"
        }
      ],
      "name": "PlatformFeesWithdrawn",
      "type": "event"
    },
    {
      "anonymous": false,
      "inputs": [
        {
          "indexed": true,
          "internalType": "uint256",
          "name": "eventId",
          "type": "uint256"
        },
        {
          "indexed": true,
          "internalType": "address",
          "name": "organizer",
          "type": "address"
        },
        {
          "indexed": false,
          "internalType": "uint256",
          "name": "organizerAmount",
          "type": "uint256"
        },
        {
          "indexed": false,
          "internalType": "uint256",
          "name": "platformFee",
          "type": "uint256"
        }
      ],
      "name": "RevenueSettled",
      "type": "event"
    },
    {
      "anonymous": false,
      "inputs": [
        {
          "indexed": true,
          "internalType": "uint256",
          "name": "tokenId",
          "type": "uint256"
        },
        {
          "indexed": true,
          "internalType": "uint256",
          "name": "eventId",
          "type": "uint256"
        },
        {
          "indexed": true,
          "internalType": "uint256",
          "name": "ticketTypeId",
          "type": "uint256"
        },
        {
          "indexed": false,
          "internalType": "uint256",
          "name": "sessionId",
          "type": "uint256"
        },
        {
          "indexed": false,
          "internalType": "address",
          "name": "owner",
          "type": "address"
        },
        {
          "indexed": false,
          "internalType": "uint256",
          "name": "price",
          "type": "uint256"
        }
      ],
      "name": "TicketMinted",
      "type": "event"
    },
    {
      "anonymous": false,
      "inputs": [
        {
          "indexed": true,
          "internalType": "uint256",
          "name": "ticketTypeId",
          "type": "uint256"
        },
        {
          "indexed": true,
          "internalType": "uint256",
          "name": "eventId",
          "type": "uint256"
        },
        {
          "indexed": false,
          "internalType": "string",
          "name": "name",
          "type": "string"
        },
        {
          "indexed": false,
          "internalType": "uint256",
          "name": "price",
          "type": "uint256"
        },
        {
          "indexed": false,
          "internalType": "uint256",
          "name": "totalSupply",
          "type": "uint256"
        }
      ],
      "name": "TicketTypeCreated",
      "type": "event"
    },
    {
      "anonymous": false,
      "inputs": [
        {
          "indexed": true,
          "internalType": "address",
          "name": "from",
          "type": "address"
        },
        {
          "indexed": true,
          "internalType": "address",
          "name": "to",
          "type": "address"
        },
        {
          "indexed": true,
          "internalType": "uint256",
          "name": "tokenId",
          "type": "uint256"
        }
      ],
      "name": "Transfer",
      "type": "event"
    },
    {
      "inputs": [],
      "name": "MAX_PLATFORM_FEE",
      "outputs": [
        {
          "internalType": "uint256",
          "name": "",
          "type": "uint256"
        }
      ],
      "stateMutability": "view",
      "type": "function"
    },
    {
      "inputs": [
        {
          "internalType": "address",
          "name": "to",
          "type": "address"
        },
        {
          "internalType": "uint256",
          "name": "tokenId",
          "type": "uint256"
        }
      ],
      "name": "approve",
      "outputs": [],
      "stateMutability": "nonpayable",
      "type": "function"
    },
    {
      "inputs": [
        {
          "internalType": "address",
          "name": "owner",
          "type": "address"
        }
      ],
      "name": "balanceOf",
      "outputs": [
        {
          "internalType": "uint256",
          "name": "",
          "type": "uint256"
        }
      ],
      "stateMutability": "view",
      "type": "function"
    },
    {
      "inputs": [
        {
          "internalType": "string[]",
          "name": "uris",
          "type": "string[]"
        },
        {
          "internalType": "uint256[]",
          "name": "ticketTypeIds",
          "type": "uint256[]"
        },
        {
          "internalType": "uint256[]",
          "name": "sessionIds",
          "type": "uint256[]"
        }
      ],
      "name": "buyTickets",
      "outputs": [],
      "stateMutability": "payable",
      "type": "function"
    },
    {
      "inputs": [
        {
          "internalType": "uint256",
          "name": "eventId",
          "type": "uint256"
        },
        {
          "internalType": "string",
          "name": "eventName",
          "type": "string"
        },
        {
          "internalType": "address",
          "name": "organizer",
          "type": "address"
        }
      ],
      "name": "createEvent",
      "outputs": [],
      "stateMutability": "nonpayable",
      "type": "function"
    },
    {
      "inputs": [
        {
          "internalType": "uint256",
          "name": "eventId",
          "type": "uint256"
        },
        {
          "internalType": "string",
          "name": "typeName",
          "type": "string"
        },
        {
          "internalType": "uint256",
          "name": "priceWei",
          "type": "uint256"
        },
        {
          "internalType": "uint256",
          "name": "totalSupply",
          "type": "uint256"
        }
      ],
      "name": "createTicketType",
      "outputs": [
        {
          "internalType": "uint256",
          "name": "ticketTypeId",
          "type": "uint256"
        }
      ],
      "stateMutability": "nonpayable",
      "type": "function"
    },
    {
      "inputs": [],
      "name": "emergencyWithdraw",
      "outputs": [],
      "stateMutability": "nonpayable",
      "type": "function"
    },
    {
      "inputs": [
        {
          "internalType": "uint256",
          "name": "",
          "type": "uint256"
        }
      ],
      "name": "eventInfo",
      "outputs": [
        {
          "internalType": "bool",
          "name": "exists",
          "type": "bool"
        },
        {
          "internalType": "string",
          "name": "name",
          "type": "string"
        },
        {
          "internalType": "address",
          "name": "organizer",
          "type": "address"
        },
        {
          "internalType": "uint256",
          "name": "totalRevenue",
          "type": "uint256"
        },
        {
          "internalType": "bool",
          "name": "settled",
          "type": "bool"
        }
      ],
      "stateMutability": "view",
      "type": "function"
    },
    {
      "inputs": [
        {
          "internalType": "uint256",
          "name": "",
          "type": "uint256"
        }
      ],
      "name": "eventPlatformFees",
      "outputs": [
        {
          "internalType": "uint256",
          "name": "",
          "type": "uint256"
        }
      ],
      "stateMutability": "view",
      "type": "function"
    },
    {
      "inputs": [
        {
          "internalType": "uint256",
          "name": "",
          "type": "uint256"
        }
      ],
      "name": "eventRevenue",
      "outputs": [
        {
          "internalType": "uint256",
          "name": "",
          "type": "uint256"
        }
      ],
      "stateMutability": "view",
      "type": "function"
    },
    {
      "inputs": [
        {
          "internalType": "uint256",
          "name": "",
          "type": "uint256"
        }
      ],
      "name": "eventSettled",
      "outputs": [
        {
          "internalType": "bool",
          "name": "",
          "type": "bool"
        }
      ],
      "stateMutability": "view",
      "type": "function"
    },
    {
      "inputs": [
        {
          "internalType": "uint256",
          "name": "tokenId",
          "type": "uint256"
        }
      ],
      "name": "getApproved",
      "outputs": [
        {
          "internalType": "address",
          "name": "",
          "type": "address"
        }
      ],
      "stateMutability": "view",
      "type": "function"
    },
    {
      "inputs": [],
      "name": "getContractBalance",
      "outputs": [
        {
          "internalType": "uint256",
          "name": "",
          "type": "uint256"
        }
      ],
      "stateMutability": "view",
      "type": "function"
    },
    {
      "inputs": [
        {
          "internalType": "uint256",
          "name": "eventId",
          "type": "uint256"
        }
      ],
      "name": "getEventRevenue",
      "outputs": [
        {
          "internalType": "uint256",
          "name": "organizerRevenue",
          "type": "uint256"
        },
        {
          "internalType": "uint256",
          "name": "platformFees",
          "type": "uint256"
        },
        {
          "internalType": "bool",
          "name": "settled",
          "type": "bool"
        },
        {
          "internalType": "address",
          "name": "organizer",
          "type": "address"
        }
      ],
      "stateMutability": "view",
      "type": "function"
    },
    {
      "inputs": [],
      "name": "getPlatformFeePercent",
      "outputs": [
        {
          "internalType": "uint256",
          "name": "",
          "type": "uint256"
        }
      ],
      "stateMutability": "view",
      "type": "function"
    },
    {
      "inputs": [
        {
          "internalType": "uint256",
          "name": "eventId",
          "type": "uint256"
        }
      ],
      "name": "getTicketTypesByEvent",
      "outputs": [
        {
          "internalType": "uint256[]",
          "name": "",
          "type": "uint256[]"
        }
      ],
      "stateMutability": "view",
      "type": "function"
    },
    {
      "inputs": [],
      "name": "getTotalPlatformFees",
      "outputs": [
        {
          "internalType": "uint256",
          "name": "",
          "type": "uint256"
        }
      ],
      "stateMutability": "view",
      "type": "function"
    },
    {
      "inputs": [
        {
          "internalType": "address",
          "name": "owner",
          "type": "address"
        },
        {
          "internalType": "address",
          "name": "operator",
          "type": "address"
        }
      ],
      "name": "isApprovedForAll",
      "outputs": [
        {
          "internalType": "bool",
          "name": "",
          "type": "bool"
        }
      ],
      "stateMutability": "view",
      "type": "function"
    },
    {
      "inputs": [
        {
          "internalType": "address",
          "name": "to",
          "type": "address"
        },
        {
          "internalType": "string",
          "name": "uri",
          "type": "string"
        },
        {
          "internalType": "uint256",
          "name": "ticketTypeId",
          "type": "uint256"
        },
        {
          "internalType": "uint256",
          "name": "sessionId",
          "type": "uint256"
        }
      ],
      "name": "mintTicket",
      "outputs": [
        {
          "internalType": "uint256",
          "name": "",
          "type": "uint256"
        }
      ],
      "stateMutability": "nonpayable",
      "type": "function"
    },
    {
      "inputs": [],
      "name": "name",
      "outputs": [
        {
          "internalType": "string",
          "name": "",
          "type": "string"
        }
      ],
      "stateMutability": "view",
      "type": "function"
    },
    {
      "inputs": [],
      "name": "nextTicketTypeId",
      "outputs": [
        {
          "internalType": "uint256",
          "name": "",
          "type": "uint256"
        }
      ],
      "stateMutability": "view",
      "type": "function"
    },
    {
      "inputs": [],
      "name": "nextTokenId",
      "outputs": [
        {
          "internalType": "uint256",
          "name": "",
          "type": "uint256"
        }
      ],
      "stateMutability": "view",
      "type": "function"
    },
    {
      "inputs": [],
      "name": "owner",
      "outputs": [
        {
          "internalType": "address",
          "name": "",
          "type": "address"
        }
      ],
      "stateMutability": "view",
      "type": "function"
    },
    {
      "inputs": [
        {
          "internalType": "uint256",
          "name": "tokenId",
          "type": "uint256"
        }
      ],
      "name": "ownerOf",
      "outputs": [
        {
          "internalType": "address",
          "name": "",
          "type": "address"
        }
      ],
      "stateMutability": "view",
      "type": "function"
    },
    {
      "inputs": [],
      "name": "platformFeePercent",
      "outputs": [
        {
          "internalType": "uint256",
          "name": "",
          "type": "uint256"
        }
      ],
      "stateMutability": "view",
      "type": "function"
    },
    {
      "inputs": [],
      "name": "renounceOwnership",
      "outputs": [],
      "stateMutability": "nonpayable",
      "type": "function"
    },
    {
      "inputs": [
        {
          "internalType": "address",
          "name": "from",
          "type": "address"
        },
        {
          "internalType": "address",
          "name": "to",
          "type": "address"
        },
        {
          "internalType": "uint256",
          "name": "tokenId",
          "type": "uint256"
        }
      ],
      "name": "safeTransferFrom",
      "outputs": [],
      "stateMutability": "nonpayable",
      "type": "function"
    },
    {
      "inputs": [
        {
          "internalType": "address",
          "name": "from",
          "type": "address"
        },
        {
          "internalType": "address",
          "name": "to",
          "type": "address"
        },
        {
          "internalType": "uint256",
          "name": "tokenId",
          "type": "uint256"
        },
        {
          "internalType": "bytes",
          "name": "data",
          "type": "bytes"
        }
      ],
      "name": "safeTransferFrom",
      "outputs": [],
      "stateMutability": "nonpayable",
      "type": "function"
    },
    {
      "inputs": [
        {
          "internalType": "address",
          "name": "operator",
          "type": "address"
        },
        {
          "internalType": "bool",
          "name": "approved",
          "type": "bool"
        }
      ],
      "name": "setApprovalForAll",
      "outputs": [],
      "stateMutability": "nonpayable",
      "type": "function"
    },
    {
      "inputs": [
        {
          "internalType": "uint256",
          "name": "newFeePercent",
          "type": "uint256"
        }
      ],
      "name": "setPlatformFeePercent",
      "outputs": [],
      "stateMutability": "nonpayable",
      "type": "function"
    },
    {
      "inputs": [
        {
          "internalType": "uint256",
          "name": "eventId",
          "type": "uint256"
        }
      ],
      "name": "settleEventRevenue",
      "outputs": [],
      "stateMutability": "nonpayable",
      "type": "function"
    },
    {
      "inputs": [
        {
          "internalType": "bytes4",
          "name": "interfaceId",
          "type": "bytes4"
        }
      ],
      "name": "supportsInterface",
      "outputs": [
        {
          "internalType": "bool",
          "name": "",
          "type": "bool"
        }
      ],
      "stateMutability": "view",
      "type": "function"
    },
    {
      "inputs": [],
      "name": "symbol",
      "outputs": [
        {
          "internalType": "string",
          "name": "",
          "type": "string"
        }
      ],
      "stateMutability": "view",
      "type": "function"
    },
    {
      "inputs": [
        {
          "internalType": "uint256",
          "name": "",
          "type": "uint256"
        }
      ],
      "name": "ticketTypeInfo",
      "outputs": [
        {
          "internalType": "uint256",
          "name": "eventId",
          "type": "uint256"
        },
        {
          "internalType": "uint256",
          "name": "price",
          "type": "uint256"
        },
        {
          "internalType": "uint256",
          "name": "remaining",
          "type": "uint256"
        },
        {
          "internalType": "string",
          "name": "name",
          "type": "string"
        },
        {
          "internalType": "bool",
          "name": "exists",
          "type": "bool"
        }
      ],
      "stateMutability": "view",
      "type": "function"
    },
    {
      "inputs": [
        {
          "internalType": "uint256",
          "name": "",
          "type": "uint256"
        }
      ],
      "name": "tickets",
      "outputs": [
        {
          "internalType": "uint256",
          "name": "eventId",
          "type": "uint256"
        },
        {
          "internalType": "uint256",
          "name": "ticketTypeId",
          "type": "uint256"
        },
        {
          "internalType": "uint256",
          "name": "sessionId",
          "type": "uint256"
        },
        {
          "internalType": "uint256",
          "name": "price",
          "type": "uint256"
        }
      ],
      "stateMutability": "view",
      "type": "function"
    },
    {
      "inputs": [
        {
          "internalType": "uint256",
          "name": "tokenId",
          "type": "uint256"
        }
      ],
      "name": "tokenURI",
      "outputs": [
        {
          "internalType": "string",
          "name": "",
          "type": "string"
        }
      ],
      "stateMutability": "view",
      "type": "function"
    },
    {
      "inputs": [],
      "name": "totalPlatformFees",
      "outputs": [
        {
          "internalType": "uint256",
          "name": "",
          "type": "uint256"
        }
      ],
      "stateMutability": "view",
      "type": "function"
    },
    {
      "inputs": [
        {
          "internalType": "address",
          "name": "from",
          "type": "address"
        },
        {
          "internalType": "address",
          "name": "to",
          "type": "address"
        },
        {
          "internalType": "uint256",
          "name": "tokenId",
          "type": "uint256"
        }
      ],
      "name": "transferFrom",
      "outputs": [],
      "stateMutability": "nonpayable",
      "type": "function"
    },
    {
      "inputs": [
        {
          "internalType": "address",
          "name": "newOwner",
          "type": "address"
        }
      ],
      "name": "transferOwnership",
      "outputs": [],
      "stateMutability": "nonpayable",
      "type": "function"
    },
    {
      "inputs": [
        {
          "internalType": "uint256",
          "name": "amount",
          "type": "uint256"
        }
      ],
      "name": "withdrawPlatformFees",
      "outputs": [],
      "stateMutability": "nonpayable",
      "type": "function"
    }
  ],
  "bytecode": "0x6080604052600a600c556000600d556001601155600160125534801561002457600080fd5b50336040518060400160405280600e81526020017f4576656e745469636b65744e46540000000000000000000000000000000000008152506040518060400160405280600581526020017f45544e465400000000000000000000000000000000000000000000000000000081525081600090816100a19190610459565b5080600190816100b19190610459565b505050600073ffffffffffffffffffffffffffffffffffffffff168173ffffffffffffffffffffffffffffffffffffffff16036101265760006040517f1e4fbdf700000000000000000000000000000000000000000000000000000000815260040161011d919061056c565b60405180910390fd5b6101358161014360201b60201c565b506001600881905550610587565b6000600760009054906101000a900473ffffffffffffffffffffffffffffffffffffffff16905081600760006101000a81548173ffffffffffffffffffffffffffffffffffffffff021916908373ffffffffffffffffffffffffffffffffffffffff1602179055508173ffffffffffffffffffffffffffffffffffffffff168173ffffffffffffffffffffffffffffffffffffffff167f8be0079c531659141344cd1fd0a4f28419497f9722a3daafe3b4186f6b6457e060405160405180910390a35050565b600081519050919050565b7f4e487b7100000000000000000000000000000000000000000000000000000000600052604160045260246000fd5b7f4e487b7100000000000000000000000000000000000000000000000000000000600052602260045260246000fd5b6000600282049050600182168061028a57607f821691505b60208210810361029d5761029c610243565b5b50919050565b60008190508160005260206000209050919050565b60006020601f8301049050919050565b600082821b905092915050565b6000600883026103057fffffffffffffffffffffffffffffffffffffffffffffffffffffffffffffffff826102c8565b61030f86836102c8565b95508019841693508086168417925050509392505050565b6000819050919050565b6000819050919050565b600061035661035161034c84610327565b610331565b610327565b9050919050565b6000819050919050565b6103708361033b565b61038461037c8261035d565b8484546102d5565b825550505050565b600090565b61039961038c565b6103a4818484610367565b505050565b5b818110156103c8576103bd600082610391565b6001810190506103aa565b5050565b601f82111561040d576103de816102a3565b6103e7846102b8565b810160208510156103f6578190505b61040a610402856102b8565b8301826103a9565b50505b505050565b600082821c905092915050565b600061043060001984600802610412565b1980831691505092915050565b6000610449838361041f565b9150826002028217905092915050565b61046282610209565b67ffffffffffffffff81111561047b5761047a610214565b5b6104858254610272565b6104908282856103cc565b600060209050601f8311600181146104c357600084156104b1578287015190505b6104bb858261043d565b865550610523565b601f1984166104d1866102a3565b60005b828110156104f9578489015182556001820191506020850194506020810190506104d4565b868310156105165784890151610512601f89168261041f565b8355505b6001600288020188555050505b505050505050565b600073ffffffffffffffffffffffffffffffffffffffff82169050919050565b60006105568261052b565b9050919050565b6105668161054b565b82525050565b6000602082019050610581600083018461055d565b92915050565b61533f806105966000396000f3fe60806040526004361061023b5760003560e01c806370a082311161012e578063b88d4fde116100ab578063e828c04c1161006f578063e828c04c146108ce578063e985e9c5146108f7578063f113069014610934578063f2fde38b14610971578063f596a0cf1461099a5761023b565b8063b88d4fde146107fd578063c87b56dd14610826578063cab230d214610863578063d3631fa51461088c578063db2e21bc146108b75761023b565b80638da5cb5b116100f25780638da5cb5b1461072157806395d89b411461074c5780639d0c025b14610777578063a22cb465146107b8578063b217009b146107e15761023b565b806370a082311461063a578063715018a61461067757806375794a3c1461068e5780638b629642146106b95780638c639a85146106f65761023b565b8063464e99fa116101bc5780636352211e116101805780636352211e146105415780636520f1711461057e5780636aa21416146105a95780636f9fb98a146105d25780636fa605e3146105fd5761023b565b8063464e99fa146104305780634c9c3f85146104595780634cbd6fc61461048457806350b44712146104c457806361e5fb3d146105045761023b565b806323b872dd1161020357806323b872dd1461034b5780632603aedc1461037457806331521d57146103b15780633998a681146103dc57806342842e0e146104075761023b565b806301ffc9a71461024057806303f090ed1461027d57806306fdde03146102ba578063081812fc146102e5578063095ea7b314610322575b600080fd5b34801561024c57600080fd5b5061026760048036038101906102629190613806565b6109db565b604051610274919061384e565b60405180910390f35b34801561028957600080fd5b506102a4600480360381019061029f9190613962565b6109ed565b6040516102b191906139f9565b60405180910390f35b3480156102c657600080fd5b506102cf610b8d565b6040516102dc9190613aa4565b60405180910390f35b3480156102f157600080fd5b5061030c60048036038101906103079190613ac6565b610c1f565b6040516103199190613b02565b60405180910390f35b34801561032e57600080fd5b5061034960048036038101906103449190613b1d565b610c3b565b005b34801561035757600080fd5b50610372600480360381019061036d9190613b5d565b610c51565b005b34801561038057600080fd5b5061039b60048036038101906103969190613bb0565b610d53565b6040516103a891906139f9565b60405180910390f35b3480156103bd57600080fd5b506103c6610ef9565b6040516103d391906139f9565b60405180910390f35b3480156103e857600080fd5b506103f1610f03565b6040516103fe91906139f9565b60405180910390f35b34801561041357600080fd5b5061042e60048036038101906104299190613b5d565b610f08565b005b34801561043c57600080fd5b5061045760048036038101906104529190613c38565b610f28565b005b34801561046557600080fd5b5061046e61119f565b60405161047b91906139f9565b60405180910390f35b34801561049057600080fd5b506104ab60048036038101906104a69190613ac6565b6111a9565b6040516104bb9493929190613cac565b60405180910390f35b3480156104d057600080fd5b506104eb60048036038101906104e69190613ac6565b611235565b6040516104fb9493929190613cf1565b60405180910390f35b34801561051057600080fd5b5061052b60048036038101906105269190613ac6565b611265565b6040516105389190613df4565b60405180910390f35b34801561054d57600080fd5b5061056860048036038101906105639190613ac6565b611406565b6040516105759190613b02565b60405180910390f35b34801561058a57600080fd5b50610593611418565b6040516105a091906139f9565b60405180910390f35b3480156105b557600080fd5b506105d060048036038101906105cb9190613ac6565b61141e565b005b3480156105de57600080fd5b506105e76115e3565b6040516105f491906139f9565b60405180910390f35b34801561060957600080fd5b50610624600480360381019061061f9190613ac6565b6115eb565b60405161063191906139f9565b60405180910390f35b34801561064657600080fd5b50610661600480360381019061065c9190613e16565b611603565b60405161066e91906139f9565b60405180910390f35b34801561068357600080fd5b5061068c6116bd565b005b34801561069a57600080fd5b506106a36116d1565b6040516106b091906139f9565b60405180910390f35b3480156106c557600080fd5b506106e060048036038101906106db9190613ac6565b6116d7565b6040516106ed91906139f9565b60405180910390f35b34801561070257600080fd5b5061070b6116ef565b60405161071891906139f9565b60405180910390f35b34801561072d57600080fd5b506107366116f5565b6040516107439190613b02565b60405180910390f35b34801561075857600080fd5b5061076161171f565b60405161076e9190613aa4565b60405180910390f35b34801561078357600080fd5b5061079e60048036038101906107999190613ac6565b6117b1565b6040516107af959493929190613e43565b60405180910390f35b3480156107c457600080fd5b506107df60048036038101906107da9190613ec9565b6118a9565b005b6107fb60048036038101906107f69190613fb5565b6118bf565b005b34801561080957600080fd5b50610824600480360381019061081f9190614199565b611e41565b005b34801561083257600080fd5b5061084d60048036038101906108489190613ac6565b611e66565b60405161085a9190613aa4565b60405180910390f35b34801561086f57600080fd5b5061088a60048036038101906108859190613ac6565b611eef565b005b34801561089857600080fd5b506108a1611f86565b6040516108ae91906139f9565b60405180910390f35b3480156108c357600080fd5b506108cc611f8c565b005b3480156108da57600080fd5b506108f560048036038101906108f09190613ac6565b612093565b005b34801561090357600080fd5b5061091e6004803603810190610919919061421c565b612360565b60405161092b919061384e565b60405180910390f35b34801561094057600080fd5b5061095b60048036038101906109569190613ac6565b6123f4565b604051610968919061384e565b60405180910390f35b34801561097d57600080fd5b5061099860048036038101906109939190613e16565b612414565b005b3480156109a657600080fd5b506109c160048036038101906109bc9190613ac6565b61249a565b6040516109d295949392919061425c565b60405180910390f35b60006109e682612565565b9050919050565b60006109f76125c6565b6000600a600085815260200190815260200160002090508060040160009054906101000a900460ff16610a5f576040517f08c379a0000000000000000000000000000000000000000000000000000000008152600401610a5690614302565b60405180910390fd5b600060116000815480929190610a7490614351565b919050559050610a84888261264d565b610ad28188888080601f016020809104026020016040519081016040528093929190818152602001838380828437600081840152601f19601f8201169050808301925050505050505061266b565b6040518060800160405280836000015481526020018681526020018581526020018360010154815250600b600083815260200190815260200160002060008201518160000155602082015181600101556040820151816002015560608201518160030155905050848260000154827f4372a18a6361018711de2de6eaa5dcacd3fc225967097f362020935080f41b09878c8760010154604051610b7793929190614399565b60405180910390a4809250505095945050505050565b606060008054610b9c906143ff565b80601f0160208091040260200160405190810160405280929190818152602001828054610bc8906143ff565b8015610c155780601f10610bea57610100808354040283529160200191610c15565b820191906000526020600020905b815481529060010190602001808311610bf857829003601f168201915b5050505050905090565b6000610c2a826126c7565b50610c348261274f565b9050919050565b610c4d8282610c4861278c565b612794565b5050565b600073ffffffffffffffffffffffffffffffffffffffff168273ffffffffffffffffffffffffffffffffffffffff1603610cc35760006040517f64a0ae92000000000000000000000000000000000000000000000000000000008152600401610cba9190613b02565b60405180910390fd5b6000610cd78383610cd261278c565b6127a6565b90508373ffffffffffffffffffffffffffffffffffffffff168173ffffffffffffffffffffffffffffffffffffffff1614610d4d578382826040517f64283d7b000000000000000000000000000000000000000000000000000000008152600401610d4493929190614430565b60405180910390fd5b50505050565b6000610d5d6125c6565b6009600087815260200190815260200160002060000160009054906101000a900460ff16610dc0576040517f08c379a0000000000000000000000000000000000000000000000000000000008152600401610db7906144b3565b60405180910390fd5b60126000815480929190610dd390614351565b9190505590506040518060a0016040528087815260200184815260200183815260200186868080601f016020809104026020016040519081016040528093929190818152602001838380828437600081840152601f19601f82011690508083019250505050505050815260200160011515815250600a60008381526020019081526020016000206000820151816000015560208201518160010155604082015181600201556060820151816003019081610e8d919061467f565b5060808201518160040160006101000a81548160ff02191690831515021790555090505085817fabf330a08fa3934846cf859dcbe8bccd2c598df64758145917e967b88e80b11b87878787604051610ee8949392919061477e565b60405180910390a395945050505050565b6000600d54905090565b601e81565b610f2383838360405180602001604052806000815250611e41565b505050565b610f306125c6565b6009600085815260200190815260200160002060000160009054906101000a900460ff1615610f94576040517f08c379a0000000000000000000000000000000000000000000000000000000008152600401610f8b9061480a565b60405180910390fd5b600073ffffffffffffffffffffffffffffffffffffffff168173ffffffffffffffffffffffffffffffffffffffff1603611003576040517f08c379a0000000000000000000000000000000000000000000000000000000008152600401610ffa90614876565b60405180910390fd5b6040518060a0016040528060011515815260200184848080601f016020809104026020016040519081016040528093929190818152602001838380828437600081840152601f19601f8201169050808301925050505050505081526020018273ffffffffffffffffffffffffffffffffffffffff16815260200160008152602001600015158152506009600086815260200190815260200160002060008201518160000160006101000a81548160ff02191690831515021790555060208201518160010190816110d3919061467f565b5060408201518160020160006101000a81548173ffffffffffffffffffffffffffffffffffffffff021916908373ffffffffffffffffffffffffffffffffffffffff1602179055506060820151816003015560808201518160040160006101000a81548160ff0219169083151502179055509050508073ffffffffffffffffffffffffffffffffffffffff16847f40fb05b814a900c99fa0a76d919dfdeaf3389540e4ca70f97ba40ca9a38f37978585604051611191929190614896565b60405180910390a350505050565b6000600c54905090565b6000806000806000600960008781526020019081526020016000209050600e600087815260200190815260200160002054600f6000888152602001908152602001600020548260040160009054906101000a900460ff168360020160009054906101000a900473ffffffffffffffffffffffffffffffffffffffff169450945094509450509193509193565b600b6020528060005260406000206000915090508060000154908060010154908060020154908060030154905084565b60606000600160125461127891906148ba565b67ffffffffffffffff8111156112915761129061406e565b5b6040519080825280602002602001820160405280156112bf5781602001602082028036833780820191505090505b509050600080600190505b60125481101561135a5784600a6000838152602001908152602001600020600001541480156113195750600a600082815260200190815260200160002060040160009054906101000a900460ff165b1561134d5780838381518110611332576113316148ee565b5b602002602001018181525050818061134990614351565b9250505b80806001019150506112ca565b5060008167ffffffffffffffff8111156113775761137661406e565b5b6040519080825280602002602001820160405280156113a55781602001602082028036833780820191505090505b50905060005b828110156113fa578381815181106113c6576113c56148ee565b5b60200260200101518282815181106113e1576113e06148ee565b5b60200260200101818152505080806001019150506113ab565b50809350505050919050565b6000611411826126c7565b9050919050565b60125481565b6114266125c6565b61142e6129c0565b600d54811115611473576040517f08c379a000000000000000000000000000000000000000000000000000000000815260040161146a90614969565b60405180910390fd5b600081116114b6576040517f08c379a00000000000000000000000000000000000000000000000000000000081526004016114ad906149d5565b60405180910390fd5b80600d60008282546114c891906148ba565b9250508190555060006114d96116f5565b73ffffffffffffffffffffffffffffffffffffffff16826040516114fc90614a26565b60006040518083038185875af1925050503d8060008114611539576040519150601f19603f3d011682016040523d82523d6000602084013e61153e565b606091505b5050905080611582576040517f08c379a000000000000000000000000000000000000000000000000000000000815260040161157990614a87565b60405180910390fd5b61158a6116f5565b73ffffffffffffffffffffffffffffffffffffffff167ffc7ad544ff6a06d6499925723d25b6fe70457a42939995b1d3d6f560fe336333836040516115cf91906139f9565b60405180910390a2506115e0612a06565b50565b600047905090565b600e6020528060005260406000206000915090505481565b60008073ffffffffffffffffffffffffffffffffffffffff168273ffffffffffffffffffffffffffffffffffffffff16036116765760006040517f89c62b6400000000000000000000000000000000000000000000000000000000815260040161166d9190613b02565b60405180910390fd5b600360008373ffffffffffffffffffffffffffffffffffffffff1673ffffffffffffffffffffffffffffffffffffffff168152602001908152602001600020549050919050565b6116c56125c6565b6116cf6000612a10565b565b60115481565b600f6020528060005260406000206000915090505481565b600c5481565b6000600760009054906101000a900473ffffffffffffffffffffffffffffffffffffffff16905090565b60606001805461172e906143ff565b80601f016020809104026020016040519081016040528092919081815260200182805461175a906143ff565b80156117a75780601f1061177c576101008083540402835291602001916117a7565b820191906000526020600020905b81548152906001019060200180831161178a57829003601f168201915b5050505050905090565b60096020528060005260406000206000915090508060000160009054906101000a900460ff16908060010180546117e7906143ff565b80601f0160208091040260200160405190810160405280929190818152602001828054611813906143ff565b80156118605780601f1061183557610100808354040283529160200191611860565b820191906000526020600020905b81548152906001019060200180831161184357829003601f168201915b5050505050908060020160009054906101000a900473ffffffffffffffffffffffffffffffffffffffff16908060030154908060040160009054906101000a900460ff16905085565b6118bb6118b461278c565b8383612ad6565b5050565b6118c76129c0565b600086869050905084849050811480156118e357508282905081145b611922576040517f08c379a000000000000000000000000000000000000000000000000000000000815260040161191990614af3565b60405180910390fd5b60008111611965576040517f08c379a000000000000000000000000000000000000000000000000000000000815260040161195c90614b5f565b60405180910390fd5b60008060005b83811015611ab4576000600a60008a8a8581811061198c5761198b6148ee565b5b90506020020135815260200190815260200160002090508060040160009054906101000a900460ff166119f4576040517f08c379a00000000000000000000000000000000000000000000000000000000081526004016119eb90614302565b60405180910390fd5b6000816002015411611a3b576040517f08c379a0000000000000000000000000000000000000000000000000000000008152600401611a3290614bcb565b60405180910390fd5b806001015484611a4b9190614beb565b935060008203611a615780600001549250611aa8565b82816000015414611aa7576040517f08c379a0000000000000000000000000000000000000000000000000000000008152600401611a9e90614c91565b60405180910390fd5b5b5080600101905061196b565b50813414611af7576040517f08c379a0000000000000000000000000000000000000000000000000000000008152600401611aee90614cfd565b60405180910390fd5b6009600082815260200190815260200160002060000160009054906101000a900460ff16611b5a576040517f08c379a0000000000000000000000000000000000000000000000000000000008152600401611b51906144b3565b60405180910390fd5b60006064600c5484611b6c9190614d1d565b611b769190614d8e565b905060008184611b8691906148ba565b905080600e60008581526020019081526020016000206000828254611bab9190614beb565b9250508190555081600f60008581526020019081526020016000206000828254611bd59190614beb565b9250508190555081600d6000828254611bee9190614beb565b9250508190555080600960008581526020019081526020016000206003016000828254611c1b9190614beb565b9250508190555060005b85811015611e2b576000600a60008c8c85818110611c4657611c456148ee565b5b9050602002013581526020019081526020016000209050806002016000815480929190611c7290614dbf565b9190505550600060116000815480929190611c8c90614351565b919050559050611c9c338261264d565b611d0d818f8f86818110611cb357611cb26148ee565b5b9050602002810190611cc59190614df7565b8080601f016020809104026020016040519081016040528093929190818152602001838380828437600081840152601f19601f8201169050808301925050505050505061266b565b6040518060800160405280836000015481526020018d8d86818110611d3557611d346148ee565b5b9050602002013581526020018b8b86818110611d5457611d536148ee565b5b9050602002013581526020018360010154815250600b6000838152602001908152602001600020600082015181600001556020820151816001015560408201518160020155606082015181600301559050508b8b84818110611db957611db86148ee565b5b905060200201358260000154827f4372a18a6361018711de2de6eaa5dcacd3fc225967097f362020935080f41b098d8d88818110611dfa57611df96148ee565b5b90506020020135338760010154604051611e1693929190614399565b60405180910390a45050806001019050611c25565b505050505050611e39612a06565b505050505050565b611e4c848484610c51565b611e60611e5761278c565b85858585612c45565b50505050565b6060600073ffffffffffffffffffffffffffffffffffffffff16611e8983612df6565b73ffffffffffffffffffffffffffffffffffffffff1603611edf576040517f08c379a0000000000000000000000000000000000000000000000000000000008152600401611ed690614ecc565b60405180910390fd5b611ee882612e33565b9050919050565b611ef76125c6565b601e811115611f3b576040517f08c379a0000000000000000000000000000000000000000000000000000000008152600401611f3290614f38565b60405180910390fd5b6000600c54905081600c819055507fc98a8b10b63c929f7799380bb4a0c444c713ebf74d8732f944c915034121aad18183604051611f7a929190614f58565b60405180910390a15050565b600d5481565b611f946125c6565b600047905060008111611fdc576040517f08c379a0000000000000000000000000000000000000000000000000000000008152600401611fd390614fcd565b60405180910390fd5b6000611fe66116f5565b73ffffffffffffffffffffffffffffffffffffffff168260405161200990614a26565b60006040518083038185875af1925050503d8060008114612046576040519150601f19603f3d011682016040523d82523d6000602084013e61204b565b606091505b505090508061208f576040517f08c379a000000000000000000000000000000000000000000000000000000000815260040161208690615039565b60405180910390fd5b5050565b61209b6125c6565b6120a36129c0565b6009600082815260200190815260200160002060000160009054906101000a900460ff16612106576040517f08c379a00000000000000000000000000000000000000000000000000000000081526004016120fd906144b3565b60405180910390fd5b6009600082815260200190815260200160002060040160009054906101000a900460ff161561216a576040517f08c379a0000000000000000000000000000000000000000000000000000000008152600401612161906150a5565b60405180910390fd5b6000600e600083815260200190815260200160002054116121c0576040517f08c379a00000000000000000000000000000000000000000000000000000000081526004016121b790615111565b60405180910390fd5b60006009600083815260200190815260200160002060020160009054906101000a900473ffffffffffffffffffffffffffffffffffffffff1690506000600e600084815260200190815260200160002054905060016009600085815260200190815260200160002060040160006101000a81548160ff02191690831515021790555060008273ffffffffffffffffffffffffffffffffffffffff168260405161226890614a26565b60006040518083038185875af1925050503d80600081146122a5576040519150601f19603f3d011682016040523d82523d6000602084013e6122aa565b606091505b50509050806122ee576040517f08c379a00000000000000000000000000000000000000000000000000000000081526004016122e59061517d565b60405180910390fd5b8273ffffffffffffffffffffffffffffffffffffffff16847f97dda060e00000f7dcda731edf2cae9e9578cefe056af8910884674cd965e6e984600f60008981526020019081526020016000205460405161234a929190614f58565b60405180910390a350505061235d612a06565b50565b6000600560008473ffffffffffffffffffffffffffffffffffffffff1673ffffffffffffffffffffffffffffffffffffffff16815260200190815260200160002060008373ffffffffffffffffffffffffffffffffffffffff1673ffffffffffffffffffffffffffffffffffffffff16815260200190815260200160002060009054906101000a900460ff16905092915050565b60106020528060005260406000206000915054906101000a900460ff1681565b61241c6125c6565b600073ffffffffffffffffffffffffffffffffffffffff168173ffffffffffffffffffffffffffffffffffffffff160361248e5760006040517f1e4fbdf70000000000000000000000000000000000000000000000000000000081526004016124859190613b02565b60405180910390fd5b61249781612a10565b50565b600a6020528060005260406000206000915090508060000154908060010154908060020154908060030180546124cf906143ff565b80601f01602080910402602001604051908101604052809291908181526020018280546124fb906143ff565b80156125485780601f1061251d57610100808354040283529160200191612548565b820191906000526020600020905b81548152906001019060200180831161252b57829003601f168201915b5050505050908060040160009054906101000a900460ff16905085565b6000634906490660e01b7bffffffffffffffffffffffffffffffffffffffffffffffffffffffff1916827bffffffffffffffffffffffffffffffffffffffffffffffffffffffff191614806125bf57506125be82612f46565b5b9050919050565b6125ce61278c565b73ffffffffffffffffffffffffffffffffffffffff166125ec6116f5565b73ffffffffffffffffffffffffffffffffffffffff161461264b5761260f61278c565b6040517f118cdaa70000000000000000000000000000000000000000000000000000000081526004016126429190613b02565b60405180910390fd5b565b612667828260405180602001604052806000815250613028565b5050565b8060066000848152602001908152602001600020908161268b919061467f565b507ff8e1a15aba9398e019f0b49df1a4fde98ee17ae345cb5f6b5e2c27f5033e8ce7826040516126bb91906139f9565b60405180910390a15050565b6000806126d383612df6565b9050600073ffffffffffffffffffffffffffffffffffffffff168173ffffffffffffffffffffffffffffffffffffffff160361274657826040517f7e27328900000000000000000000000000000000000000000000000000000000815260040161273d91906139f9565b60405180910390fd5b80915050919050565b60006004600083815260200190815260200160002060009054906101000a900473ffffffffffffffffffffffffffffffffffffffff169050919050565b600033905090565b6127a1838383600161304c565b505050565b6000806127b284612df6565b9050600073ffffffffffffffffffffffffffffffffffffffff168373ffffffffffffffffffffffffffffffffffffffff16146127f4576127f3818486613211565b5b600073ffffffffffffffffffffffffffffffffffffffff168173ffffffffffffffffffffffffffffffffffffffff16146128855761283660008560008061304c565b6001600360008373ffffffffffffffffffffffffffffffffffffffff1673ffffffffffffffffffffffffffffffffffffffff168152602001908152602001600020600082825403925050819055505b600073ffffffffffffffffffffffffffffffffffffffff168573ffffffffffffffffffffffffffffffffffffffff1614612908576001600360008773ffffffffffffffffffffffffffffffffffffffff1673ffffffffffffffffffffffffffffffffffffffff168152602001908152602001600020600082825401925050819055505b846002600086815260200190815260200160002060006101000a81548173ffffffffffffffffffffffffffffffffffffffff021916908373ffffffffffffffffffffffffffffffffffffffff160217905550838573ffffffffffffffffffffffffffffffffffffffff168273ffffffffffffffffffffffffffffffffffffffff167fddf252ad1be2c89b69c2b068fc378daa952ba7f163c4a11628f55a4df523b3ef60405160405180910390a4809150509392505050565b6002600854036129fc576040517f3ee5aeb500000000000000000000000000000000000000000000000000000000815260040160405180910390fd5b6002600881905550565b6001600881905550565b6000600760009054906101000a900473ffffffffffffffffffffffffffffffffffffffff16905081600760006101000a81548173ffffffffffffffffffffffffffffffffffffffff021916908373ffffffffffffffffffffffffffffffffffffffff1602179055508173ffffffffffffffffffffffffffffffffffffffff168173ffffffffffffffffffffffffffffffffffffffff167f8be0079c531659141344cd1fd0a4f28419497f9722a3daafe3b4186f6b6457e060405160405180910390a35050565b600073ffffffffffffffffffffffffffffffffffffffff168273ffffffffffffffffffffffffffffffffffffffff1603612b4757816040517f5b08ba18000000000000000000000000000000000000000000000000000000008152600401612b3e9190613b02565b60405180910390fd5b80600560008573ffffffffffffffffffffffffffffffffffffffff1673ffffffffffffffffffffffffffffffffffffffff16815260200190815260200160002060008473ffffffffffffffffffffffffffffffffffffffff1673ffffffffffffffffffffffffffffffffffffffff16815260200190815260200160002060006101000a81548160ff0219169083151502179055508173ffffffffffffffffffffffffffffffffffffffff168373ffffffffffffffffffffffffffffffffffffffff167f17307eab39ab6107e8899845ad3d59bd9653f200f220920489ca2b5937696c3183604051612c38919061384e565b60405180910390a3505050565b60008373ffffffffffffffffffffffffffffffffffffffff163b1115612def578273ffffffffffffffffffffffffffffffffffffffff1663150b7a02868685856040518563ffffffff1660e01b8152600401612ca494939291906151f2565b6020604051808303816000875af1925050508015612ce057506040513d601f19601f82011682018060405250810190612cdd9190615253565b60015b612d64573d8060008114612d10576040519150601f19603f3d011682016040523d82523d6000602084013e612d15565b606091505b506000815103612d5c57836040517f64a0ae92000000000000000000000000000000000000000000000000000000008152600401612d539190613b02565b60405180910390fd5b805181602001fd5b63150b7a0260e01b7bffffffffffffffffffffffffffffffffffffffffffffffffffffffff1916817bffffffffffffffffffffffffffffffffffffffffffffffffffffffff191614612ded57836040517f64a0ae92000000000000000000000000000000000000000000000000000000008152600401612de49190613b02565b60405180910390fd5b505b5050505050565b60006002600083815260200190815260200160002060009054906101000a900473ffffffffffffffffffffffffffffffffffffffff169050919050565b6060612e3e826126c7565b506000600660008481526020019081526020016000208054612e5f906143ff565b80601f0160208091040260200160405190810160405280929190818152602001828054612e8b906143ff565b8015612ed85780601f10612ead57610100808354040283529160200191612ed8565b820191906000526020600020905b815481529060010190602001808311612ebb57829003601f168201915b505050505090506000612ee96132d5565b90506000815103612efe578192505050612f41565b600082511115612f33578082604051602001612f1b9291906152bc565b60405160208183030381529060405292505050612f41565b612f3c846132ec565b925050505b919050565b60007f80ac58cd000000000000000000000000000000000000000000000000000000007bffffffffffffffffffffffffffffffffffffffffffffffffffffffff1916827bffffffffffffffffffffffffffffffffffffffffffffffffffffffff1916148061301157507f5b5e139f000000000000000000000000000000000000000000000000000000007bffffffffffffffffffffffffffffffffffffffffffffffffffffffff1916827bffffffffffffffffffffffffffffffffffffffffffffffffffffffff1916145b80613021575061302082613355565b5b9050919050565b61303283836133bf565b61304761303d61278c565b6000858585612c45565b505050565b80806130855750600073ffffffffffffffffffffffffffffffffffffffff168273ffffffffffffffffffffffffffffffffffffffff1614155b156131b9576000613095846126c7565b9050600073ffffffffffffffffffffffffffffffffffffffff168373ffffffffffffffffffffffffffffffffffffffff161415801561310057508273ffffffffffffffffffffffffffffffffffffffff168173ffffffffffffffffffffffffffffffffffffffff1614155b801561311357506131118184612360565b155b1561315557826040517fa9fbf51f00000000000000000000000000000000000000000000000000000000815260040161314c9190613b02565b60405180910390fd5b81156131b757838573ffffffffffffffffffffffffffffffffffffffff168273ffffffffffffffffffffffffffffffffffffffff167f8c5be1e5ebec7d5bd14f71427d1e84f3dd0314c0f7b2291e5b200ac8c7c3b92560405160405180910390a45b505b836004600085815260200190815260200160002060006101000a81548173ffffffffffffffffffffffffffffffffffffffff021916908373ffffffffffffffffffffffffffffffffffffffff16021790555050505050565b61321c8383836134b8565b6132d057600073ffffffffffffffffffffffffffffffffffffffff168373ffffffffffffffffffffffffffffffffffffffff160361329157806040517f7e27328900000000000000000000000000000000000000000000000000000000815260040161328891906139f9565b60405180910390fd5b81816040517f177e802f0000000000000000000000000000000000000000000000000000000081526004016132c79291906152e0565b60405180910390fd5b505050565b606060405180602001604052806000815250905090565b60606132f7826126c7565b5060006133026132d5565b90506000815111613322576040518060200160405280600081525061334d565b8061332c84613579565b60405160200161333d9291906152bc565b6040516020818303038152906040525b915050919050565b60007f01ffc9a7000000000000000000000000000000000000000000000000000000007bffffffffffffffffffffffffffffffffffffffffffffffffffffffff1916827bffffffffffffffffffffffffffffffffffffffffffffffffffffffff1916149050919050565b600073ffffffffffffffffffffffffffffffffffffffff168273ffffffffffffffffffffffffffffffffffffffff16036134315760006040517f64a0ae920000000000000000000000000000000000000000000000000000000081526004016134289190613b02565b60405180910390fd5b600061343f838360006127a6565b9050600073ffffffffffffffffffffffffffffffffffffffff168173ffffffffffffffffffffffffffffffffffffffff16146134b35760006040517f73c6ac6e0000000000000000000000000000000000000000000000000000000081526004016134aa9190613b02565b60405180910390fd5b505050565b60008073ffffffffffffffffffffffffffffffffffffffff168373ffffffffffffffffffffffffffffffffffffffff161415801561357057508273ffffffffffffffffffffffffffffffffffffffff168473ffffffffffffffffffffffffffffffffffffffff16148061353157506135308484612360565b5b8061356f57508273ffffffffffffffffffffffffffffffffffffffff166135578361274f565b73ffffffffffffffffffffffffffffffffffffffff16145b5b90509392505050565b60606000600161358884613647565b01905060008167ffffffffffffffff8111156135a7576135a661406e565b5b6040519080825280601f01601f1916602001820160405280156135d95781602001600182028036833780820191505090505b509050600082602001820190505b60011561363c578080600190039150507f3031323334353637383961626364656600000000000000000000000000000000600a86061a8153600a85816136305761362f614d5f565b5b049450600085036135e7575b819350505050919050565b600080600090507a184f03e93ff9f4daa797ed6e38ed64bf6a1f01000000000000000083106136a5577a184f03e93ff9f4daa797ed6e38ed64bf6a1f010000000000000000838161369b5761369a614d5f565b5b0492506040810190505b6d04ee2d6d415b85acef810000000083106136e2576d04ee2d6d415b85acef810000000083816136d8576136d7614d5f565b5b0492506020810190505b662386f26fc10000831061371157662386f26fc10000838161370757613706614d5f565b5b0492506010810190505b6305f5e100831061373a576305f5e10083816137305761372f614d5f565b5b0492506008810190505b612710831061375f57612710838161375557613754614d5f565b5b0492506004810190505b60648310613782576064838161377857613777614d5f565b5b0492506002810190505b600a8310613791576001810190505b80915050919050565b6000604051905090565b600080fd5b600080fd5b60007fffffffff0000000000000000000000000000000000000000000000000000000082169050919050565b6137e3816137ae565b81146137ee57600080fd5b50565b600081359050613800816137da565b92915050565b60006020828403121561381c5761381b6137a4565b5b600061382a848285016137f1565b91505092915050565b60008115159050919050565b61384881613833565b82525050565b6000602082019050613863600083018461383f565b92915050565b600073ffffffffffffffffffffffffffffffffffffffff82169050919050565b600061389482613869565b9050919050565b6138a481613889565b81146138af57600080fd5b50565b6000813590506138c18161389b565b92915050565b600080fd5b600080fd5b600080fd5b60008083601f8401126138ec576138eb6138c7565b5b8235905067ffffffffffffffff811115613909576139086138cc565b5b602083019150836001820283011115613925576139246138d1565b5b9250929050565b6000819050919050565b61393f8161392c565b811461394a57600080fd5b50565b60008135905061395c81613936565b92915050565b60008060008060006080868803121561397e5761397d6137a4565b5b600061398c888289016138b2565b955050602086013567ffffffffffffffff8111156139ad576139ac6137a9565b5b6139b9888289016138d6565b945094505060406139cc8882890161394d565b92505060606139dd8882890161394d565b9150509295509295909350565b6139f38161392c565b82525050565b6000602082019050613a0e60008301846139ea565b92915050565b600081519050919050565b600082825260208201905092915050565b60005b83811015613a4e578082015181840152602081019050613a33565b60008484015250505050565b6000601f19601f8301169050919050565b6000613a7682613a14565b613a808185613a1f565b9350613a90818560208601613a30565b613a9981613a5a565b840191505092915050565b60006020820190508181036000830152613abe8184613a6b565b905092915050565b600060208284031215613adc57613adb6137a4565b5b6000613aea8482850161394d565b91505092915050565b613afc81613889565b82525050565b6000602082019050613b176000830184613af3565b92915050565b60008060408385031215613b3457613b336137a4565b5b6000613b42858286016138b2565b9250506020613b538582860161394d565b9150509250929050565b600080600060608486031215613b7657613b756137a4565b5b6000613b84868287016138b2565b9350506020613b95868287016138b2565b9250506040613ba68682870161394d565b9150509250925092565b600080600080600060808688031215613bcc57613bcb6137a4565b5b6000613bda8882890161394d565b955050602086013567ffffffffffffffff811115613bfb57613bfa6137a9565b5b613c07888289016138d6565b94509450506040613c1a8882890161394d565b9250506060613c2b8882890161394d565b9150509295509295909350565b60008060008060608587031215613c5257613c516137a4565b5b6000613c608782880161394d565b945050602085013567ffffffffffffffff811115613c8157613c806137a9565b5b613c8d878288016138d6565b93509350506040613ca0878288016138b2565b91505092959194509250565b6000608082019050613cc160008301876139ea565b613cce60208301866139ea565b613cdb604083018561383f565b613ce86060830184613af3565b95945050505050565b6000608082019050613d0660008301876139ea565b613d1360208301866139ea565b613d2060408301856139ea565b613d2d60608301846139ea565b95945050505050565b600081519050919050565b600082825260208201905092915050565b6000819050602082019050919050565b613d6b8161392c565b82525050565b6000613d7d8383613d62565b60208301905092915050565b6000602082019050919050565b6000613da182613d36565b613dab8185613d41565b9350613db683613d52565b8060005b83811015613de7578151613dce8882613d71565b9750613dd983613d89565b925050600181019050613dba565b5085935050505092915050565b60006020820190508181036000830152613e0e8184613d96565b905092915050565b600060208284031215613e2c57613e2b6137a4565b5b6000613e3a848285016138b2565b91505092915050565b600060a082019050613e58600083018861383f565b8181036020830152613e6a8187613a6b565b9050613e796040830186613af3565b613e8660608301856139ea565b613e93608083018461383f565b9695505050505050565b613ea681613833565b8114613eb157600080fd5b50565b600081359050613ec381613e9d565b92915050565b60008060408385031215613ee057613edf6137a4565b5b6000613eee858286016138b2565b9250506020613eff85828601613eb4565b9150509250929050565b60008083601f840112613f1f57613f1e6138c7565b5b8235905067ffffffffffffffff811115613f3c57613f3b6138cc565b5b602083019150836020820283011115613f5857613f576138d1565b5b9250929050565b60008083601f840112613f7557613f746138c7565b5b8235905067ffffffffffffffff811115613f9257613f916138cc565b5b602083019150836020820283011115613fae57613fad6138d1565b5b9250929050565b60008060008060008060608789031215613fd257613fd16137a4565b5b600087013567ffffffffffffffff811115613ff057613fef6137a9565b5b613ffc89828a01613f09565b9650965050602087013567ffffffffffffffff81111561401f5761401e6137a9565b5b61402b89828a01613f5f565b9450945050604087013567ffffffffffffffff81111561404e5761404d6137a9565b5b61405a89828a01613f5f565b92509250509295509295509295565b600080fd5b7f4e487b7100000000000000000000000000000000000000000000000000000000600052604160045260246000fd5b6140a682613a5a565b810181811067ffffffffffffffff821117156140c5576140c461406e565b5b80604052505050565b60006140d861379a565b90506140e4828261409d565b919050565b600067ffffffffffffffff8211156141045761410361406e565b5b61410d82613a5a565b9050602081019050919050565b82818337600083830152505050565b600061413c614137846140e9565b6140ce565b90508281526020810184848401111561415857614157614069565b5b61416384828561411a565b509392505050565b600082601f8301126141805761417f6138c7565b5b8135614190848260208601614129565b91505092915050565b600080600080608085870312156141b3576141b26137a4565b5b60006141c1878288016138b2565b94505060206141d2878288016138b2565b93505060406141e38782880161394d565b925050606085013567ffffffffffffffff811115614204576142036137a9565b5b6142108782880161416b565b91505092959194509250565b60008060408385031215614233576142326137a4565b5b6000614241858286016138b2565b9250506020614252858286016138b2565b9150509250929050565b600060a08201905061427160008301886139ea565b61427e60208301876139ea565b61428b60408301866139ea565b818103606083015261429d8185613a6b565b90506142ac608083018461383f565b9695505050505050565b7f5469636b657454797065206e6f74206578697374730000000000000000000000600082015250565b60006142ec601583613a1f565b91506142f7826142b6565b602082019050919050565b6000602082019050818103600083015261431b816142df565b9050919050565b7f4e487b7100000000000000000000000000000000000000000000000000000000600052601160045260246000fd5b600061435c8261392c565b91507fffffffffffffffffffffffffffffffffffffffffffffffffffffffffffffffff820361438e5761438d614322565b5b600182019050919050565b60006060820190506143ae60008301866139ea565b6143bb6020830185613af3565b6143c860408301846139ea565b949350505050565b7f4e487b7100000000000000000000000000000000000000000000000000000000600052602260045260246000fd5b6000600282049050600182168061441757607f821691505b60208210810361442a576144296143d0565b5b50919050565b60006060820190506144456000830186613af3565b61445260208301856139ea565b61445f6040830184613af3565b949350505050565b7f4576656e74206e6f742065786973747300000000000000000000000000000000600082015250565b600061449d601083613a1f565b91506144a882614467565b602082019050919050565b600060208201905081810360008301526144cc81614490565b9050919050565b60008190508160005260206000209050919050565b60006020601f8301049050919050565b600082821b905092915050565b6000600883026145357fffffffffffffffffffffffffffffffffffffffffffffffffffffffffffffffff826144f8565b61453f86836144f8565b95508019841693508086168417925050509392505050565b6000819050919050565b600061457c6145776145728461392c565b614557565b61392c565b9050919050565b6000819050919050565b61459683614561565b6145aa6145a282614583565b848454614505565b825550505050565b600090565b6145bf6145b2565b6145ca81848461458d565b505050565b5b818110156145ee576145e36000826145b7565b6001810190506145d0565b5050565b601f82111561463357614604816144d3565b61460d846144e8565b8101602085101561461c578190505b614630614628856144e8565b8301826145cf565b50505b505050565b600082821c905092915050565b600061465660001984600802614638565b1980831691505092915050565b600061466f8383614645565b9150826002028217905092915050565b61468882613a14565b67ffffffffffffffff8111156146a1576146a061406e565b5b6146ab82546143ff565b6146b68282856145f2565b600060209050601f8311600181146146e957600084156146d7578287015190505b6146e18582614663565b865550614749565b601f1984166146f7866144d3565b60005b8281101561471f578489015182556001820191506020850194506020810190506146fa565b8683101561473c5784890151614738601f891682614645565b8355505b6001600288020188555050505b505050505050565b600061475d8385613a1f565b935061476a83858461411a565b61477383613a5a565b840190509392505050565b60006060820190508181036000830152614799818688614751565b90506147a860208301856139ea565b6147b560408301846139ea565b95945050505050565b7f4576656e74206578697374730000000000000000000000000000000000000000600082015250565b60006147f4600c83613a1f565b91506147ff826147be565b602082019050919050565b60006020820190508181036000830152614823816147e7565b9050919050565b7f496e76616c6964206f7267616e697a6572206164647265737300000000000000600082015250565b6000614860601983613a1f565b915061486b8261482a565b602082019050919050565b6000602082019050818103600083015261488f81614853565b9050919050565b600060208201905081810360008301526148b1818486614751565b90509392505050565b60006148c58261392c565b91506148d08361392c565b92508282039050818111156148e8576148e7614322565b5b92915050565b7f4e487b7100000000000000000000000000000000000000000000000000000000600052603260045260246000fd5b7f496e73756666696369656e7420706c6174666f726d2066656573000000000000600082015250565b6000614953601a83613a1f565b915061495e8261491d565b602082019050919050565b6000602082019050818103600083015261498281614946565b9050919050565b7f416d6f756e74206d7573742062652067726561746572207468616e2030000000600082015250565b60006149bf601d83613a1f565b91506149ca82614989565b602082019050919050565b600060208201905081810360008301526149ee816149b2565b9050919050565b600081905092915050565b50565b6000614a106000836149f5565b9150614a1b82614a00565b600082019050919050565b6000614a3182614a03565b9150819050919050565b7f506c6174666f726d20666565207769746864726177616c206661696c65640000600082015250565b6000614a71601e83613a1f565b9150614a7c82614a3b565b602082019050919050565b60006020820190508181036000830152614aa081614a64565b9050919050565b7f4172726179206d69736d61746368000000000000000000000000000000000000600082015250565b6000614add600e83613a1f565b9150614ae882614aa7565b602082019050919050565b60006020820190508181036000830152614b0c81614ad0565b9050919050565b7f456d707479000000000000000000000000000000000000000000000000000000600082015250565b6000614b49600583613a1f565b9150614b5482614b13565b602082019050919050565b60006020820190508181036000830152614b7881614b3c565b9050919050565b7f536f6c64206f7574000000000000000000000000000000000000000000000000600082015250565b6000614bb5600883613a1f565b9150614bc082614b7f565b602082019050919050565b60006020820190508181036000830152614be481614ba8565b9050919050565b6000614bf68261392c565b9150614c018361392c565b9250828201905080821115614c1957614c18614322565b5b92915050565b7f416c6c207469636b657473206d7573742062652066726f6d2073616d6520657660008201527f656e740000000000000000000000000000000000000000000000000000000000602082015250565b6000614c7b602383613a1f565b9150614c8682614c1f565b604082019050919050565b60006020820190508181036000830152614caa81614c6e565b9050919050565b7f496e636f7272656374207061796d656e7420616d6f756e740000000000000000600082015250565b6000614ce7601883613a1f565b9150614cf282614cb1565b602082019050919050565b60006020820190508181036000830152614d1681614cda565b9050919050565b6000614d288261392c565b9150614d338361392c565b9250828202614d418161392c565b91508282048414831517614d5857614d57614322565b5b5092915050565b7f4e487b7100000000000000000000000000000000000000000000000000000000600052601260045260246000fd5b6000614d998261392c565b9150614da48361392c565b925082614db457614db3614d5f565b5b828204905092915050565b6000614dca8261392c565b915060008203614ddd57614ddc614322565b5b600182039050919050565b600080fd5b600080fd5b600080fd5b60008083356001602003843603038112614e1457614e13614de8565b5b80840192508235915067ffffffffffffffff821115614e3657614e35614ded565b5b602083019250600182023603831315614e5257614e51614df2565b5b509250929050565b7f4552433732313a2055524920717565727920666f72206e6f6e6578697374656e60008201527f7420746f6b656e00000000000000000000000000000000000000000000000000602082015250565b6000614eb6602783613a1f565b9150614ec182614e5a565b604082019050919050565b60006020820190508181036000830152614ee581614ea9565b9050919050565b7f4665652065786365656473206d6178696d756d20616c6c6f7765640000000000600082015250565b6000614f22601b83613a1f565b9150614f2d82614eec565b602082019050919050565b60006020820190508181036000830152614f5181614f15565b9050919050565b6000604082019050614f6d60008301856139ea565b614f7a60208301846139ea565b9392505050565b7f4e6f2066756e647320746f207769746864726177000000000000000000000000600082015250565b6000614fb7601483613a1f565b9150614fc282614f81565b602082019050919050565b60006020820190508181036000830152614fe681614faa565b9050919050565b7f456d657267656e6379207769746864726177616c206661696c65640000000000600082015250565b6000615023601b83613a1f565b915061502e82614fed565b602082019050919050565b6000602082019050818103600083015261505281615016565b9050919050565b7f4576656e7420616c726561647920736574746c65640000000000000000000000600082015250565b600061508f601583613a1f565b915061509a82615059565b602082019050919050565b600060208201905081810360008301526150be81615082565b9050919050565b7f4e6f20726576656e756520746f20736574746c65000000000000000000000000600082015250565b60006150fb601483613a1f565b9150615106826150c5565b602082019050919050565b6000602082019050818103600083015261512a816150ee565b9050919050565b7f5472616e7366657220746f206f7267616e697a6572206661696c656400000000600082015250565b6000615167601c83613a1f565b915061517282615131565b602082019050919050565b600060208201905081810360008301526151968161515a565b9050919050565b600081519050919050565b600082825260208201905092915050565b60006151c48261519d565b6151ce81856151a8565b93506151de818560208601613a30565b6151e781613a5a565b840191505092915050565b60006080820190506152076000830187613af3565b6152146020830186613af3565b61522160408301856139ea565b818103606083015261523381846151b9565b905095945050505050565b60008151905061524d816137da565b92915050565b600060208284031215615269576152686137a4565b5b60006152778482850161523e565b91505092915050565b600081905092915050565b600061529682613a14565b6152a08185615280565b93506152b0818560208601613a30565b80840191505092915050565b60006152c8828561528b565b91506152d4828461528b565b91508190509392505050565b60006040820190506152f56000830185613af3565b61530260208301846139ea565b939250505056fea26469706673582212209a210baa2533bafbade172f4356d4a3ae4e47a05de30cfd079fd0b5b20dc573d64736f6c634300081c0033",
  "linkReferences": {},
  "deployedLinkReferences": {}
}