{
  "_format": "hh-sol-artifact-1",
  "contractName": "EventTicketNFT",
  "sourceName": "contracts/EventTicketNFT.sol",
  "abi": [
    {
      "inputs": [],
      "stateMutability": "nonpayable",
      "type": "constructor"
    },
    {
      "inputs": [
        {
          "internalType": "address",
          "name": "sender",
          "type": "address"
        },
        {
          "internalType": "uint256",
          "name": "tokenId",
          "type": "uint256"
        },
        {
          "internalType": "address",
          "name": "owner",
          "type": "address"
        }
      ],
      "name": "ERC721IncorrectOwner",
      "type": "error"
    },
    {
      "inputs": [
        {
          "internalType": "address",
          "name": "operator",
          "type": "address"
        },
        {
          "internalType": "uint256",
          "name": "tokenId",
          "type": "uint256"
        }
      ],
      "name": "ERC721InsufficientApproval",
      "type": "error"
    },
    {
      "inputs": [
        {
          "internalType": "address",
          "name": "approver",
          "type": "address"
        }
      ],
      "name": "ERC721InvalidApprover",
      "type": "error"
    },
    {
      "inputs": [
        {
          "internalType": "address",
          "name": "operator",
          "type": "address"
        }
      ],
      "name": "ERC721InvalidOperator",
      "type": "error"
    },
    {
      "inputs": [
        {
          "internalType": "address",
          "name": "owner",
          "type": "address"
        }
      ],
      "name": "ERC721InvalidOwner",
      "type": "error"
    },
    {
      "inputs": [
        {
          "internalType": "address",
          "name": "receiver",
          "type": "address"
        }
      ],
      "name": "ERC721InvalidReceiver",
      "type": "error"
    },
    {
      "inputs": [
        {
          "internalType": "address",
          "name": "sender",
          "type": "address"
        }
      ],
      "name": "ERC721InvalidSender",
      "type": "error"
    },
    {
      "inputs": [
        {
          "internalType": "uint256",
          "name": "tokenId",
          "type": "uint256"
        }
      ],
      "name": "ERC721NonexistentToken",
      "type": "error"
    },
    {
      "inputs": [
        {
          "internalType": "address",
          "name": "owner",
          "type": "address"
        }
      ],
      "name": "OwnableInvalidOwner",
      "type": "error"
    },
    {
      "inputs": [
        {
          "internalType": "address",
          "name": "account",
          "type": "address"
        }
      ],
      "name": "OwnableUnauthorizedAccount",
      "type": "error"
    },
    {
      "anonymous": false,
      "inputs": [
        {
          "indexed": true,
          "internalType": "address",
          "name": "owner",
          "type": "address"
        },
        {
          "indexed": true,
          "internalType": "address",
          "name": "approved",
          "type": "address"
        },
        {
          "indexed": true,
          "internalType": "uint256",
          "name": "tokenId",
          "type": "uint256"
        }
      ],
      "name": "Approval",
      "type": "event"
    },
    {
      "anonymous": false,
      "inputs": [
        {
          "indexed": true,
          "internalType": "address",
          "name": "owner",
          "type": "address"
        },
        {
          "indexed": true,
          "internalType": "address",
          "name": "operator",
          "type": "address"
        },
        {
          "indexed": false,
          "internalType": "bool",
          "name": "approved",
          "type": "bool"
        }
      ],
      "name": "ApprovalForAll",
      "type": "event"
    },
    {
      "anonymous": false,
      "inputs": [
        {
          "indexed": false,
          "internalType": "uint256",
          "name": "_fromTokenId",
          "type": "uint256"
        },
        {
          "indexed": false,
          "internalType": "uint256",
          "name": "_toTokenId",
          "type": "uint256"
        }
      ],
      "name": "BatchMetadataUpdate",
      "type": "event"
    },
    {
      "anonymous": false,
      "inputs": [
        {
          "indexed": true,
          "internalType": "uint256",
          "name": "eventId",
          "type": "uint256"
        },
        {
          "indexed": false,
          "internalType": "string",
          "name": "name",
          "type": "string"
        }
      ],
      "name": "EventCreated",
      "type": "event"
    },
    {
      "anonymous": false,
      "inputs": [
        {
          "indexed": false,
          "internalType": "uint256",
          "name": "_tokenId",
          "type": "uint256"
        }
      ],
      "name": "MetadataUpdate",
      "type": "event"
    },
    {
      "anonymous": false,
      "inputs": [
        {
          "indexed": true,
          "internalType": "address",
          "name": "previousOwner",
          "type": "address"
        },
        {
          "indexed": true,
          "internalType": "address",
          "name": "newOwner",
          "type": "address"
        }
      ],
      "name": "OwnershipTransferred",
      "type": "event"
    },
    {
      "anonymous": false,
      "inputs": [
        {
          "indexed": true,
          "internalType": "uint256",
          "name": "tokenId",
          "type": "uint256"
        },
        {
          "indexed": true,
          "internalType": "uint256",
          "name": "eventId",
          "type": "uint256"
        },
        {
          "indexed": true,
          "internalType": "uint256",
          "name": "ticketTypeId",
          "type": "uint256"
        },
        {
          "indexed": false,
          "internalType": "uint256",
          "name": "sessionId",
          "type": "uint256"
        },
        {
          "indexed": false,
          "internalType": "address",
          "name": "owner",
          "type": "address"
        },
        {
          "indexed": false,
          "internalType": "uint256",
          "name": "price",
          "type": "uint256"
        }
      ],
      "name": "TicketMinted",
      "type": "event"
    },
    {
      "anonymous": false,
      "inputs": [
        {
          "indexed": true,
          "internalType": "uint256",
          "name": "ticketTypeId",
          "type": "uint256"
        },
        {
          "indexed": true,
          "internalType": "uint256",
          "name": "eventId",
          "type": "uint256"
        },
        {
          "indexed": false,
          "internalType": "string",
          "name": "name",
          "type": "string"
        },
        {
          "indexed": false,
          "internalType": "uint256",
          "name": "price",
          "type": "uint256"
        },
        {
          "indexed": false,
          "internalType": "uint256",
          "name": "totalSupply",
          "type": "uint256"
        }
      ],
      "name": "TicketTypeCreated",
      "type": "event"
    },
    {
      "anonymous": false,
      "inputs": [
        {
          "indexed": true,
          "internalType": "address",
          "name": "from",
          "type": "address"
        },
        {
          "indexed": true,
          "internalType": "address",
          "name": "to",
          "type": "address"
        },
        {
          "indexed": true,
          "internalType": "uint256",
          "name": "tokenId",
          "type": "uint256"
        }
      ],
      "name": "Transfer",
      "type": "event"
    },
    {
      "inputs": [
        {
          "internalType": "address",
          "name": "to",
          "type": "address"
        },
        {
          "internalType": "uint256",
          "name": "tokenId",
          "type": "uint256"
        }
      ],
      "name": "approve",
      "outputs": [],
      "stateMutability": "nonpayable",
      "type": "function"
    },
    {
      "inputs": [
        {
          "internalType": "address",
          "name": "owner",
          "type": "address"
        }
      ],
      "name": "balanceOf",
      "outputs": [
        {
          "internalType": "uint256",
          "name": "",
          "type": "uint256"
        }
      ],
      "stateMutability": "view",
      "type": "function"
    },
    {
      "inputs": [
        {
          "internalType": "address",
          "name": "to",
          "type": "address"
        },
        {
          "internalType": "string[]",
          "name": "uris",
          "type": "string[]"
        },
        {
          "internalType": "uint256[]",
          "name": "ticketTypeIds",
          "type": "uint256[]"
        },
        {
          "internalType": "uint256[]",
          "name": "sessionIds",
          "type": "uint256[]"
        }
      ],
      "name": "batchMint",
      "outputs": [],
      "stateMutability": "nonpayable",
      "type": "function"
    },
    {
      "inputs": [
        {
          "internalType": "string[]",
          "name": "uris",
          "type": "string[]"
        },
        {
          "internalType": "uint256[]",
          "name": "ticketTypeIds",
          "type": "uint256[]"
        },
        {
          "internalType": "uint256[]",
          "name": "sessionIds",
          "type": "uint256[]"
        }
      ],
      "name": "buyTickets",
      "outputs": [],
      "stateMutability": "payable",
      "type": "function"
    },
    {
      "inputs": [
        {
          "internalType": "uint256",
          "name": "eventId",
          "type": "uint256"
        },
        {
          "internalType": "string",
          "name": "eventName",
          "type": "string"
        }
      ],
      "name": "createEvent",
      "outputs": [],
      "stateMutability": "nonpayable",
      "type": "function"
    },
    {
      "inputs": [
        {
          "internalType": "uint256",
          "name": "eventId",
          "type": "uint256"
        },
        {
          "internalType": "string",
          "name": "typeName",
          "type": "string"
        },
        {
          "internalType": "uint256",
          "name": "priceWei",
          "type": "uint256"
        },
        {
          "internalType": "uint256",
          "name": "totalSupply",
          "type": "uint256"
        }
      ],
      "name": "createTicketType",
      "outputs": [
        {
          "internalType": "uint256",
          "name": "ticketTypeId",
          "type": "uint256"
        }
      ],
      "stateMutability": "nonpayable",
      "type": "function"
    },
    {
      "inputs": [
        {
          "internalType": "uint256",
          "name": "",
          "type": "uint256"
        }
      ],
      "name": "eventInfo",
      "outputs": [
        {
          "internalType": "bool",
          "name": "exists",
          "type": "bool"
        },
        {
          "internalType": "string",
          "name": "name",
          "type": "string"
        }
      ],
      "stateMutability": "view",
      "type": "function"
    },
    {
      "inputs": [
        {
          "internalType": "uint256",
          "name": "tokenId",
          "type": "uint256"
        }
      ],
      "name": "getApproved",
      "outputs": [
        {
          "internalType": "address",
          "name": "",
          "type": "address"
        }
      ],
      "stateMutability": "view",
      "type": "function"
    },
    {
      "inputs": [
        {
          "internalType": "uint256",
          "name": "eventId",
          "type": "uint256"
        }
      ],
      "name": "getTicketTypesByEvent",
      "outputs": [
        {
          "internalType": "uint256[]",
          "name": "",
          "type": "uint256[]"
        }
      ],
      "stateMutability": "view",
      "type": "function"
    },
    {
      "inputs": [
        {
          "internalType": "address",
          "name": "owner",
          "type": "address"
        },
        {
          "internalType": "address",
          "name": "operator",
          "type": "address"
        }
      ],
      "name": "isApprovedForAll",
      "outputs": [
        {
          "internalType": "bool",
          "name": "",
          "type": "bool"
        }
      ],
      "stateMutability": "view",
      "type": "function"
    },
    {
      "inputs": [],
      "name": "name",
      "outputs": [
        {
          "internalType": "string",
          "name": "",
          "type": "string"
        }
      ],
      "stateMutability": "view",
      "type": "function"
    },
    {
      "inputs": [],
      "name": "nextTicketTypeId",
      "outputs": [
        {
          "internalType": "uint256",
          "name": "",
          "type": "uint256"
        }
      ],
      "stateMutability": "view",
      "type": "function"
    },
    {
      "inputs": [],
      "name": "nextTokenId",
      "outputs": [
        {
          "internalType": "uint256",
          "name": "",
          "type": "uint256"
        }
      ],
      "stateMutability": "view",
      "type": "function"
    },
    {
      "inputs": [],
      "name": "owner",
      "outputs": [
        {
          "internalType": "address",
          "name": "",
          "type": "address"
        }
      ],
      "stateMutability": "view",
      "type": "function"
    },
    {
      "inputs": [
        {
          "internalType": "uint256",
          "name": "tokenId",
          "type": "uint256"
        }
      ],
      "name": "ownerOf",
      "outputs": [
        {
          "internalType": "address",
          "name": "",
          "type": "address"
        }
      ],
      "stateMutability": "view",
      "type": "function"
    },
    {
      "inputs": [],
      "name": "renounceOwnership",
      "outputs": [],
      "stateMutability": "nonpayable",
      "type": "function"
    },
    {
      "inputs": [
        {
          "internalType": "address",
          "name": "from",
          "type": "address"
        },
        {
          "internalType": "address",
          "name": "to",
          "type": "address"
        },
        {
          "internalType": "uint256",
          "name": "tokenId",
          "type": "uint256"
        }
      ],
      "name": "safeTransferFrom",
      "outputs": [],
      "stateMutability": "nonpayable",
      "type": "function"
    },
    {
      "inputs": [
        {
          "internalType": "address",
          "name": "from",
          "type": "address"
        },
        {
          "internalType": "address",
          "name": "to",
          "type": "address"
        },
        {
          "internalType": "uint256",
          "name": "tokenId",
          "type": "uint256"
        },
        {
          "internalType": "bytes",
          "name": "data",
          "type": "bytes"
        }
      ],
      "name": "safeTransferFrom",
      "outputs": [],
      "stateMutability": "nonpayable",
      "type": "function"
    },
    {
      "inputs": [
        {
          "internalType": "address",
          "name": "operator",
          "type": "address"
        },
        {
          "internalType": "bool",
          "name": "approved",
          "type": "bool"
        }
      ],
      "name": "setApprovalForAll",
      "outputs": [],
      "stateMutability": "nonpayable",
      "type": "function"
    },
    {
      "inputs": [
        {
          "internalType": "bytes4",
          "name": "interfaceId",
          "type": "bytes4"
        }
      ],
      "name": "supportsInterface",
      "outputs": [
        {
          "internalType": "bool",
          "name": "",
          "type": "bool"
        }
      ],
      "stateMutability": "view",
      "type": "function"
    },
    {
      "inputs": [],
      "name": "symbol",
      "outputs": [
        {
          "internalType": "string",
          "name": "",
          "type": "string"
        }
      ],
      "stateMutability": "view",
      "type": "function"
    },
    {
      "inputs": [
        {
          "internalType": "uint256",
          "name": "",
          "type": "uint256"
        }
      ],
      "name": "ticketTypeInfo",
      "outputs": [
        {
          "internalType": "uint256",
          "name": "eventId",
          "type": "uint256"
        },
        {
          "internalType": "uint256",
          "name": "price",
          "type": "uint256"
        },
        {
          "internalType": "uint256",
          "name": "remaining",
          "type": "uint256"
        },
        {
          "internalType": "string",
          "name": "name",
          "type": "string"
        },
        {
          "internalType": "bool",
          "name": "exists",
          "type": "bool"
        }
      ],
      "stateMutability": "view",
      "type": "function"
    },
    {
      "inputs": [
        {
          "internalType": "uint256",
          "name": "",
          "type": "uint256"
        }
      ],
      "name": "tickets",
      "outputs": [
        {
          "internalType": "uint256",
          "name": "eventId",
          "type": "uint256"
        },
        {
          "internalType": "uint256",
          "name": "ticketTypeId",
          "type": "uint256"
        },
        {
          "internalType": "uint256",
          "name": "sessionId",
          "type": "uint256"
        },
        {
          "internalType": "uint256",
          "name": "price",
          "type": "uint256"
        }
      ],
      "stateMutability": "view",
      "type": "function"
    },
    {
      "inputs": [
        {
          "internalType": "uint256",
          "name": "tokenId",
          "type": "uint256"
        }
      ],
      "name": "tokenURI",
      "outputs": [
        {
          "internalType": "string",
          "name": "",
          "type": "string"
        }
      ],
      "stateMutability": "view",
      "type": "function"
    },
    {
      "inputs": [
        {
          "internalType": "address",
          "name": "from",
          "type": "address"
        },
        {
          "internalType": "address",
          "name": "to",
          "type": "address"
        },
        {
          "internalType": "uint256",
          "name": "tokenId",
          "type": "uint256"
        }
      ],
      "name": "transferFrom",
      "outputs": [],
      "stateMutability": "nonpayable",
      "type": "function"
    },
    {
      "inputs": [
        {
          "internalType": "address",
          "name": "newOwner",
          "type": "address"
        }
      ],
      "name": "transferOwnership",
      "outputs": [],
      "stateMutability": "nonpayable",
      "type": "function"
    }
  ],
  "bytecode": "0x60806040526001600b556001600c5534801561001a57600080fd5b50336040518060400160405280600e81526020017f4576656e745469636b65744e46540000000000000000000000000000000000008152506040518060400160405280600581526020017f45544e465400000000000000000000000000000000000000000000000000000081525081600090816100979190610447565b5080600190816100a79190610447565b505050600073ffffffffffffffffffffffffffffffffffffffff168173ffffffffffffffffffffffffffffffffffffffff160361011c5760006040517f1e4fbdf7000000000000000000000000000000000000000000000000000000008152600401610113919061055a565b60405180910390fd5b61012b8161013160201b60201c565b50610575565b6000600760009054906101000a900473ffffffffffffffffffffffffffffffffffffffff16905081600760006101000a81548173ffffffffffffffffffffffffffffffffffffffff021916908373ffffffffffffffffffffffffffffffffffffffff1602179055508173ffffffffffffffffffffffffffffffffffffffff168173ffffffffffffffffffffffffffffffffffffffff167f8be0079c531659141344cd1fd0a4f28419497f9722a3daafe3b4186f6b6457e060405160405180910390a35050565b600081519050919050565b7f4e487b7100000000000000000000000000000000000000000000000000000000600052604160045260246000fd5b7f4e487b7100000000000000000000000000000000000000000000000000000000600052602260045260246000fd5b6000600282049050600182168061027857607f821691505b60208210810361028b5761028a610231565b5b50919050565b60008190508160005260206000209050919050565b60006020601f8301049050919050565b600082821b905092915050565b6000600883026102f37fffffffffffffffffffffffffffffffffffffffffffffffffffffffffffffffff826102b6565b6102fd86836102b6565b95508019841693508086168417925050509392505050565b6000819050919050565b6000819050919050565b600061034461033f61033a84610315565b61031f565b610315565b9050919050565b6000819050919050565b61035e83610329565b61037261036a8261034b565b8484546102c3565b825550505050565b600090565b61038761037a565b610392818484610355565b505050565b5b818110156103b6576103ab60008261037f565b600181019050610398565b5050565b601f8211156103fb576103cc81610291565b6103d5846102a6565b810160208510156103e4578190505b6103f86103f0856102a6565b830182610397565b50505b505050565b600082821c905092915050565b600061041e60001984600802610400565b1980831691505092915050565b6000610437838361040d565b9150826002028217905092915050565b610450826101f7565b67ffffffffffffffff81111561046957610468610202565b5b6104738254610260565b61047e8282856103ba565b600060209050601f8311600181146104b1576000841561049f578287015190505b6104a9858261042b565b865550610511565b601f1984166104bf86610291565b60005b828110156104e7578489015182556001820191506020850194506020810190506104c2565b868310156105045784890151610500601f89168261040d565b8355505b6001600288020188555050505b505050505050565b600073ffffffffffffffffffffffffffffffffffffffff82169050919050565b600061054482610519565b9050919050565b61055481610539565b82525050565b600060208201905061056f600083018461054b565b92915050565b613fa1806105846000396000f3fe6080604052600436106101815760003560e01c8063715018a6116100d1578063a22cb4651161008a578063c87b56dd11610064578063c87b56dd1461059b578063e985e9c5146105d8578063f2fde38b14610615578063f596a0cf1461063e57610181565b8063a22cb4651461052d578063b217009b14610556578063b88d4fde1461057257610181565b8063715018a61461042e57806375794a3c146104455780638da5cb5b1461047057806395d89b411461049b5780639d0c025b146104c6578063a1d255e11461050457610181565b806341dbe4721161013e57806361e5fb3d1161011857806361e5fb3d1461034c5780636352211e146103895780636520f171146103c657806370a08231146103f157610181565b806341dbe472146102ba57806342842e0e146102e357806350b447121461030c57610181565b806301ffc9a71461018657806306fdde03146101c3578063081812fc146101ee578063095ea7b31461022b57806323b872dd146102545780632603aedc1461027d575b600080fd5b34801561019257600080fd5b506101ad60048036038101906101a89190612ae8565b61067f565b6040516101ba9190612b30565b60405180910390f35b3480156101cf57600080fd5b506101d86106e0565b6040516101e59190612bdb565b60405180910390f35b3480156101fa57600080fd5b5061021560048036038101906102109190612c33565b610772565b6040516102229190612ca1565b60405180910390f35b34801561023757600080fd5b50610252600480360381019061024d9190612ce8565b61078e565b005b34801561026057600080fd5b5061027b60048036038101906102769190612d28565b6107a4565b005b34801561028957600080fd5b506102a4600480360381019061029f9190612de0565b6108a6565b6040516102b19190612e77565b60405180910390f35b3480156102c657600080fd5b506102e160048036038101906102dc9190612f3e565b610a4c565b005b3480156102ef57600080fd5b5061030a60048036038101906103059190612d28565b610cfa565b005b34801561031857600080fd5b50610333600480360381019061032e9190612c33565b610d1a565b6040516103439493929190613007565b60405180910390f35b34801561035857600080fd5b50610373600480360381019061036e9190612c33565b610d4a565b604051610380919061310a565b60405180910390f35b34801561039557600080fd5b506103b060048036038101906103ab9190612c33565b610eeb565b6040516103bd9190612ca1565b60405180910390f35b3480156103d257600080fd5b506103db610efd565b6040516103e89190612e77565b60405180910390f35b3480156103fd57600080fd5b506104186004803603810190610413919061312c565b610f03565b6040516104259190612e77565b60405180910390f35b34801561043a57600080fd5b50610443610fbd565b005b34801561045157600080fd5b5061045a610fd1565b6040516104679190612e77565b60405180910390f35b34801561047c57600080fd5b50610485610fd7565b6040516104929190612ca1565b60405180910390f35b3480156104a757600080fd5b506104b0611001565b6040516104bd9190612bdb565b60405180910390f35b3480156104d257600080fd5b506104ed60048036038101906104e89190612c33565b611093565b6040516104fb929190613159565b60405180910390f35b34801561051057600080fd5b5061052b60048036038101906105269190613189565b61114c565b005b34801561053957600080fd5b50610554600480360381019061054f9190613215565b61129f565b005b610570600480360381019061056b9190613255565b6112b5565b005b34801561057e57600080fd5b5061059960048036038101906105949190613439565b6116ee565b005b3480156105a757600080fd5b506105c260048036038101906105bd9190612c33565b611713565b6040516105cf9190612bdb565b60405180910390f35b3480156105e457600080fd5b506105ff60048036038101906105fa91906134bc565b611826565b60405161060c9190612b30565b60405180910390f35b34801561062157600080fd5b5061063c6004803603810190610637919061312c565b6118ba565b005b34801561064a57600080fd5b5061066560048036038101906106609190612c33565b611940565b6040516106769594939291906134fc565b60405180910390f35b6000634906490660e01b7bffffffffffffffffffffffffffffffffffffffffffffffffffffffff1916827bffffffffffffffffffffffffffffffffffffffffffffffffffffffff191614806106d957506106d882611a0b565b5b9050919050565b6060600080546106ef90613585565b80601f016020809104026020016040519081016040528092919081815260200182805461071b90613585565b80156107685780601f1061073d57610100808354040283529160200191610768565b820191906000526020600020905b81548152906001019060200180831161074b57829003601f168201915b5050505050905090565b600061077d82611aed565b5061078782611b75565b9050919050565b6107a0828261079b611bb2565b611bba565b5050565b600073ffffffffffffffffffffffffffffffffffffffff168273ffffffffffffffffffffffffffffffffffffffff16036108165760006040517f64a0ae9200000000000000000000000000000000000000000000000000000000815260040161080d9190612ca1565b60405180910390fd5b600061082a8383610825611bb2565b611bcc565b90508373ffffffffffffffffffffffffffffffffffffffff168173ffffffffffffffffffffffffffffffffffffffff16146108a0578382826040517f64283d7b000000000000000000000000000000000000000000000000000000008152600401610897939291906135b6565b60405180910390fd5b50505050565b60006108b0611de6565b6008600087815260200190815260200160002060000160009054906101000a900460ff16610913576040517f08c379a000000000000000000000000000000000000000000000000000000000815260040161090a90613639565b60405180910390fd5b600c600081548092919061092690613688565b9190505590506040518060a0016040528087815260200184815260200183815260200186868080601f016020809104026020016040519081016040528093929190818152602001838380828437600081840152601f19601f820116905080830192505050505050508152602001600115158152506009600083815260200190815260200160002060008201518160000155602082015181600101556040820151816002015560608201518160030190816109e0919061387c565b5060808201518160040160006101000a81548160ff02191690831515021790555090505085817fabf330a08fa3934846cf859dcbe8bccd2c598df64758145917e967b88e80b11b87878787604051610a3b949392919061397b565b60405180910390a395945050505050565b610a54611de6565b60008686905090508484905081148015610a7057508282905081145b610aaf576040517f08c379a0000000000000000000000000000000000000000000000000000000008152600401610aa690613a07565b60405180910390fd5b60005b81811015610cef57600060096000888885818110610ad357610ad2613a27565b5b90506020020135815260200190815260200160002090508060040160009054906101000a900460ff16610b3b576040517f08c379a0000000000000000000000000000000000000000000000000000000008152600401610b3290613aa2565b60405180910390fd5b6000600b6000815480929190610b5090613688565b919050559050610b608b82611e6d565b610bd1818b8b86818110610b7757610b76613a27565b5b9050602002810190610b899190613ad1565b8080601f016020809104026020016040519081016040528093929190818152602001838380828437600081840152601f19601f82011690508083019250505050505050611e8b565b604051806080016040528083600001548152602001898986818110610bf957610bf8613a27565b5b905060200201358152602001878786818110610c1857610c17613a27565b5b9050602002013581526020018360010154815250600a600083815260200190815260200160002060008201518160000155602082015181600101556040820151816002015560608201518160030155905050878784818110610c7d57610c7c613a27565b5b905060200201358260000154827f4372a18a6361018711de2de6eaa5dcacd3fc225967097f362020935080f41b09898988818110610cbe57610cbd613a27565b5b905060200201358f8760010154604051610cda93929190613b34565b60405180910390a45050806001019050610ab2565b505050505050505050565b610d15838383604051806020016040528060008152506116ee565b505050565b600a6020528060005260406000206000915090508060000154908060010154908060020154908060030154905084565b606060006001600c54610d5d9190613b6b565b67ffffffffffffffff811115610d7657610d7561330e565b5b604051908082528060200260200182016040528015610da45781602001602082028036833780820191505090505b509050600080600190505b600c54811015610e3f57846009600083815260200190815260200160002060000154148015610dfe57506009600082815260200190815260200160002060040160009054906101000a900460ff165b15610e325780838381518110610e1757610e16613a27565b5b6020026020010181815250508180610e2e90613688565b9250505b8080600101915050610daf565b5060008167ffffffffffffffff811115610e5c57610e5b61330e565b5b604051908082528060200260200182016040528015610e8a5781602001602082028036833780820191505090505b50905060005b82811015610edf57838181518110610eab57610eaa613a27565b5b6020026020010151828281518110610ec657610ec5613a27565b5b6020026020010181815250508080600101915050610e90565b50809350505050919050565b6000610ef682611aed565b9050919050565b600c5481565b60008073ffffffffffffffffffffffffffffffffffffffff168273ffffffffffffffffffffffffffffffffffffffff1603610f765760006040517f89c62b64000000000000000000000000000000000000000000000000000000008152600401610f6d9190612ca1565b60405180910390fd5b600360008373ffffffffffffffffffffffffffffffffffffffff1673ffffffffffffffffffffffffffffffffffffffff168152602001908152602001600020549050919050565b610fc5611de6565b610fcf6000611ee7565b565b600b5481565b6000600760009054906101000a900473ffffffffffffffffffffffffffffffffffffffff16905090565b60606001805461101090613585565b80601f016020809104026020016040519081016040528092919081815260200182805461103c90613585565b80156110895780601f1061105e57610100808354040283529160200191611089565b820191906000526020600020905b81548152906001019060200180831161106c57829003601f168201915b5050505050905090565b60086020528060005260406000206000915090508060000160009054906101000a900460ff16908060010180546110c990613585565b80601f01602080910402602001604051908101604052809291908181526020018280546110f590613585565b80156111425780601f1061111757610100808354040283529160200191611142565b820191906000526020600020905b81548152906001019060200180831161112557829003601f168201915b5050505050905082565b611154611de6565b6008600084815260200190815260200160002060000160009054906101000a900460ff16156111b8576040517f08c379a00000000000000000000000000000000000000000000000000000000081526004016111af90613beb565b60405180910390fd5b604051806040016040528060011515815260200183838080601f016020809104026020016040519081016040528093929190818152602001838380828437600081840152601f19601f820116905080830192505050505050508152506008600085815260200190815260200160002060008201518160000160006101000a81548160ff021916908315150217905550602082015181600101908161125c919061387c565b50905050827f9ce3d6db707bca4ba0eabed8fba1e2c013a1c0bc1132a764170a7854d198c73d8383604051611292929190613c0b565b60405180910390a2505050565b6112b16112aa611bb2565b8383611fad565b5050565b600086869050905084849050811480156112d157508282905081145b611310576040517f08c379a000000000000000000000000000000000000000000000000000000000815260040161130790613a07565b60405180910390fd5b60008111611353576040517f08c379a000000000000000000000000000000000000000000000000000000000815260040161134a90613c7b565b60405180910390fd5b600080600090505b828110156114495760006009600089898581811061137c5761137b613a27565b5b90506020020135815260200190815260200160002090508060040160009054906101000a900460ff166113e4576040517f08c379a00000000000000000000000000000000000000000000000000000000081526004016113db90613aa2565b60405180910390fd5b600081600201541161142b576040517f08c379a000000000000000000000000000000000000000000000000000000000815260040161142290613ce7565b60405180910390fd5b80600101548361143b9190613d07565b92505080600101905061135b565b5080341461148c576040517f08c379a000000000000000000000000000000000000000000000000000000000815260040161148390613d87565b60405180910390fd5b60005b82811015611695576000600960008989858181106114b0576114af613a27565b5b90506020020135815260200190815260200160002090508060020160008154809291906114dc90613da7565b91905055506000600b60008154809291906114f690613688565b9190505590506115063382611e6d565b611577818c8c8681811061151d5761151c613a27565b5b905060200281019061152f9190613ad1565b8080601f016020809104026020016040519081016040528093929190818152602001838380828437600081840152601f19601f82011690508083019250505050505050611e8b565b6040518060800160405280836000015481526020018a8a8681811061159f5761159e613a27565b5b9050602002013581526020018888868181106115be576115bd613a27565b5b9050602002013581526020018360010154815250600a60008381526020019081526020016000206000820151816000015560208201518160010155604082015181600201556060820151816003015590505088888481811061162357611622613a27565b5b905060200201358260000154827f4372a18a6361018711de2de6eaa5dcacd3fc225967097f362020935080f41b098a8a8881811061166457611663613a27565b5b9050602002013533876001015460405161168093929190613b34565b60405180910390a4505080600101905061148f565b5061169e610fd7565b73ffffffffffffffffffffffffffffffffffffffff166108fc349081150290604051600060405180830381858888f193505050501580156116e3573d6000803e3d6000fd5b505050505050505050565b6116f98484846107a4565b61170d611704611bb2565b8585858561211c565b50505050565b606061171e82611aed565b50600060066000848152602001908152602001600020805461173f90613585565b80601f016020809104026020016040519081016040528092919081815260200182805461176b90613585565b80156117b85780601f1061178d576101008083540402835291602001916117b8565b820191906000526020600020905b81548152906001019060200180831161179b57829003601f168201915b5050505050905060006117c96122cd565b905060008151036117de578192505050611821565b6000825111156118135780826040516020016117fb929190613e0c565b60405160208183030381529060405292505050611821565b61181c846122e4565b925050505b919050565b6000600560008473ffffffffffffffffffffffffffffffffffffffff1673ffffffffffffffffffffffffffffffffffffffff16815260200190815260200160002060008373ffffffffffffffffffffffffffffffffffffffff1673ffffffffffffffffffffffffffffffffffffffff16815260200190815260200160002060009054906101000a900460ff16905092915050565b6118c2611de6565b600073ffffffffffffffffffffffffffffffffffffffff168173ffffffffffffffffffffffffffffffffffffffff16036119345760006040517f1e4fbdf700000000000000000000000000000000000000000000000000000000815260040161192b9190612ca1565b60405180910390fd5b61193d81611ee7565b50565b600960205280600052604060002060009150905080600001549080600101549080600201549080600301805461197590613585565b80601f01602080910402602001604051908101604052809291908181526020018280546119a190613585565b80156119ee5780601f106119c3576101008083540402835291602001916119ee565b820191906000526020600020905b8154815290600101906020018083116119d157829003601f168201915b5050505050908060040160009054906101000a900460ff16905085565b60007f80ac58cd000000000000000000000000000000000000000000000000000000007bffffffffffffffffffffffffffffffffffffffffffffffffffffffff1916827bffffffffffffffffffffffffffffffffffffffffffffffffffffffff19161480611ad657507f5b5e139f000000000000000000000000000000000000000000000000000000007bffffffffffffffffffffffffffffffffffffffffffffffffffffffff1916827bffffffffffffffffffffffffffffffffffffffffffffffffffffffff1916145b80611ae65750611ae58261234d565b5b9050919050565b600080611af9836123b7565b9050600073ffffffffffffffffffffffffffffffffffffffff168173ffffffffffffffffffffffffffffffffffffffff1603611b6c57826040517f7e273289000000000000000000000000000000000000000000000000000000008152600401611b639190612e77565b60405180910390fd5b80915050919050565b60006004600083815260200190815260200160002060009054906101000a900473ffffffffffffffffffffffffffffffffffffffff169050919050565b600033905090565b611bc783838360016123f4565b505050565b600080611bd8846123b7565b9050600073ffffffffffffffffffffffffffffffffffffffff168373ffffffffffffffffffffffffffffffffffffffff1614611c1a57611c198184866125b9565b5b600073ffffffffffffffffffffffffffffffffffffffff168173ffffffffffffffffffffffffffffffffffffffff1614611cab57611c5c6000856000806123f4565b6001600360008373ffffffffffffffffffffffffffffffffffffffff1673ffffffffffffffffffffffffffffffffffffffff168152602001908152602001600020600082825403925050819055505b600073ffffffffffffffffffffffffffffffffffffffff168573ffffffffffffffffffffffffffffffffffffffff1614611d2e576001600360008773ffffffffffffffffffffffffffffffffffffffff1673ffffffffffffffffffffffffffffffffffffffff168152602001908152602001600020600082825401925050819055505b846002600086815260200190815260200160002060006101000a81548173ffffffffffffffffffffffffffffffffffffffff021916908373ffffffffffffffffffffffffffffffffffffffff160217905550838573ffffffffffffffffffffffffffffffffffffffff168273ffffffffffffffffffffffffffffffffffffffff167fddf252ad1be2c89b69c2b068fc378daa952ba7f163c4a11628f55a4df523b3ef60405160405180910390a4809150509392505050565b611dee611bb2565b73ffffffffffffffffffffffffffffffffffffffff16611e0c610fd7565b73ffffffffffffffffffffffffffffffffffffffff1614611e6b57611e2f611bb2565b6040517f118cdaa7000000000000000000000000000000000000000000000000000000008152600401611e629190612ca1565b60405180910390fd5b565b611e8782826040518060200160405280600081525061267d565b5050565b80600660008481526020019081526020016000209081611eab919061387c565b507ff8e1a15aba9398e019f0b49df1a4fde98ee17ae345cb5f6b5e2c27f5033e8ce782604051611edb9190612e77565b60405180910390a15050565b6000600760009054906101000a900473ffffffffffffffffffffffffffffffffffffffff16905081600760006101000a81548173ffffffffffffffffffffffffffffffffffffffff021916908373ffffffffffffffffffffffffffffffffffffffff1602179055508173ffffffffffffffffffffffffffffffffffffffff168173ffffffffffffffffffffffffffffffffffffffff167f8be0079c531659141344cd1fd0a4f28419497f9722a3daafe3b4186f6b6457e060405160405180910390a35050565b600073ffffffffffffffffffffffffffffffffffffffff168273ffffffffffffffffffffffffffffffffffffffff160361201e57816040517f5b08ba180000000000000000000000000000000000000000000000000000000081526004016120159190612ca1565b60405180910390fd5b80600560008573ffffffffffffffffffffffffffffffffffffffff1673ffffffffffffffffffffffffffffffffffffffff16815260200190815260200160002060008473ffffffffffffffffffffffffffffffffffffffff1673ffffffffffffffffffffffffffffffffffffffff16815260200190815260200160002060006101000a81548160ff0219169083151502179055508173ffffffffffffffffffffffffffffffffffffffff168373ffffffffffffffffffffffffffffffffffffffff167f17307eab39ab6107e8899845ad3d59bd9653f200f220920489ca2b5937696c318360405161210f9190612b30565b60405180910390a3505050565b60008373ffffffffffffffffffffffffffffffffffffffff163b11156122c6578273ffffffffffffffffffffffffffffffffffffffff1663150b7a02868685856040518563ffffffff1660e01b815260040161217b9493929190613e85565b6020604051808303816000875af19250505080156121b757506040513d601f19601f820116820180604052508101906121b49190613ee6565b60015b61223b573d80600081146121e7576040519150601f19603f3d011682016040523d82523d6000602084013e6121ec565b606091505b50600081510361223357836040517f64a0ae9200000000000000000000000000000000000000000000000000000000815260040161222a9190612ca1565b60405180910390fd5b805181602001fd5b63150b7a0260e01b7bffffffffffffffffffffffffffffffffffffffffffffffffffffffff1916817bffffffffffffffffffffffffffffffffffffffffffffffffffffffff1916146122c457836040517f64a0ae920000000000000000000000000000000000000000000000000000000081526004016122bb9190612ca1565b60405180910390fd5b505b5050505050565b606060405180602001604052806000815250905090565b60606122ef82611aed565b5060006122fa6122cd565b9050600081511161231a5760405180602001604052806000815250612345565b80612324846126a1565b604051602001612335929190613e0c565b6040516020818303038152906040525b915050919050565b60007f01ffc9a7000000000000000000000000000000000000000000000000000000007bffffffffffffffffffffffffffffffffffffffffffffffffffffffff1916827bffffffffffffffffffffffffffffffffffffffffffffffffffffffff1916149050919050565b60006002600083815260200190815260200160002060009054906101000a900473ffffffffffffffffffffffffffffffffffffffff169050919050565b808061242d5750600073ffffffffffffffffffffffffffffffffffffffff168273ffffffffffffffffffffffffffffffffffffffff1614155b1561256157600061243d84611aed565b9050600073ffffffffffffffffffffffffffffffffffffffff168373ffffffffffffffffffffffffffffffffffffffff16141580156124a857508273ffffffffffffffffffffffffffffffffffffffff168173ffffffffffffffffffffffffffffffffffffffff1614155b80156124bb57506124b98184611826565b155b156124fd57826040517fa9fbf51f0000000000000000000000000000000000000000000000000000000081526004016124f49190612ca1565b60405180910390fd5b811561255f57838573ffffffffffffffffffffffffffffffffffffffff168273ffffffffffffffffffffffffffffffffffffffff167f8c5be1e5ebec7d5bd14f71427d1e84f3dd0314c0f7b2291e5b200ac8c7c3b92560405160405180910390a45b505b836004600085815260200190815260200160002060006101000a81548173ffffffffffffffffffffffffffffffffffffffff021916908373ffffffffffffffffffffffffffffffffffffffff16021790555050505050565b6125c483838361276f565b61267857600073ffffffffffffffffffffffffffffffffffffffff168373ffffffffffffffffffffffffffffffffffffffff160361263957806040517f7e2732890000000000000000000000000000000000000000000000000000000081526004016126309190612e77565b60405180910390fd5b81816040517f177e802f00000000000000000000000000000000000000000000000000000000815260040161266f929190613f13565b60405180910390fd5b505050565b6126878383612830565b61269c612692611bb2565b600085858561211c565b505050565b6060600060016126b084612929565b01905060008167ffffffffffffffff8111156126cf576126ce61330e565b5b6040519080825280601f01601f1916602001820160405280156127015781602001600182028036833780820191505090505b509050600082602001820190505b600115612764578080600190039150507f3031323334353637383961626364656600000000000000000000000000000000600a86061a8153600a858161275857612757613f3c565b5b0494506000850361270f575b819350505050919050565b60008073ffffffffffffffffffffffffffffffffffffffff168373ffffffffffffffffffffffffffffffffffffffff161415801561282757508273ffffffffffffffffffffffffffffffffffffffff168473ffffffffffffffffffffffffffffffffffffffff1614806127e857506127e78484611826565b5b8061282657508273ffffffffffffffffffffffffffffffffffffffff1661280e83611b75565b73ffffffffffffffffffffffffffffffffffffffff16145b5b90509392505050565b600073ffffffffffffffffffffffffffffffffffffffff168273ffffffffffffffffffffffffffffffffffffffff16036128a25760006040517f64a0ae920000000000000000000000000000000000000000000000000000000081526004016128999190612ca1565b60405180910390fd5b60006128b083836000611bcc565b9050600073ffffffffffffffffffffffffffffffffffffffff168173ffffffffffffffffffffffffffffffffffffffff16146129245760006040517f73c6ac6e00000000000000000000000000000000000000000000000000000000815260040161291b9190612ca1565b60405180910390fd5b505050565b600080600090507a184f03e93ff9f4daa797ed6e38ed64bf6a1f0100000000000000008310612987577a184f03e93ff9f4daa797ed6e38ed64bf6a1f010000000000000000838161297d5761297c613f3c565b5b0492506040810190505b6d04ee2d6d415b85acef810000000083106129c4576d04ee2d6d415b85acef810000000083816129ba576129b9613f3c565b5b0492506020810190505b662386f26fc1000083106129f357662386f26fc1000083816129e9576129e8613f3c565b5b0492506010810190505b6305f5e1008310612a1c576305f5e1008381612a1257612a11613f3c565b5b0492506008810190505b6127108310612a41576127108381612a3757612a36613f3c565b5b0492506004810190505b60648310612a645760648381612a5a57612a59613f3c565b5b0492506002810190505b600a8310612a73576001810190505b80915050919050565b6000604051905090565b600080fd5b600080fd5b60007fffffffff0000000000000000000000000000000000000000000000000000000082169050919050565b612ac581612a90565b8114612ad057600080fd5b50565b600081359050612ae281612abc565b92915050565b600060208284031215612afe57612afd612a86565b5b6000612b0c84828501612ad3565b91505092915050565b60008115159050919050565b612b2a81612b15565b82525050565b6000602082019050612b456000830184612b21565b92915050565b600081519050919050565b600082825260208201905092915050565b60005b83811015612b85578082015181840152602081019050612b6a565b60008484015250505050565b6000601f19601f8301169050919050565b6000612bad82612b4b565b612bb78185612b56565b9350612bc7818560208601612b67565b612bd081612b91565b840191505092915050565b60006020820190508181036000830152612bf58184612ba2565b905092915050565b6000819050919050565b612c1081612bfd565b8114612c1b57600080fd5b50565b600081359050612c2d81612c07565b92915050565b600060208284031215612c4957612c48612a86565b5b6000612c5784828501612c1e565b91505092915050565b600073ffffffffffffffffffffffffffffffffffffffff82169050919050565b6000612c8b82612c60565b9050919050565b612c9b81612c80565b82525050565b6000602082019050612cb66000830184612c92565b92915050565b612cc581612c80565b8114612cd057600080fd5b50565b600081359050612ce281612cbc565b92915050565b60008060408385031215612cff57612cfe612a86565b5b6000612d0d85828601612cd3565b9250506020612d1e85828601612c1e565b9150509250929050565b600080600060608486031215612d4157612d40612a86565b5b6000612d4f86828701612cd3565b9350506020612d6086828701612cd3565b9250506040612d7186828701612c1e565b9150509250925092565b600080fd5b600080fd5b600080fd5b60008083601f840112612da057612d9f612d7b565b5b8235905067ffffffffffffffff811115612dbd57612dbc612d80565b5b602083019150836001820283011115612dd957612dd8612d85565b5b9250929050565b600080600080600060808688031215612dfc57612dfb612a86565b5b6000612e0a88828901612c1e565b955050602086013567ffffffffffffffff811115612e2b57612e2a612a8b565b5b612e3788828901612d8a565b94509450506040612e4a88828901612c1e565b9250506060612e5b88828901612c1e565b9150509295509295909350565b612e7181612bfd565b82525050565b6000602082019050612e8c6000830184612e68565b92915050565b60008083601f840112612ea857612ea7612d7b565b5b8235905067ffffffffffffffff811115612ec557612ec4612d80565b5b602083019150836020820283011115612ee157612ee0612d85565b5b9250929050565b60008083601f840112612efe57612efd612d7b565b5b8235905067ffffffffffffffff811115612f1b57612f1a612d80565b5b602083019150836020820283011115612f3757612f36612d85565b5b9250929050565b60008060008060008060006080888a031215612f5d57612f5c612a86565b5b6000612f6b8a828b01612cd3565b975050602088013567ffffffffffffffff811115612f8c57612f8b612a8b565b5b612f988a828b01612e92565b9650965050604088013567ffffffffffffffff811115612fbb57612fba612a8b565b5b612fc78a828b01612ee8565b9450945050606088013567ffffffffffffffff811115612fea57612fe9612a8b565b5b612ff68a828b01612ee8565b925092505092959891949750929550565b600060808201905061301c6000830187612e68565b6130296020830186612e68565b6130366040830185612e68565b6130436060830184612e68565b95945050505050565b600081519050919050565b600082825260208201905092915050565b6000819050602082019050919050565b61308181612bfd565b82525050565b60006130938383613078565b60208301905092915050565b6000602082019050919050565b60006130b78261304c565b6130c18185613057565b93506130cc83613068565b8060005b838110156130fd5781516130e48882613087565b97506130ef8361309f565b9250506001810190506130d0565b5085935050505092915050565b6000602082019050818103600083015261312481846130ac565b905092915050565b60006020828403121561314257613141612a86565b5b600061315084828501612cd3565b91505092915050565b600060408201905061316e6000830185612b21565b81810360208301526131808184612ba2565b90509392505050565b6000806000604084860312156131a2576131a1612a86565b5b60006131b086828701612c1e565b935050602084013567ffffffffffffffff8111156131d1576131d0612a8b565b5b6131dd86828701612d8a565b92509250509250925092565b6131f281612b15565b81146131fd57600080fd5b50565b60008135905061320f816131e9565b92915050565b6000806040838503121561322c5761322b612a86565b5b600061323a85828601612cd3565b925050602061324b85828601613200565b9150509250929050565b6000806000806000806060878903121561327257613271612a86565b5b600087013567ffffffffffffffff8111156132905761328f612a8b565b5b61329c89828a01612e92565b9650965050602087013567ffffffffffffffff8111156132bf576132be612a8b565b5b6132cb89828a01612ee8565b9450945050604087013567ffffffffffffffff8111156132ee576132ed612a8b565b5b6132fa89828a01612ee8565b92509250509295509295509295565b600080fd5b7f4e487b7100000000000000000000000000000000000000000000000000000000600052604160045260246000fd5b61334682612b91565b810181811067ffffffffffffffff821117156133655761336461330e565b5b80604052505050565b6000613378612a7c565b9050613384828261333d565b919050565b600067ffffffffffffffff8211156133a4576133a361330e565b5b6133ad82612b91565b9050602081019050919050565b82818337600083830152505050565b60006133dc6133d784613389565b61336e565b9050828152602081018484840111156133f8576133f7613309565b5b6134038482856133ba565b509392505050565b600082601f8301126134205761341f612d7b565b5b81356134308482602086016133c9565b91505092915050565b6000806000806080858703121561345357613452612a86565b5b600061346187828801612cd3565b945050602061347287828801612cd3565b935050604061348387828801612c1e565b925050606085013567ffffffffffffffff8111156134a4576134a3612a8b565b5b6134b08782880161340b565b91505092959194509250565b600080604083850312156134d3576134d2612a86565b5b60006134e185828601612cd3565b92505060206134f285828601612cd3565b9150509250929050565b600060a0820190506135116000830188612e68565b61351e6020830187612e68565b61352b6040830186612e68565b818103606083015261353d8185612ba2565b905061354c6080830184612b21565b9695505050505050565b7f4e487b7100000000000000000000000000000000000000000000000000000000600052602260045260246000fd5b6000600282049050600182168061359d57607f821691505b6020821081036135b0576135af613556565b5b50919050565b60006060820190506135cb6000830186612c92565b6135d86020830185612e68565b6135e56040830184612c92565b949350505050565b7f4576656e74206e6f742065786973747300000000000000000000000000000000600082015250565b6000613623601083612b56565b915061362e826135ed565b602082019050919050565b6000602082019050818103600083015261365281613616565b9050919050565b7f4e487b7100000000000000000000000000000000000000000000000000000000600052601160045260246000fd5b600061369382612bfd565b91507fffffffffffffffffffffffffffffffffffffffffffffffffffffffffffffffff82036136c5576136c4613659565b5b600182019050919050565b60008190508160005260206000209050919050565b60006020601f8301049050919050565b600082821b905092915050565b6000600883026137327fffffffffffffffffffffffffffffffffffffffffffffffffffffffffffffffff826136f5565b61373c86836136f5565b95508019841693508086168417925050509392505050565b6000819050919050565b600061377961377461376f84612bfd565b613754565b612bfd565b9050919050565b6000819050919050565b6137938361375e565b6137a761379f82613780565b848454613702565b825550505050565b600090565b6137bc6137af565b6137c781848461378a565b505050565b5b818110156137eb576137e06000826137b4565b6001810190506137cd565b5050565b601f82111561383057613801816136d0565b61380a846136e5565b81016020851015613819578190505b61382d613825856136e5565b8301826137cc565b50505b505050565b600082821c905092915050565b600061385360001984600802613835565b1980831691505092915050565b600061386c8383613842565b9150826002028217905092915050565b61388582612b4b565b67ffffffffffffffff81111561389e5761389d61330e565b5b6138a88254613585565b6138b38282856137ef565b600060209050601f8311600181146138e657600084156138d4578287015190505b6138de8582613860565b865550613946565b601f1984166138f4866136d0565b60005b8281101561391c578489015182556001820191506020850194506020810190506138f7565b868310156139395784890151613935601f891682613842565b8355505b6001600288020188555050505b505050505050565b600061395a8385612b56565b93506139678385846133ba565b61397083612b91565b840190509392505050565b6000606082019050818103600083015261399681868861394e565b90506139a56020830185612e68565b6139b26040830184612e68565b95945050505050565b7f4172726179206d69736d61746368000000000000000000000000000000000000600082015250565b60006139f1600e83612b56565b91506139fc826139bb565b602082019050919050565b60006020820190508181036000830152613a20816139e4565b9050919050565b7f4e487b7100000000000000000000000000000000000000000000000000000000600052603260045260246000fd5b7f5469636b657454797065206e6f74206578697374730000000000000000000000600082015250565b6000613a8c601583612b56565b9150613a9782613a56565b602082019050919050565b60006020820190508181036000830152613abb81613a7f565b9050919050565b600080fd5b600080fd5b600080fd5b60008083356001602003843603038112613aee57613aed613ac2565b5b80840192508235915067ffffffffffffffff821115613b1057613b0f613ac7565b5b602083019250600182023603831315613b2c57613b2b613acc565b5b509250929050565b6000606082019050613b496000830186612e68565b613b566020830185612c92565b613b636040830184612e68565b949350505050565b6000613b7682612bfd565b9150613b8183612bfd565b9250828203905081811115613b9957613b98613659565b5b92915050565b7f4576656e74206578697374730000000000000000000000000000000000000000600082015250565b6000613bd5600c83612b56565b9150613be082613b9f565b602082019050919050565b60006020820190508181036000830152613c0481613bc8565b9050919050565b60006020820190508181036000830152613c2681848661394e565b90509392505050565b7f456d707479000000000000000000000000000000000000000000000000000000600082015250565b6000613c65600583612b56565b9150613c7082613c2f565b602082019050919050565b60006020820190508181036000830152613c9481613c58565b9050919050565b7f536f6c64206f7574000000000000000000000000000000000000000000000000600082015250565b6000613cd1600883612b56565b9150613cdc82613c9b565b602082019050919050565b60006020820190508181036000830152613d0081613cc4565b9050919050565b6000613d1282612bfd565b9150613d1d83612bfd565b9250828201905080821115613d3557613d34613659565b5b92915050565b7f4261642045544800000000000000000000000000000000000000000000000000600082015250565b6000613d71600783612b56565b9150613d7c82613d3b565b602082019050919050565b60006020820190508181036000830152613da081613d64565b9050919050565b6000613db282612bfd565b915060008203613dc557613dc4613659565b5b600182039050919050565b600081905092915050565b6000613de682612b4b565b613df08185613dd0565b9350613e00818560208601612b67565b80840191505092915050565b6000613e188285613ddb565b9150613e248284613ddb565b91508190509392505050565b600081519050919050565b600082825260208201905092915050565b6000613e5782613e30565b613e618185613e3b565b9350613e71818560208601612b67565b613e7a81612b91565b840191505092915050565b6000608082019050613e9a6000830187612c92565b613ea76020830186612c92565b613eb46040830185612e68565b8181036060830152613ec68184613e4c565b905095945050505050565b600081519050613ee081612abc565b92915050565b600060208284031215613efc57613efb612a86565b5b6000613f0a84828501613ed1565b91505092915050565b6000604082019050613f286000830185612c92565b613f356020830184612e68565b9392505050565b7f4e487b7100000000000000000000000000000000000000000000000000000000600052601260045260246000fdfea2646970667358221220f07f712b58d8632eab231a72c6931579c9a1617250eb34bda7b477519fcc2da464736f6c634300081c0033",
  "linkReferences": {},
  "deployedLinkReferences": {}
}